
tp_os_06_04_2021.elf:     file format elf32-littlearm

Sections:
Idx Name          Size      VMA       LMA       File off  Algn
  0 .isr_vector   00000188  08000000  08000000  00010000  2**0
                  CONTENTS, ALLOC, LOAD, READONLY, DATA
  1 .text         0000aab8  08000190  08000190  00010190  2**4
                  CONTENTS, ALLOC, LOAD, READONLY, CODE
  2 .rodata       00000090  0800ac48  0800ac48  0001ac48  2**2
                  CONTENTS, ALLOC, LOAD, READONLY, DATA
  3 .ARM.extab    00000000  0800acd8  0800acd8  00020094  2**0
                  CONTENTS
  4 .ARM          00000008  0800acd8  0800acd8  0001acd8  2**2
                  CONTENTS, ALLOC, LOAD, READONLY, DATA
  5 .preinit_array 00000000  0800ace0  0800ace0  00020094  2**0
                  CONTENTS, ALLOC, LOAD, DATA
  6 .init_array   00000004  0800ace0  0800ace0  0001ace0  2**2
                  CONTENTS, ALLOC, LOAD, DATA
  7 .fini_array   00000004  0800ace4  0800ace4  0001ace4  2**2
                  CONTENTS, ALLOC, LOAD, DATA
  8 .data         00000094  20000000  0800ace8  00020000  2**2
                  CONTENTS, ALLOC, LOAD, DATA
  9 .bss          00004818  20000094  0800ad7c  00020094  2**2
                  ALLOC
 10 ._user_heap_stack 00000604  200048ac  0800ad7c  000248ac  2**0
                  ALLOC
 11 .ARM.attributes 00000030  00000000  00000000  00020094  2**0
                  CONTENTS, READONLY
 12 .debug_info   00028a19  00000000  00000000  000200c4  2**0
                  CONTENTS, READONLY, DEBUGGING, OCTETS
 13 .debug_abbrev 00005457  00000000  00000000  00048add  2**0
                  CONTENTS, READONLY, DEBUGGING, OCTETS
 14 .debug_aranges 00001c60  00000000  00000000  0004df38  2**3
                  CONTENTS, READONLY, DEBUGGING, OCTETS
 15 .debug_ranges 00001a60  00000000  00000000  0004fb98  2**3
                  CONTENTS, READONLY, DEBUGGING, OCTETS
 16 .debug_macro  00026d46  00000000  00000000  000515f8  2**0
                  CONTENTS, READONLY, DEBUGGING, OCTETS
 17 .debug_line   0002386c  00000000  00000000  0007833e  2**0
                  CONTENTS, READONLY, DEBUGGING, OCTETS
 18 .debug_str    000dc64e  00000000  00000000  0009bbaa  2**0
                  CONTENTS, READONLY, DEBUGGING, OCTETS
 19 .comment      00000053  00000000  00000000  001781f8  2**0
                  CONTENTS, READONLY
 20 .debug_frame  0000795c  00000000  00000000  0017824c  2**2
                  CONTENTS, READONLY, DEBUGGING, OCTETS

Disassembly of section .text:

08000190 <__do_global_dtors_aux>:
 8000190:	b510      	push	{r4, lr}
 8000192:	4c05      	ldr	r4, [pc, #20]	; (80001a8 <__do_global_dtors_aux+0x18>)
 8000194:	7823      	ldrb	r3, [r4, #0]
 8000196:	b933      	cbnz	r3, 80001a6 <__do_global_dtors_aux+0x16>
 8000198:	4b04      	ldr	r3, [pc, #16]	; (80001ac <__do_global_dtors_aux+0x1c>)
 800019a:	b113      	cbz	r3, 80001a2 <__do_global_dtors_aux+0x12>
 800019c:	4804      	ldr	r0, [pc, #16]	; (80001b0 <__do_global_dtors_aux+0x20>)
 800019e:	f3af 8000 	nop.w
 80001a2:	2301      	movs	r3, #1
 80001a4:	7023      	strb	r3, [r4, #0]
 80001a6:	bd10      	pop	{r4, pc}
 80001a8:	20000094 	.word	0x20000094
 80001ac:	00000000 	.word	0x00000000
 80001b0:	0800ac30 	.word	0x0800ac30

080001b4 <frame_dummy>:
 80001b4:	b508      	push	{r3, lr}
 80001b6:	4b03      	ldr	r3, [pc, #12]	; (80001c4 <frame_dummy+0x10>)
 80001b8:	b11b      	cbz	r3, 80001c2 <frame_dummy+0xe>
 80001ba:	4903      	ldr	r1, [pc, #12]	; (80001c8 <frame_dummy+0x14>)
 80001bc:	4803      	ldr	r0, [pc, #12]	; (80001cc <frame_dummy+0x18>)
 80001be:	f3af 8000 	nop.w
 80001c2:	bd08      	pop	{r3, pc}
 80001c4:	00000000 	.word	0x00000000
 80001c8:	20000098 	.word	0x20000098
 80001cc:	0800ac30 	.word	0x0800ac30

080001d0 <__aeabi_uldivmod>:
 80001d0:	b953      	cbnz	r3, 80001e8 <__aeabi_uldivmod+0x18>
 80001d2:	b94a      	cbnz	r2, 80001e8 <__aeabi_uldivmod+0x18>
 80001d4:	2900      	cmp	r1, #0
 80001d6:	bf08      	it	eq
 80001d8:	2800      	cmpeq	r0, #0
 80001da:	bf1c      	itt	ne
 80001dc:	f04f 31ff 	movne.w	r1, #4294967295
 80001e0:	f04f 30ff 	movne.w	r0, #4294967295
 80001e4:	f000 b96e 	b.w	80004c4 <__aeabi_idiv0>
 80001e8:	f1ad 0c08 	sub.w	ip, sp, #8
 80001ec:	e96d ce04 	strd	ip, lr, [sp, #-16]!
 80001f0:	f000 f806 	bl	8000200 <__udivmoddi4>
 80001f4:	f8dd e004 	ldr.w	lr, [sp, #4]
 80001f8:	e9dd 2302 	ldrd	r2, r3, [sp, #8]
 80001fc:	b004      	add	sp, #16
 80001fe:	4770      	bx	lr

08000200 <__udivmoddi4>:
 8000200:	e92d 47f0 	stmdb	sp!, {r4, r5, r6, r7, r8, r9, sl, lr}
 8000204:	9d08      	ldr	r5, [sp, #32]
 8000206:	4604      	mov	r4, r0
 8000208:	468c      	mov	ip, r1
 800020a:	2b00      	cmp	r3, #0
 800020c:	f040 8083 	bne.w	8000316 <__udivmoddi4+0x116>
 8000210:	428a      	cmp	r2, r1
 8000212:	4617      	mov	r7, r2
 8000214:	d947      	bls.n	80002a6 <__udivmoddi4+0xa6>
 8000216:	fab2 f282 	clz	r2, r2
 800021a:	b142      	cbz	r2, 800022e <__udivmoddi4+0x2e>
 800021c:	f1c2 0020 	rsb	r0, r2, #32
 8000220:	fa24 f000 	lsr.w	r0, r4, r0
 8000224:	4091      	lsls	r1, r2
 8000226:	4097      	lsls	r7, r2
 8000228:	ea40 0c01 	orr.w	ip, r0, r1
 800022c:	4094      	lsls	r4, r2
 800022e:	ea4f 4817 	mov.w	r8, r7, lsr #16
 8000232:	0c23      	lsrs	r3, r4, #16
 8000234:	fbbc f6f8 	udiv	r6, ip, r8
 8000238:	fa1f fe87 	uxth.w	lr, r7
 800023c:	fb08 c116 	mls	r1, r8, r6, ip
 8000240:	ea43 4301 	orr.w	r3, r3, r1, lsl #16
 8000244:	fb06 f10e 	mul.w	r1, r6, lr
 8000248:	4299      	cmp	r1, r3
 800024a:	d909      	bls.n	8000260 <__udivmoddi4+0x60>
 800024c:	18fb      	adds	r3, r7, r3
 800024e:	f106 30ff 	add.w	r0, r6, #4294967295
 8000252:	f080 8119 	bcs.w	8000488 <__udivmoddi4+0x288>
 8000256:	4299      	cmp	r1, r3
 8000258:	f240 8116 	bls.w	8000488 <__udivmoddi4+0x288>
 800025c:	3e02      	subs	r6, #2
 800025e:	443b      	add	r3, r7
 8000260:	1a5b      	subs	r3, r3, r1
 8000262:	b2a4      	uxth	r4, r4
 8000264:	fbb3 f0f8 	udiv	r0, r3, r8
 8000268:	fb08 3310 	mls	r3, r8, r0, r3
 800026c:	ea44 4403 	orr.w	r4, r4, r3, lsl #16
 8000270:	fb00 fe0e 	mul.w	lr, r0, lr
 8000274:	45a6      	cmp	lr, r4
 8000276:	d909      	bls.n	800028c <__udivmoddi4+0x8c>
 8000278:	193c      	adds	r4, r7, r4
 800027a:	f100 33ff 	add.w	r3, r0, #4294967295
 800027e:	f080 8105 	bcs.w	800048c <__udivmoddi4+0x28c>
 8000282:	45a6      	cmp	lr, r4
 8000284:	f240 8102 	bls.w	800048c <__udivmoddi4+0x28c>
 8000288:	3802      	subs	r0, #2
 800028a:	443c      	add	r4, r7
 800028c:	ea40 4006 	orr.w	r0, r0, r6, lsl #16
 8000290:	eba4 040e 	sub.w	r4, r4, lr
 8000294:	2600      	movs	r6, #0
 8000296:	b11d      	cbz	r5, 80002a0 <__udivmoddi4+0xa0>
 8000298:	40d4      	lsrs	r4, r2
 800029a:	2300      	movs	r3, #0
 800029c:	e9c5 4300 	strd	r4, r3, [r5]
 80002a0:	4631      	mov	r1, r6
 80002a2:	e8bd 87f0 	ldmia.w	sp!, {r4, r5, r6, r7, r8, r9, sl, pc}
 80002a6:	b902      	cbnz	r2, 80002aa <__udivmoddi4+0xaa>
 80002a8:	deff      	udf	#255	; 0xff
 80002aa:	fab2 f282 	clz	r2, r2
 80002ae:	2a00      	cmp	r2, #0
 80002b0:	d150      	bne.n	8000354 <__udivmoddi4+0x154>
 80002b2:	1bcb      	subs	r3, r1, r7
 80002b4:	ea4f 4e17 	mov.w	lr, r7, lsr #16
 80002b8:	fa1f f887 	uxth.w	r8, r7
 80002bc:	2601      	movs	r6, #1
 80002be:	fbb3 fcfe 	udiv	ip, r3, lr
 80002c2:	0c21      	lsrs	r1, r4, #16
 80002c4:	fb0e 331c 	mls	r3, lr, ip, r3
 80002c8:	ea41 4103 	orr.w	r1, r1, r3, lsl #16
 80002cc:	fb08 f30c 	mul.w	r3, r8, ip
 80002d0:	428b      	cmp	r3, r1
 80002d2:	d907      	bls.n	80002e4 <__udivmoddi4+0xe4>
 80002d4:	1879      	adds	r1, r7, r1
 80002d6:	f10c 30ff 	add.w	r0, ip, #4294967295
 80002da:	d202      	bcs.n	80002e2 <__udivmoddi4+0xe2>
 80002dc:	428b      	cmp	r3, r1
 80002de:	f200 80e9 	bhi.w	80004b4 <__udivmoddi4+0x2b4>
 80002e2:	4684      	mov	ip, r0
 80002e4:	1ac9      	subs	r1, r1, r3
 80002e6:	b2a3      	uxth	r3, r4
 80002e8:	fbb1 f0fe 	udiv	r0, r1, lr
 80002ec:	fb0e 1110 	mls	r1, lr, r0, r1
 80002f0:	ea43 4401 	orr.w	r4, r3, r1, lsl #16
 80002f4:	fb08 f800 	mul.w	r8, r8, r0
 80002f8:	45a0      	cmp	r8, r4
 80002fa:	d907      	bls.n	800030c <__udivmoddi4+0x10c>
 80002fc:	193c      	adds	r4, r7, r4
 80002fe:	f100 33ff 	add.w	r3, r0, #4294967295
 8000302:	d202      	bcs.n	800030a <__udivmoddi4+0x10a>
 8000304:	45a0      	cmp	r8, r4
 8000306:	f200 80d9 	bhi.w	80004bc <__udivmoddi4+0x2bc>
 800030a:	4618      	mov	r0, r3
 800030c:	eba4 0408 	sub.w	r4, r4, r8
 8000310:	ea40 400c 	orr.w	r0, r0, ip, lsl #16
 8000314:	e7bf      	b.n	8000296 <__udivmoddi4+0x96>
 8000316:	428b      	cmp	r3, r1
 8000318:	d909      	bls.n	800032e <__udivmoddi4+0x12e>
 800031a:	2d00      	cmp	r5, #0
 800031c:	f000 80b1 	beq.w	8000482 <__udivmoddi4+0x282>
 8000320:	2600      	movs	r6, #0
 8000322:	e9c5 0100 	strd	r0, r1, [r5]
 8000326:	4630      	mov	r0, r6
 8000328:	4631      	mov	r1, r6
 800032a:	e8bd 87f0 	ldmia.w	sp!, {r4, r5, r6, r7, r8, r9, sl, pc}
 800032e:	fab3 f683 	clz	r6, r3
 8000332:	2e00      	cmp	r6, #0
 8000334:	d14a      	bne.n	80003cc <__udivmoddi4+0x1cc>
 8000336:	428b      	cmp	r3, r1
 8000338:	d302      	bcc.n	8000340 <__udivmoddi4+0x140>
 800033a:	4282      	cmp	r2, r0
 800033c:	f200 80b8 	bhi.w	80004b0 <__udivmoddi4+0x2b0>
 8000340:	1a84      	subs	r4, r0, r2
 8000342:	eb61 0103 	sbc.w	r1, r1, r3
 8000346:	2001      	movs	r0, #1
 8000348:	468c      	mov	ip, r1
 800034a:	2d00      	cmp	r5, #0
 800034c:	d0a8      	beq.n	80002a0 <__udivmoddi4+0xa0>
 800034e:	e9c5 4c00 	strd	r4, ip, [r5]
 8000352:	e7a5      	b.n	80002a0 <__udivmoddi4+0xa0>
 8000354:	f1c2 0320 	rsb	r3, r2, #32
 8000358:	fa20 f603 	lsr.w	r6, r0, r3
 800035c:	4097      	lsls	r7, r2
 800035e:	fa01 f002 	lsl.w	r0, r1, r2
 8000362:	ea4f 4e17 	mov.w	lr, r7, lsr #16
 8000366:	40d9      	lsrs	r1, r3
 8000368:	4330      	orrs	r0, r6
 800036a:	0c03      	lsrs	r3, r0, #16
 800036c:	fbb1 f6fe 	udiv	r6, r1, lr
 8000370:	fa1f f887 	uxth.w	r8, r7
 8000374:	fb0e 1116 	mls	r1, lr, r6, r1
 8000378:	ea43 4301 	orr.w	r3, r3, r1, lsl #16
 800037c:	fb06 f108 	mul.w	r1, r6, r8
 8000380:	4299      	cmp	r1, r3
 8000382:	fa04 f402 	lsl.w	r4, r4, r2
 8000386:	d909      	bls.n	800039c <__udivmoddi4+0x19c>
 8000388:	18fb      	adds	r3, r7, r3
 800038a:	f106 3cff 	add.w	ip, r6, #4294967295
 800038e:	f080 808d 	bcs.w	80004ac <__udivmoddi4+0x2ac>
 8000392:	4299      	cmp	r1, r3
 8000394:	f240 808a 	bls.w	80004ac <__udivmoddi4+0x2ac>
 8000398:	3e02      	subs	r6, #2
 800039a:	443b      	add	r3, r7
 800039c:	1a5b      	subs	r3, r3, r1
 800039e:	b281      	uxth	r1, r0
 80003a0:	fbb3 f0fe 	udiv	r0, r3, lr
 80003a4:	fb0e 3310 	mls	r3, lr, r0, r3
 80003a8:	ea41 4103 	orr.w	r1, r1, r3, lsl #16
 80003ac:	fb00 f308 	mul.w	r3, r0, r8
 80003b0:	428b      	cmp	r3, r1
 80003b2:	d907      	bls.n	80003c4 <__udivmoddi4+0x1c4>
 80003b4:	1879      	adds	r1, r7, r1
 80003b6:	f100 3cff 	add.w	ip, r0, #4294967295
 80003ba:	d273      	bcs.n	80004a4 <__udivmoddi4+0x2a4>
 80003bc:	428b      	cmp	r3, r1
 80003be:	d971      	bls.n	80004a4 <__udivmoddi4+0x2a4>
 80003c0:	3802      	subs	r0, #2
 80003c2:	4439      	add	r1, r7
 80003c4:	1acb      	subs	r3, r1, r3
 80003c6:	ea40 4606 	orr.w	r6, r0, r6, lsl #16
 80003ca:	e778      	b.n	80002be <__udivmoddi4+0xbe>
 80003cc:	f1c6 0c20 	rsb	ip, r6, #32
 80003d0:	fa03 f406 	lsl.w	r4, r3, r6
 80003d4:	fa22 f30c 	lsr.w	r3, r2, ip
 80003d8:	431c      	orrs	r4, r3
 80003da:	fa20 f70c 	lsr.w	r7, r0, ip
 80003de:	fa01 f306 	lsl.w	r3, r1, r6
 80003e2:	ea4f 4e14 	mov.w	lr, r4, lsr #16
 80003e6:	fa21 f10c 	lsr.w	r1, r1, ip
 80003ea:	431f      	orrs	r7, r3
 80003ec:	0c3b      	lsrs	r3, r7, #16
 80003ee:	fbb1 f9fe 	udiv	r9, r1, lr
 80003f2:	fa1f f884 	uxth.w	r8, r4
 80003f6:	fb0e 1119 	mls	r1, lr, r9, r1
 80003fa:	ea43 4101 	orr.w	r1, r3, r1, lsl #16
 80003fe:	fb09 fa08 	mul.w	sl, r9, r8
 8000402:	458a      	cmp	sl, r1
 8000404:	fa02 f206 	lsl.w	r2, r2, r6
 8000408:	fa00 f306 	lsl.w	r3, r0, r6
 800040c:	d908      	bls.n	8000420 <__udivmoddi4+0x220>
 800040e:	1861      	adds	r1, r4, r1
 8000410:	f109 30ff 	add.w	r0, r9, #4294967295
 8000414:	d248      	bcs.n	80004a8 <__udivmoddi4+0x2a8>
 8000416:	458a      	cmp	sl, r1
 8000418:	d946      	bls.n	80004a8 <__udivmoddi4+0x2a8>
 800041a:	f1a9 0902 	sub.w	r9, r9, #2
 800041e:	4421      	add	r1, r4
 8000420:	eba1 010a 	sub.w	r1, r1, sl
 8000424:	b2bf      	uxth	r7, r7
 8000426:	fbb1 f0fe 	udiv	r0, r1, lr
 800042a:	fb0e 1110 	mls	r1, lr, r0, r1
 800042e:	ea47 4701 	orr.w	r7, r7, r1, lsl #16
 8000432:	fb00 f808 	mul.w	r8, r0, r8
 8000436:	45b8      	cmp	r8, r7
 8000438:	d907      	bls.n	800044a <__udivmoddi4+0x24a>
 800043a:	19e7      	adds	r7, r4, r7
 800043c:	f100 31ff 	add.w	r1, r0, #4294967295
 8000440:	d22e      	bcs.n	80004a0 <__udivmoddi4+0x2a0>
 8000442:	45b8      	cmp	r8, r7
 8000444:	d92c      	bls.n	80004a0 <__udivmoddi4+0x2a0>
 8000446:	3802      	subs	r0, #2
 8000448:	4427      	add	r7, r4
 800044a:	ea40 4009 	orr.w	r0, r0, r9, lsl #16
 800044e:	eba7 0708 	sub.w	r7, r7, r8
 8000452:	fba0 8902 	umull	r8, r9, r0, r2
 8000456:	454f      	cmp	r7, r9
 8000458:	46c6      	mov	lr, r8
 800045a:	4649      	mov	r1, r9
 800045c:	d31a      	bcc.n	8000494 <__udivmoddi4+0x294>
 800045e:	d017      	beq.n	8000490 <__udivmoddi4+0x290>
 8000460:	b15d      	cbz	r5, 800047a <__udivmoddi4+0x27a>
 8000462:	ebb3 020e 	subs.w	r2, r3, lr
 8000466:	eb67 0701 	sbc.w	r7, r7, r1
 800046a:	fa07 fc0c 	lsl.w	ip, r7, ip
 800046e:	40f2      	lsrs	r2, r6
 8000470:	ea4c 0202 	orr.w	r2, ip, r2
 8000474:	40f7      	lsrs	r7, r6
 8000476:	e9c5 2700 	strd	r2, r7, [r5]
 800047a:	2600      	movs	r6, #0
 800047c:	4631      	mov	r1, r6
 800047e:	e8bd 87f0 	ldmia.w	sp!, {r4, r5, r6, r7, r8, r9, sl, pc}
 8000482:	462e      	mov	r6, r5
 8000484:	4628      	mov	r0, r5
 8000486:	e70b      	b.n	80002a0 <__udivmoddi4+0xa0>
 8000488:	4606      	mov	r6, r0
 800048a:	e6e9      	b.n	8000260 <__udivmoddi4+0x60>
 800048c:	4618      	mov	r0, r3
 800048e:	e6fd      	b.n	800028c <__udivmoddi4+0x8c>
 8000490:	4543      	cmp	r3, r8
 8000492:	d2e5      	bcs.n	8000460 <__udivmoddi4+0x260>
 8000494:	ebb8 0e02 	subs.w	lr, r8, r2
 8000498:	eb69 0104 	sbc.w	r1, r9, r4
 800049c:	3801      	subs	r0, #1
 800049e:	e7df      	b.n	8000460 <__udivmoddi4+0x260>
 80004a0:	4608      	mov	r0, r1
 80004a2:	e7d2      	b.n	800044a <__udivmoddi4+0x24a>
 80004a4:	4660      	mov	r0, ip
 80004a6:	e78d      	b.n	80003c4 <__udivmoddi4+0x1c4>
 80004a8:	4681      	mov	r9, r0
 80004aa:	e7b9      	b.n	8000420 <__udivmoddi4+0x220>
 80004ac:	4666      	mov	r6, ip
 80004ae:	e775      	b.n	800039c <__udivmoddi4+0x19c>
 80004b0:	4630      	mov	r0, r6
 80004b2:	e74a      	b.n	800034a <__udivmoddi4+0x14a>
 80004b4:	f1ac 0c02 	sub.w	ip, ip, #2
 80004b8:	4439      	add	r1, r7
 80004ba:	e713      	b.n	80002e4 <__udivmoddi4+0xe4>
 80004bc:	3802      	subs	r0, #2
 80004be:	443c      	add	r4, r7
 80004c0:	e724      	b.n	800030c <__udivmoddi4+0x10c>
 80004c2:	bf00      	nop

080004c4 <__aeabi_idiv0>:
 80004c4:	4770      	bx	lr
 80004c6:	bf00      	nop

080004c8 <vApplicationGetIdleTaskMemory>:
/* USER CODE BEGIN GET_IDLE_TASK_MEMORY */
static StaticTask_t xIdleTaskTCBBuffer;
static StackType_t xIdleStack[configMINIMAL_STACK_SIZE];

void vApplicationGetIdleTaskMemory( StaticTask_t **ppxIdleTaskTCBBuffer, StackType_t **ppxIdleTaskStackBuffer, uint32_t *pulIdleTaskStackSize )
{
 80004c8:	b480      	push	{r7}
 80004ca:	b085      	sub	sp, #20
 80004cc:	af00      	add	r7, sp, #0
 80004ce:	60f8      	str	r0, [r7, #12]
 80004d0:	60b9      	str	r1, [r7, #8]
 80004d2:	607a      	str	r2, [r7, #4]
  *ppxIdleTaskTCBBuffer = &xIdleTaskTCBBuffer;
 80004d4:	68fb      	ldr	r3, [r7, #12]
 80004d6:	4a07      	ldr	r2, [pc, #28]	; (80004f4 <vApplicationGetIdleTaskMemory+0x2c>)
 80004d8:	601a      	str	r2, [r3, #0]
  *ppxIdleTaskStackBuffer = &xIdleStack[0];
 80004da:	68bb      	ldr	r3, [r7, #8]
 80004dc:	4a06      	ldr	r2, [pc, #24]	; (80004f8 <vApplicationGetIdleTaskMemory+0x30>)
 80004de:	601a      	str	r2, [r3, #0]
  *pulIdleTaskStackSize = configMINIMAL_STACK_SIZE;
 80004e0:	687b      	ldr	r3, [r7, #4]
 80004e2:	2280      	movs	r2, #128	; 0x80
 80004e4:	601a      	str	r2, [r3, #0]
  /* place for user code */
}
 80004e6:	bf00      	nop
 80004e8:	3714      	adds	r7, #20
 80004ea:	46bd      	mov	sp, r7
 80004ec:	f85d 7b04 	ldr.w	r7, [sp], #4
 80004f0:	4770      	bx	lr
 80004f2:	bf00      	nop
 80004f4:	200000b0 	.word	0x200000b0
 80004f8:	20000104 	.word	0x20000104

080004fc <Led_GateKeeper2>:
		vTaskDelay(xDelay);
	}
}

void Led_GateKeeper2(void * pvParameters)
{
 80004fc:	b580      	push	{r7, lr}
 80004fe:	b084      	sub	sp, #16
 8000500:	af00      	add	r7, sp, #0
 8000502:	6078      	str	r0, [r7, #4]
	TickType_t xDelay = 1000 / portTICK_PERIOD_MS;
 8000504:	f44f 737a 	mov.w	r3, #1000	; 0x3e8
 8000508:	60fb      	str	r3, [r7, #12]
	for(;;)
	{
		HAL_GPIO_WritePin(GPIOD, LD4_Pin|LD3_Pin, GPIO_PIN_RESET);
 800050a:	2200      	movs	r2, #0
 800050c:	f44f 5140 	mov.w	r1, #12288	; 0x3000
 8000510:	4807      	ldr	r0, [pc, #28]	; (8000530 <Led_GateKeeper2+0x34>)
 8000512:	f000 ffdb 	bl	80014cc <HAL_GPIO_WritePin>
		//printf("Low\n");
		//puts("Low");
		vTaskDelay(xDelay);
 8000516:	68f8      	ldr	r0, [r7, #12]
 8000518:	f008 fdfa 	bl	8009110 <vTaskDelay>
		HAL_GPIO_WritePin(GPIOD, LD4_Pin|LD3_Pin, GPIO_PIN_SET);
 800051c:	2201      	movs	r2, #1
 800051e:	f44f 5140 	mov.w	r1, #12288	; 0x3000
 8000522:	4803      	ldr	r0, [pc, #12]	; (8000530 <Led_GateKeeper2+0x34>)
 8000524:	f000 ffd2 	bl	80014cc <HAL_GPIO_WritePin>
		//printf("High\n");
		//puts("High");
		vTaskDelay(xDelay);
 8000528:	68f8      	ldr	r0, [r7, #12]
 800052a:	f008 fdf1 	bl	8009110 <vTaskDelay>
		HAL_GPIO_WritePin(GPIOD, LD4_Pin|LD3_Pin, GPIO_PIN_RESET);
 800052e:	e7ec      	b.n	800050a <Led_GateKeeper2+0xe>
 8000530:	40020c00 	.word	0x40020c00

08000534 <Led_GateKeeper3>:
	}
}

void Led_GateKeeper3(void * pvParameters)
{
 8000534:	b580      	push	{r7, lr}
 8000536:	b084      	sub	sp, #16
 8000538:	af00      	add	r7, sp, #0
 800053a:	6078      	str	r0, [r7, #4]
	TickType_t xDelay = 1000 / portTICK_PERIOD_MS;
 800053c:	f44f 737a 	mov.w	r3, #1000	; 0x3e8
 8000540:	60fb      	str	r3, [r7, #12]
	for(;;)
	{
		HAL_GPIO_WritePin(GPIOD, LD5_Pin, GPIO_PIN_RESET);
 8000542:	2200      	movs	r2, #0
 8000544:	f44f 4180 	mov.w	r1, #16384	; 0x4000
 8000548:	4807      	ldr	r0, [pc, #28]	; (8000568 <Led_GateKeeper3+0x34>)
 800054a:	f000 ffbf 	bl	80014cc <HAL_GPIO_WritePin>
		//printf("Low\n");
		//puts("Low");
		vTaskDelay(xDelay);
 800054e:	68f8      	ldr	r0, [r7, #12]
 8000550:	f008 fdde 	bl	8009110 <vTaskDelay>
		HAL_GPIO_WritePin(GPIOD, LD5_Pin, GPIO_PIN_SET);
 8000554:	2201      	movs	r2, #1
 8000556:	f44f 4180 	mov.w	r1, #16384	; 0x4000
 800055a:	4803      	ldr	r0, [pc, #12]	; (8000568 <Led_GateKeeper3+0x34>)
 800055c:	f000 ffb6 	bl	80014cc <HAL_GPIO_WritePin>
		//printf("High\n");
		//puts("High");
		vTaskDelay(xDelay);
 8000560:	68f8      	ldr	r0, [r7, #12]
 8000562:	f008 fdd5 	bl	8009110 <vTaskDelay>
		HAL_GPIO_WritePin(GPIOD, LD5_Pin, GPIO_PIN_RESET);
 8000566:	e7ec      	b.n	8000542 <Led_GateKeeper3+0xe>
 8000568:	40020c00 	.word	0x40020c00

0800056c <main>:
/**
  * @brief  The application entry point.
  * @retval int
  */
int main(void)
{
 800056c:	b5b0      	push	{r4, r5, r7, lr}
 800056e:	b08a      	sub	sp, #40	; 0x28
 8000570:	af02      	add	r7, sp, #8
  /* USER CODE END 1 */

  /* MCU Configuration--------------------------------------------------------*/

  /* Reset of all peripherals, Initializes the Flash interface and the Systick. */
  HAL_Init();
 8000572:	f000 fcaf 	bl	8000ed4 <HAL_Init>
  /* USER CODE BEGIN Init */

  /* USER CODE END Init */

  /* Configure the system clock */
  SystemClock_Config();
 8000576:	f000 f85d 	bl	8000634 <SystemClock_Config>
  /* USER CODE BEGIN SysInit */

  /* USER CODE END SysInit */

  /* Initialize all configured peripherals */
  MX_GPIO_Init();
 800057a:	f000 f971 	bl	8000860 <MX_GPIO_Init>
  MX_I2C1_Init();
 800057e:	f000 f8db 	bl	8000738 <MX_I2C1_Init>
  MX_I2S3_Init();
 8000582:	f000 f907 	bl	8000794 <MX_I2S3_Init>
  MX_SPI1_Init();
 8000586:	f000 f935 	bl	80007f4 <MX_SPI1_Init>
  /* add queues, ... */
  /* USER CODE END RTOS_QUEUES */

  /* Create the thread(s) */
  /* definition and creation of defaultTask */
  osThreadDef(defaultTask, StartDefaultTask, osPriorityNormal, 0, 128);
 800058a:	4b21      	ldr	r3, [pc, #132]	; (8000610 <main+0xa4>)
 800058c:	1d3c      	adds	r4, r7, #4
 800058e:	461d      	mov	r5, r3
 8000590:	cd0f      	ldmia	r5!, {r0, r1, r2, r3}
 8000592:	c40f      	stmia	r4!, {r0, r1, r2, r3}
 8000594:	e895 0007 	ldmia.w	r5, {r0, r1, r2}
 8000598:	e884 0007 	stmia.w	r4, {r0, r1, r2}
  defaultTaskHandle = osThreadCreate(osThread(defaultTask), NULL);
 800059c:	1d3b      	adds	r3, r7, #4
 800059e:	2100      	movs	r1, #0
 80005a0:	4618      	mov	r0, r3
 80005a2:	f007 fcec 	bl	8007f7e <osThreadCreate>
 80005a6:	4603      	mov	r3, r0
 80005a8:	4a1a      	ldr	r2, [pc, #104]	; (8000614 <main+0xa8>)
 80005aa:	6013      	str	r3, [r2, #0]
  /* USER CODE BEGIN RTOS_THREADS */
  /* add threads, ... */
  /* USER CODE END RTOS_THREADS */

  /* Start scheduler */
  osKernelStart();
 80005ac:	f007 fce0 	bl	8007f70 <osKernelStart>
  while (1)
  {
	  /*HAL_Delay(500);
	  HAL_GPIO_TogglePin(LD3_GPIO_Port, LD3_Pin);*/

	  HAL_GPIO_WritePin(GPIOD, LD4_Pin, GPIO_PIN_SET);
 80005b0:	2201      	movs	r2, #1
 80005b2:	f44f 5180 	mov.w	r1, #4096	; 0x1000
 80005b6:	4818      	ldr	r0, [pc, #96]	; (8000618 <main+0xac>)
 80005b8:	f000 ff88 	bl	80014cc <HAL_GPIO_WritePin>

	  if(HAL_GPIO_ReadPin(GPIOC, GPIO_PIN_13) == GPIO_PIN_SET)
 80005bc:	f44f 5100 	mov.w	r1, #8192	; 0x2000
 80005c0:	4816      	ldr	r0, [pc, #88]	; (800061c <main+0xb0>)
 80005c2:	f000 ff6b 	bl	800149c <HAL_GPIO_ReadPin>
 80005c6:	4603      	mov	r3, r0
 80005c8:	2b01      	cmp	r3, #1
 80005ca:	d1f1      	bne.n	80005b0 <main+0x44>
	  {
		  HAL_GPIO_WritePin(GPIOD, LD4_Pin, GPIO_PIN_RESET);
 80005cc:	2200      	movs	r2, #0
 80005ce:	f44f 5180 	mov.w	r1, #4096	; 0x1000
 80005d2:	4811      	ldr	r0, [pc, #68]	; (8000618 <main+0xac>)
 80005d4:	f000 ff7a 	bl	80014cc <HAL_GPIO_WritePin>
		  x1Returned = xTaskCreate(Led_GateKeeper2, (const char* const) "led_gate", configMINIMAL_STACK_SIZE, 0, 2, 0);
 80005d8:	2300      	movs	r3, #0
 80005da:	9301      	str	r3, [sp, #4]
 80005dc:	2302      	movs	r3, #2
 80005de:	9300      	str	r3, [sp, #0]
 80005e0:	2300      	movs	r3, #0
 80005e2:	2280      	movs	r2, #128	; 0x80
 80005e4:	490e      	ldr	r1, [pc, #56]	; (8000620 <main+0xb4>)
 80005e6:	480f      	ldr	r0, [pc, #60]	; (8000624 <main+0xb8>)
 80005e8:	f008 fc5b 	bl	8008ea2 <xTaskCreate>
 80005ec:	4603      	mov	r3, r0
 80005ee:	4a0e      	ldr	r2, [pc, #56]	; (8000628 <main+0xbc>)
 80005f0:	6013      	str	r3, [r2, #0]
		  x2Returned = xTaskCreate(Led_GateKeeper3, (const char* const) "led_gate", configMINIMAL_STACK_SIZE, 0, 2, 0);
 80005f2:	2300      	movs	r3, #0
 80005f4:	9301      	str	r3, [sp, #4]
 80005f6:	2302      	movs	r3, #2
 80005f8:	9300      	str	r3, [sp, #0]
 80005fa:	2300      	movs	r3, #0
 80005fc:	2280      	movs	r2, #128	; 0x80
 80005fe:	4908      	ldr	r1, [pc, #32]	; (8000620 <main+0xb4>)
 8000600:	480a      	ldr	r0, [pc, #40]	; (800062c <main+0xc0>)
 8000602:	f008 fc4e 	bl	8008ea2 <xTaskCreate>
 8000606:	4603      	mov	r3, r0
 8000608:	4a09      	ldr	r2, [pc, #36]	; (8000630 <main+0xc4>)
 800060a:	6013      	str	r3, [r2, #0]
	  HAL_GPIO_WritePin(GPIOD, LD4_Pin, GPIO_PIN_SET);
 800060c:	e7d0      	b.n	80005b0 <main+0x44>
 800060e:	bf00      	nop
 8000610:	0800ac60 	.word	0x0800ac60
 8000614:	20004068 	.word	0x20004068
 8000618:	40020c00 	.word	0x40020c00
 800061c:	40020800 	.word	0x40020800
 8000620:	0800ac54 	.word	0x0800ac54
 8000624:	080004fd 	.word	0x080004fd
 8000628:	200040c0 	.word	0x200040c0
 800062c:	08000535 	.word	0x08000535
 8000630:	200040c4 	.word	0x200040c4

08000634 <SystemClock_Config>:
/**
  * @brief System Clock Configuration
  * @retval None
  */
void SystemClock_Config(void)
{
 8000634:	b580      	push	{r7, lr}
 8000636:	b098      	sub	sp, #96	; 0x60
 8000638:	af00      	add	r7, sp, #0
  RCC_OscInitTypeDef RCC_OscInitStruct = {0};
 800063a:	f107 0330 	add.w	r3, r7, #48	; 0x30
 800063e:	2230      	movs	r2, #48	; 0x30
 8000640:	2100      	movs	r1, #0
 8000642:	4618      	mov	r0, r3
 8000644:	f00a fa24 	bl	800aa90 <memset>
  RCC_ClkInitTypeDef RCC_ClkInitStruct = {0};
 8000648:	f107 031c 	add.w	r3, r7, #28
 800064c:	2200      	movs	r2, #0
 800064e:	601a      	str	r2, [r3, #0]
 8000650:	605a      	str	r2, [r3, #4]
 8000652:	609a      	str	r2, [r3, #8]
 8000654:	60da      	str	r2, [r3, #12]
 8000656:	611a      	str	r2, [r3, #16]
  RCC_PeriphCLKInitTypeDef PeriphClkInitStruct = {0};
 8000658:	f107 030c 	add.w	r3, r7, #12
 800065c:	2200      	movs	r2, #0
 800065e:	601a      	str	r2, [r3, #0]
 8000660:	605a      	str	r2, [r3, #4]
 8000662:	609a      	str	r2, [r3, #8]
 8000664:	60da      	str	r2, [r3, #12]

  /** Configure the main internal regulator output voltage
  */
  __HAL_RCC_PWR_CLK_ENABLE();
 8000666:	2300      	movs	r3, #0
 8000668:	60bb      	str	r3, [r7, #8]
 800066a:	4b31      	ldr	r3, [pc, #196]	; (8000730 <SystemClock_Config+0xfc>)
 800066c:	6c1b      	ldr	r3, [r3, #64]	; 0x40
 800066e:	4a30      	ldr	r2, [pc, #192]	; (8000730 <SystemClock_Config+0xfc>)
 8000670:	f043 5380 	orr.w	r3, r3, #268435456	; 0x10000000
 8000674:	6413      	str	r3, [r2, #64]	; 0x40
 8000676:	4b2e      	ldr	r3, [pc, #184]	; (8000730 <SystemClock_Config+0xfc>)
 8000678:	6c1b      	ldr	r3, [r3, #64]	; 0x40
 800067a:	f003 5380 	and.w	r3, r3, #268435456	; 0x10000000
 800067e:	60bb      	str	r3, [r7, #8]
 8000680:	68bb      	ldr	r3, [r7, #8]
  __HAL_PWR_VOLTAGESCALING_CONFIG(PWR_REGULATOR_VOLTAGE_SCALE1);
 8000682:	2300      	movs	r3, #0
 8000684:	607b      	str	r3, [r7, #4]
 8000686:	4b2b      	ldr	r3, [pc, #172]	; (8000734 <SystemClock_Config+0x100>)
 8000688:	681b      	ldr	r3, [r3, #0]
 800068a:	4a2a      	ldr	r2, [pc, #168]	; (8000734 <SystemClock_Config+0x100>)
 800068c:	f443 4380 	orr.w	r3, r3, #16384	; 0x4000
 8000690:	6013      	str	r3, [r2, #0]
 8000692:	4b28      	ldr	r3, [pc, #160]	; (8000734 <SystemClock_Config+0x100>)
 8000694:	681b      	ldr	r3, [r3, #0]
 8000696:	f403 4380 	and.w	r3, r3, #16384	; 0x4000
 800069a:	607b      	str	r3, [r7, #4]
 800069c:	687b      	ldr	r3, [r7, #4]
  /** Initializes the RCC Oscillators according to the specified parameters
  * in the RCC_OscInitTypeDef structure.
  */
  RCC_OscInitStruct.OscillatorType = RCC_OSCILLATORTYPE_HSE;
 800069e:	2301      	movs	r3, #1
 80006a0:	633b      	str	r3, [r7, #48]	; 0x30
  RCC_OscInitStruct.HSEState = RCC_HSE_ON;
 80006a2:	f44f 3380 	mov.w	r3, #65536	; 0x10000
 80006a6:	637b      	str	r3, [r7, #52]	; 0x34
  RCC_OscInitStruct.PLL.PLLState = RCC_PLL_ON;
 80006a8:	2302      	movs	r3, #2
 80006aa:	64bb      	str	r3, [r7, #72]	; 0x48
  RCC_OscInitStruct.PLL.PLLSource = RCC_PLLSOURCE_HSE;
 80006ac:	f44f 0380 	mov.w	r3, #4194304	; 0x400000
 80006b0:	64fb      	str	r3, [r7, #76]	; 0x4c
  RCC_OscInitStruct.PLL.PLLM = 8;
 80006b2:	2308      	movs	r3, #8
 80006b4:	653b      	str	r3, [r7, #80]	; 0x50
  RCC_OscInitStruct.PLL.PLLN = 336;
 80006b6:	f44f 73a8 	mov.w	r3, #336	; 0x150
 80006ba:	657b      	str	r3, [r7, #84]	; 0x54
  RCC_OscInitStruct.PLL.PLLP = RCC_PLLP_DIV2;
 80006bc:	2302      	movs	r3, #2
 80006be:	65bb      	str	r3, [r7, #88]	; 0x58
  RCC_OscInitStruct.PLL.PLLQ = 7;
 80006c0:	2307      	movs	r3, #7
 80006c2:	65fb      	str	r3, [r7, #92]	; 0x5c
  if (HAL_RCC_OscConfig(&RCC_OscInitStruct) != HAL_OK)
 80006c4:	f107 0330 	add.w	r3, r7, #48	; 0x30
 80006c8:	4618      	mov	r0, r3
 80006ca:	f003 fa61 	bl	8003b90 <HAL_RCC_OscConfig>
 80006ce:	4603      	mov	r3, r0
 80006d0:	2b00      	cmp	r3, #0
 80006d2:	d001      	beq.n	80006d8 <SystemClock_Config+0xa4>
  {
    Error_Handler();
 80006d4:	f000 f9de 	bl	8000a94 <Error_Handler>
  }
  /** Initializes the CPU, AHB and APB buses clocks
  */
  RCC_ClkInitStruct.ClockType = RCC_CLOCKTYPE_HCLK|RCC_CLOCKTYPE_SYSCLK
 80006d8:	230f      	movs	r3, #15
 80006da:	61fb      	str	r3, [r7, #28]
                              |RCC_CLOCKTYPE_PCLK1|RCC_CLOCKTYPE_PCLK2;
  RCC_ClkInitStruct.SYSCLKSource = RCC_SYSCLKSOURCE_PLLCLK;
 80006dc:	2302      	movs	r3, #2
 80006de:	623b      	str	r3, [r7, #32]
  RCC_ClkInitStruct.AHBCLKDivider = RCC_SYSCLK_DIV1;
 80006e0:	2300      	movs	r3, #0
 80006e2:	627b      	str	r3, [r7, #36]	; 0x24
  RCC_ClkInitStruct.APB1CLKDivider = RCC_HCLK_DIV4;
 80006e4:	f44f 53a0 	mov.w	r3, #5120	; 0x1400
 80006e8:	62bb      	str	r3, [r7, #40]	; 0x28
  RCC_ClkInitStruct.APB2CLKDivider = RCC_HCLK_DIV2;
 80006ea:	f44f 5380 	mov.w	r3, #4096	; 0x1000
 80006ee:	62fb      	str	r3, [r7, #44]	; 0x2c

  if (HAL_RCC_ClockConfig(&RCC_ClkInitStruct, FLASH_LATENCY_5) != HAL_OK)
 80006f0:	f107 031c 	add.w	r3, r7, #28
 80006f4:	2105      	movs	r1, #5
 80006f6:	4618      	mov	r0, r3
 80006f8:	f003 fcc2 	bl	8004080 <HAL_RCC_ClockConfig>
 80006fc:	4603      	mov	r3, r0
 80006fe:	2b00      	cmp	r3, #0
 8000700:	d001      	beq.n	8000706 <SystemClock_Config+0xd2>
  {
    Error_Handler();
 8000702:	f000 f9c7 	bl	8000a94 <Error_Handler>
  }
  PeriphClkInitStruct.PeriphClockSelection = RCC_PERIPHCLK_I2S;
 8000706:	2301      	movs	r3, #1
 8000708:	60fb      	str	r3, [r7, #12]
  PeriphClkInitStruct.PLLI2S.PLLI2SN = 192;
 800070a:	23c0      	movs	r3, #192	; 0xc0
 800070c:	613b      	str	r3, [r7, #16]
  PeriphClkInitStruct.PLLI2S.PLLI2SR = 2;
 800070e:	2302      	movs	r3, #2
 8000710:	617b      	str	r3, [r7, #20]
  if (HAL_RCCEx_PeriphCLKConfig(&PeriphClkInitStruct) != HAL_OK)
 8000712:	f107 030c 	add.w	r3, r7, #12
 8000716:	4618      	mov	r0, r3
 8000718:	f003 fecc 	bl	80044b4 <HAL_RCCEx_PeriphCLKConfig>
 800071c:	4603      	mov	r3, r0
 800071e:	2b00      	cmp	r3, #0
 8000720:	d001      	beq.n	8000726 <SystemClock_Config+0xf2>
  {
    Error_Handler();
 8000722:	f000 f9b7 	bl	8000a94 <Error_Handler>
  }
}
 8000726:	bf00      	nop
 8000728:	3760      	adds	r7, #96	; 0x60
 800072a:	46bd      	mov	sp, r7
 800072c:	bd80      	pop	{r7, pc}
 800072e:	bf00      	nop
 8000730:	40023800 	.word	0x40023800
 8000734:	40007000 	.word	0x40007000

08000738 <MX_I2C1_Init>:
  * @brief I2C1 Initialization Function
  * @param None
  * @retval None
  */
static void MX_I2C1_Init(void)
{
 8000738:	b580      	push	{r7, lr}
 800073a:	af00      	add	r7, sp, #0
  /* USER CODE END I2C1_Init 0 */

  /* USER CODE BEGIN I2C1_Init 1 */

  /* USER CODE END I2C1_Init 1 */
  hi2c1.Instance = I2C1;
 800073c:	4b12      	ldr	r3, [pc, #72]	; (8000788 <MX_I2C1_Init+0x50>)
 800073e:	4a13      	ldr	r2, [pc, #76]	; (800078c <MX_I2C1_Init+0x54>)
 8000740:	601a      	str	r2, [r3, #0]
  hi2c1.Init.ClockSpeed = 100000;
 8000742:	4b11      	ldr	r3, [pc, #68]	; (8000788 <MX_I2C1_Init+0x50>)
 8000744:	4a12      	ldr	r2, [pc, #72]	; (8000790 <MX_I2C1_Init+0x58>)
 8000746:	605a      	str	r2, [r3, #4]
  hi2c1.Init.DutyCycle = I2C_DUTYCYCLE_2;
 8000748:	4b0f      	ldr	r3, [pc, #60]	; (8000788 <MX_I2C1_Init+0x50>)
 800074a:	2200      	movs	r2, #0
 800074c:	609a      	str	r2, [r3, #8]
  hi2c1.Init.OwnAddress1 = 0;
 800074e:	4b0e      	ldr	r3, [pc, #56]	; (8000788 <MX_I2C1_Init+0x50>)
 8000750:	2200      	movs	r2, #0
 8000752:	60da      	str	r2, [r3, #12]
  hi2c1.Init.AddressingMode = I2C_ADDRESSINGMODE_7BIT;
 8000754:	4b0c      	ldr	r3, [pc, #48]	; (8000788 <MX_I2C1_Init+0x50>)
 8000756:	f44f 4280 	mov.w	r2, #16384	; 0x4000
 800075a:	611a      	str	r2, [r3, #16]
  hi2c1.Init.DualAddressMode = I2C_DUALADDRESS_DISABLE;
 800075c:	4b0a      	ldr	r3, [pc, #40]	; (8000788 <MX_I2C1_Init+0x50>)
 800075e:	2200      	movs	r2, #0
 8000760:	615a      	str	r2, [r3, #20]
  hi2c1.Init.OwnAddress2 = 0;
 8000762:	4b09      	ldr	r3, [pc, #36]	; (8000788 <MX_I2C1_Init+0x50>)
 8000764:	2200      	movs	r2, #0
 8000766:	619a      	str	r2, [r3, #24]
  hi2c1.Init.GeneralCallMode = I2C_GENERALCALL_DISABLE;
 8000768:	4b07      	ldr	r3, [pc, #28]	; (8000788 <MX_I2C1_Init+0x50>)
 800076a:	2200      	movs	r2, #0
 800076c:	61da      	str	r2, [r3, #28]
  hi2c1.Init.NoStretchMode = I2C_NOSTRETCH_DISABLE;
 800076e:	4b06      	ldr	r3, [pc, #24]	; (8000788 <MX_I2C1_Init+0x50>)
 8000770:	2200      	movs	r2, #0
 8000772:	621a      	str	r2, [r3, #32]
  if (HAL_I2C_Init(&hi2c1) != HAL_OK)
 8000774:	4804      	ldr	r0, [pc, #16]	; (8000788 <MX_I2C1_Init+0x50>)
 8000776:	f002 fc27 	bl	8002fc8 <HAL_I2C_Init>
 800077a:	4603      	mov	r3, r0
 800077c:	2b00      	cmp	r3, #0
 800077e:	d001      	beq.n	8000784 <MX_I2C1_Init+0x4c>
  {
    Error_Handler();
 8000780:	f000 f988 	bl	8000a94 <Error_Handler>
  }
  /* USER CODE BEGIN I2C1_Init 2 */

  /* USER CODE END I2C1_Init 2 */

}
 8000784:	bf00      	nop
 8000786:	bd80      	pop	{r7, pc}
 8000788:	2000406c 	.word	0x2000406c
 800078c:	40005400 	.word	0x40005400
 8000790:	000186a0 	.word	0x000186a0

08000794 <MX_I2S3_Init>:
  * @brief I2S3 Initialization Function
  * @param None
  * @retval None
  */
static void MX_I2S3_Init(void)
{
 8000794:	b580      	push	{r7, lr}
 8000796:	af00      	add	r7, sp, #0
  /* USER CODE END I2S3_Init 0 */

  /* USER CODE BEGIN I2S3_Init 1 */

  /* USER CODE END I2S3_Init 1 */
  hi2s3.Instance = SPI3;
 8000798:	4b13      	ldr	r3, [pc, #76]	; (80007e8 <MX_I2S3_Init+0x54>)
 800079a:	4a14      	ldr	r2, [pc, #80]	; (80007ec <MX_I2S3_Init+0x58>)
 800079c:	601a      	str	r2, [r3, #0]
  hi2s3.Init.Mode = I2S_MODE_MASTER_TX;
 800079e:	4b12      	ldr	r3, [pc, #72]	; (80007e8 <MX_I2S3_Init+0x54>)
 80007a0:	f44f 7200 	mov.w	r2, #512	; 0x200
 80007a4:	605a      	str	r2, [r3, #4]
  hi2s3.Init.Standard = I2S_STANDARD_PHILIPS;
 80007a6:	4b10      	ldr	r3, [pc, #64]	; (80007e8 <MX_I2S3_Init+0x54>)
 80007a8:	2200      	movs	r2, #0
 80007aa:	609a      	str	r2, [r3, #8]
  hi2s3.Init.DataFormat = I2S_DATAFORMAT_16B;
 80007ac:	4b0e      	ldr	r3, [pc, #56]	; (80007e8 <MX_I2S3_Init+0x54>)
 80007ae:	2200      	movs	r2, #0
 80007b0:	60da      	str	r2, [r3, #12]
  hi2s3.Init.MCLKOutput = I2S_MCLKOUTPUT_ENABLE;
 80007b2:	4b0d      	ldr	r3, [pc, #52]	; (80007e8 <MX_I2S3_Init+0x54>)
 80007b4:	f44f 7200 	mov.w	r2, #512	; 0x200
 80007b8:	611a      	str	r2, [r3, #16]
  hi2s3.Init.AudioFreq = I2S_AUDIOFREQ_96K;
 80007ba:	4b0b      	ldr	r3, [pc, #44]	; (80007e8 <MX_I2S3_Init+0x54>)
 80007bc:	4a0c      	ldr	r2, [pc, #48]	; (80007f0 <MX_I2S3_Init+0x5c>)
 80007be:	615a      	str	r2, [r3, #20]
  hi2s3.Init.CPOL = I2S_CPOL_LOW;
 80007c0:	4b09      	ldr	r3, [pc, #36]	; (80007e8 <MX_I2S3_Init+0x54>)
 80007c2:	2200      	movs	r2, #0
 80007c4:	619a      	str	r2, [r3, #24]
  hi2s3.Init.ClockSource = I2S_CLOCK_PLL;
 80007c6:	4b08      	ldr	r3, [pc, #32]	; (80007e8 <MX_I2S3_Init+0x54>)
 80007c8:	2200      	movs	r2, #0
 80007ca:	61da      	str	r2, [r3, #28]
  hi2s3.Init.FullDuplexMode = I2S_FULLDUPLEXMODE_DISABLE;
 80007cc:	4b06      	ldr	r3, [pc, #24]	; (80007e8 <MX_I2S3_Init+0x54>)
 80007ce:	2200      	movs	r2, #0
 80007d0:	621a      	str	r2, [r3, #32]
  if (HAL_I2S_Init(&hi2s3) != HAL_OK)
 80007d2:	4805      	ldr	r0, [pc, #20]	; (80007e8 <MX_I2S3_Init+0x54>)
 80007d4:	f002 fd3c 	bl	8003250 <HAL_I2S_Init>
 80007d8:	4603      	mov	r3, r0
 80007da:	2b00      	cmp	r3, #0
 80007dc:	d001      	beq.n	80007e2 <MX_I2S3_Init+0x4e>
  {
    Error_Handler();
 80007de:	f000 f959 	bl	8000a94 <Error_Handler>
  }
  /* USER CODE BEGIN I2S3_Init 2 */

  /* USER CODE END I2S3_Init 2 */

}
 80007e2:	bf00      	nop
 80007e4:	bd80      	pop	{r7, pc}
 80007e6:	bf00      	nop
 80007e8:	20004120 	.word	0x20004120
 80007ec:	40003c00 	.word	0x40003c00
 80007f0:	00017700 	.word	0x00017700

080007f4 <MX_SPI1_Init>:
  * @brief SPI1 Initialization Function
  * @param None
  * @retval None
  */
static void MX_SPI1_Init(void)
{
 80007f4:	b580      	push	{r7, lr}
 80007f6:	af00      	add	r7, sp, #0

  /* USER CODE BEGIN SPI1_Init 1 */

  /* USER CODE END SPI1_Init 1 */
  /* SPI1 parameter configuration*/
  hspi1.Instance = SPI1;
 80007f8:	4b17      	ldr	r3, [pc, #92]	; (8000858 <MX_SPI1_Init+0x64>)
 80007fa:	4a18      	ldr	r2, [pc, #96]	; (800085c <MX_SPI1_Init+0x68>)
 80007fc:	601a      	str	r2, [r3, #0]
  hspi1.Init.Mode = SPI_MODE_MASTER;
 80007fe:	4b16      	ldr	r3, [pc, #88]	; (8000858 <MX_SPI1_Init+0x64>)
 8000800:	f44f 7282 	mov.w	r2, #260	; 0x104
 8000804:	605a      	str	r2, [r3, #4]
  hspi1.Init.Direction = SPI_DIRECTION_2LINES;
 8000806:	4b14      	ldr	r3, [pc, #80]	; (8000858 <MX_SPI1_Init+0x64>)
 8000808:	2200      	movs	r2, #0
 800080a:	609a      	str	r2, [r3, #8]
  hspi1.Init.DataSize = SPI_DATASIZE_8BIT;
 800080c:	4b12      	ldr	r3, [pc, #72]	; (8000858 <MX_SPI1_Init+0x64>)
 800080e:	2200      	movs	r2, #0
 8000810:	60da      	str	r2, [r3, #12]
  hspi1.Init.CLKPolarity = SPI_POLARITY_LOW;
 8000812:	4b11      	ldr	r3, [pc, #68]	; (8000858 <MX_SPI1_Init+0x64>)
 8000814:	2200      	movs	r2, #0
 8000816:	611a      	str	r2, [r3, #16]
  hspi1.Init.CLKPhase = SPI_PHASE_1EDGE;
 8000818:	4b0f      	ldr	r3, [pc, #60]	; (8000858 <MX_SPI1_Init+0x64>)
 800081a:	2200      	movs	r2, #0
 800081c:	615a      	str	r2, [r3, #20]
  hspi1.Init.NSS = SPI_NSS_SOFT;
 800081e:	4b0e      	ldr	r3, [pc, #56]	; (8000858 <MX_SPI1_Init+0x64>)
 8000820:	f44f 7200 	mov.w	r2, #512	; 0x200
 8000824:	619a      	str	r2, [r3, #24]
  hspi1.Init.BaudRatePrescaler = SPI_BAUDRATEPRESCALER_2;
 8000826:	4b0c      	ldr	r3, [pc, #48]	; (8000858 <MX_SPI1_Init+0x64>)
 8000828:	2200      	movs	r2, #0
 800082a:	61da      	str	r2, [r3, #28]
  hspi1.Init.FirstBit = SPI_FIRSTBIT_MSB;
 800082c:	4b0a      	ldr	r3, [pc, #40]	; (8000858 <MX_SPI1_Init+0x64>)
 800082e:	2200      	movs	r2, #0
 8000830:	621a      	str	r2, [r3, #32]
  hspi1.Init.TIMode = SPI_TIMODE_DISABLE;
 8000832:	4b09      	ldr	r3, [pc, #36]	; (8000858 <MX_SPI1_Init+0x64>)
 8000834:	2200      	movs	r2, #0
 8000836:	625a      	str	r2, [r3, #36]	; 0x24
  hspi1.Init.CRCCalculation = SPI_CRCCALCULATION_DISABLE;
 8000838:	4b07      	ldr	r3, [pc, #28]	; (8000858 <MX_SPI1_Init+0x64>)
 800083a:	2200      	movs	r2, #0
 800083c:	629a      	str	r2, [r3, #40]	; 0x28
  hspi1.Init.CRCPolynomial = 10;
 800083e:	4b06      	ldr	r3, [pc, #24]	; (8000858 <MX_SPI1_Init+0x64>)
 8000840:	220a      	movs	r2, #10
 8000842:	62da      	str	r2, [r3, #44]	; 0x2c
  if (HAL_SPI_Init(&hspi1) != HAL_OK)
 8000844:	4804      	ldr	r0, [pc, #16]	; (8000858 <MX_SPI1_Init+0x64>)
 8000846:	f003 ff75 	bl	8004734 <HAL_SPI_Init>
 800084a:	4603      	mov	r3, r0
 800084c:	2b00      	cmp	r3, #0
 800084e:	d001      	beq.n	8000854 <MX_SPI1_Init+0x60>
  {
    Error_Handler();
 8000850:	f000 f920 	bl	8000a94 <Error_Handler>
  }
  /* USER CODE BEGIN SPI1_Init 2 */

  /* USER CODE END SPI1_Init 2 */

}
 8000854:	bf00      	nop
 8000856:	bd80      	pop	{r7, pc}
 8000858:	200040c8 	.word	0x200040c8
 800085c:	40013000 	.word	0x40013000

08000860 <MX_GPIO_Init>:
  * @brief GPIO Initialization Function
  * @param None
  * @retval None
  */
static void MX_GPIO_Init(void)
{
 8000860:	b580      	push	{r7, lr}
 8000862:	b08c      	sub	sp, #48	; 0x30
 8000864:	af00      	add	r7, sp, #0
  GPIO_InitTypeDef GPIO_InitStruct = {0};
 8000866:	f107 031c 	add.w	r3, r7, #28
 800086a:	2200      	movs	r2, #0
 800086c:	601a      	str	r2, [r3, #0]
 800086e:	605a      	str	r2, [r3, #4]
 8000870:	609a      	str	r2, [r3, #8]
 8000872:	60da      	str	r2, [r3, #12]
 8000874:	611a      	str	r2, [r3, #16]

  /* GPIO Ports Clock Enable */
  __HAL_RCC_GPIOE_CLK_ENABLE();
 8000876:	2300      	movs	r3, #0
 8000878:	61bb      	str	r3, [r7, #24]
 800087a:	4b71      	ldr	r3, [pc, #452]	; (8000a40 <MX_GPIO_Init+0x1e0>)
 800087c:	6b1b      	ldr	r3, [r3, #48]	; 0x30
 800087e:	4a70      	ldr	r2, [pc, #448]	; (8000a40 <MX_GPIO_Init+0x1e0>)
 8000880:	f043 0310 	orr.w	r3, r3, #16
 8000884:	6313      	str	r3, [r2, #48]	; 0x30
 8000886:	4b6e      	ldr	r3, [pc, #440]	; (8000a40 <MX_GPIO_Init+0x1e0>)
 8000888:	6b1b      	ldr	r3, [r3, #48]	; 0x30
 800088a:	f003 0310 	and.w	r3, r3, #16
 800088e:	61bb      	str	r3, [r7, #24]
 8000890:	69bb      	ldr	r3, [r7, #24]
  __HAL_RCC_GPIOC_CLK_ENABLE();
 8000892:	2300      	movs	r3, #0
 8000894:	617b      	str	r3, [r7, #20]
 8000896:	4b6a      	ldr	r3, [pc, #424]	; (8000a40 <MX_GPIO_Init+0x1e0>)
 8000898:	6b1b      	ldr	r3, [r3, #48]	; 0x30
 800089a:	4a69      	ldr	r2, [pc, #420]	; (8000a40 <MX_GPIO_Init+0x1e0>)
 800089c:	f043 0304 	orr.w	r3, r3, #4
 80008a0:	6313      	str	r3, [r2, #48]	; 0x30
 80008a2:	4b67      	ldr	r3, [pc, #412]	; (8000a40 <MX_GPIO_Init+0x1e0>)
 80008a4:	6b1b      	ldr	r3, [r3, #48]	; 0x30
 80008a6:	f003 0304 	and.w	r3, r3, #4
 80008aa:	617b      	str	r3, [r7, #20]
 80008ac:	697b      	ldr	r3, [r7, #20]
  __HAL_RCC_GPIOH_CLK_ENABLE();
 80008ae:	2300      	movs	r3, #0
 80008b0:	613b      	str	r3, [r7, #16]
 80008b2:	4b63      	ldr	r3, [pc, #396]	; (8000a40 <MX_GPIO_Init+0x1e0>)
 80008b4:	6b1b      	ldr	r3, [r3, #48]	; 0x30
 80008b6:	4a62      	ldr	r2, [pc, #392]	; (8000a40 <MX_GPIO_Init+0x1e0>)
 80008b8:	f043 0380 	orr.w	r3, r3, #128	; 0x80
 80008bc:	6313      	str	r3, [r2, #48]	; 0x30
 80008be:	4b60      	ldr	r3, [pc, #384]	; (8000a40 <MX_GPIO_Init+0x1e0>)
 80008c0:	6b1b      	ldr	r3, [r3, #48]	; 0x30
 80008c2:	f003 0380 	and.w	r3, r3, #128	; 0x80
 80008c6:	613b      	str	r3, [r7, #16]
 80008c8:	693b      	ldr	r3, [r7, #16]
  __HAL_RCC_GPIOA_CLK_ENABLE();
 80008ca:	2300      	movs	r3, #0
 80008cc:	60fb      	str	r3, [r7, #12]
 80008ce:	4b5c      	ldr	r3, [pc, #368]	; (8000a40 <MX_GPIO_Init+0x1e0>)
 80008d0:	6b1b      	ldr	r3, [r3, #48]	; 0x30
 80008d2:	4a5b      	ldr	r2, [pc, #364]	; (8000a40 <MX_GPIO_Init+0x1e0>)
 80008d4:	f043 0301 	orr.w	r3, r3, #1
 80008d8:	6313      	str	r3, [r2, #48]	; 0x30
 80008da:	4b59      	ldr	r3, [pc, #356]	; (8000a40 <MX_GPIO_Init+0x1e0>)
 80008dc:	6b1b      	ldr	r3, [r3, #48]	; 0x30
 80008de:	f003 0301 	and.w	r3, r3, #1
 80008e2:	60fb      	str	r3, [r7, #12]
 80008e4:	68fb      	ldr	r3, [r7, #12]
  __HAL_RCC_GPIOB_CLK_ENABLE();
 80008e6:	2300      	movs	r3, #0
 80008e8:	60bb      	str	r3, [r7, #8]
 80008ea:	4b55      	ldr	r3, [pc, #340]	; (8000a40 <MX_GPIO_Init+0x1e0>)
 80008ec:	6b1b      	ldr	r3, [r3, #48]	; 0x30
 80008ee:	4a54      	ldr	r2, [pc, #336]	; (8000a40 <MX_GPIO_Init+0x1e0>)
 80008f0:	f043 0302 	orr.w	r3, r3, #2
 80008f4:	6313      	str	r3, [r2, #48]	; 0x30
 80008f6:	4b52      	ldr	r3, [pc, #328]	; (8000a40 <MX_GPIO_Init+0x1e0>)
 80008f8:	6b1b      	ldr	r3, [r3, #48]	; 0x30
 80008fa:	f003 0302 	and.w	r3, r3, #2
 80008fe:	60bb      	str	r3, [r7, #8]
 8000900:	68bb      	ldr	r3, [r7, #8]
  __HAL_RCC_GPIOD_CLK_ENABLE();
 8000902:	2300      	movs	r3, #0
 8000904:	607b      	str	r3, [r7, #4]
 8000906:	4b4e      	ldr	r3, [pc, #312]	; (8000a40 <MX_GPIO_Init+0x1e0>)
 8000908:	6b1b      	ldr	r3, [r3, #48]	; 0x30
 800090a:	4a4d      	ldr	r2, [pc, #308]	; (8000a40 <MX_GPIO_Init+0x1e0>)
 800090c:	f043 0308 	orr.w	r3, r3, #8
 8000910:	6313      	str	r3, [r2, #48]	; 0x30
 8000912:	4b4b      	ldr	r3, [pc, #300]	; (8000a40 <MX_GPIO_Init+0x1e0>)
 8000914:	6b1b      	ldr	r3, [r3, #48]	; 0x30
 8000916:	f003 0308 	and.w	r3, r3, #8
 800091a:	607b      	str	r3, [r7, #4]
 800091c:	687b      	ldr	r3, [r7, #4]

  /*Configure GPIO pin Output Level */
  HAL_GPIO_WritePin(CS_I2C_SPI_GPIO_Port, CS_I2C_SPI_Pin, GPIO_PIN_RESET);
 800091e:	2200      	movs	r2, #0
 8000920:	2108      	movs	r1, #8
 8000922:	4848      	ldr	r0, [pc, #288]	; (8000a44 <MX_GPIO_Init+0x1e4>)
 8000924:	f000 fdd2 	bl	80014cc <HAL_GPIO_WritePin>

  /*Configure GPIO pin Output Level */
  HAL_GPIO_WritePin(OTG_FS_PowerSwitchOn_GPIO_Port, OTG_FS_PowerSwitchOn_Pin, GPIO_PIN_SET);
 8000928:	2201      	movs	r2, #1
 800092a:	2101      	movs	r1, #1
 800092c:	4846      	ldr	r0, [pc, #280]	; (8000a48 <MX_GPIO_Init+0x1e8>)
 800092e:	f000 fdcd 	bl	80014cc <HAL_GPIO_WritePin>

  /*Configure GPIO pin Output Level */
  HAL_GPIO_WritePin(GPIOD, LD4_Pin|LD3_Pin|LD5_Pin|LD6_Pin
 8000932:	2200      	movs	r2, #0
 8000934:	f24f 0110 	movw	r1, #61456	; 0xf010
 8000938:	4844      	ldr	r0, [pc, #272]	; (8000a4c <MX_GPIO_Init+0x1ec>)
 800093a:	f000 fdc7 	bl	80014cc <HAL_GPIO_WritePin>
                          |Audio_RST_Pin, GPIO_PIN_RESET);

  /*Configure GPIO pin : CS_I2C_SPI_Pin */
  GPIO_InitStruct.Pin = CS_I2C_SPI_Pin;
 800093e:	2308      	movs	r3, #8
 8000940:	61fb      	str	r3, [r7, #28]
  GPIO_InitStruct.Mode = GPIO_MODE_OUTPUT_PP;
 8000942:	2301      	movs	r3, #1
 8000944:	623b      	str	r3, [r7, #32]
  GPIO_InitStruct.Pull = GPIO_NOPULL;
 8000946:	2300      	movs	r3, #0
 8000948:	627b      	str	r3, [r7, #36]	; 0x24
  GPIO_InitStruct.Speed = GPIO_SPEED_FREQ_LOW;
 800094a:	2300      	movs	r3, #0
 800094c:	62bb      	str	r3, [r7, #40]	; 0x28
  HAL_GPIO_Init(CS_I2C_SPI_GPIO_Port, &GPIO_InitStruct);
 800094e:	f107 031c 	add.w	r3, r7, #28
 8000952:	4619      	mov	r1, r3
 8000954:	483b      	ldr	r0, [pc, #236]	; (8000a44 <MX_GPIO_Init+0x1e4>)
 8000956:	f000 fc05 	bl	8001164 <HAL_GPIO_Init>

  /*Configure GPIO pin : OTG_FS_PowerSwitchOn_Pin */
  GPIO_InitStruct.Pin = OTG_FS_PowerSwitchOn_Pin;
 800095a:	2301      	movs	r3, #1
 800095c:	61fb      	str	r3, [r7, #28]
  GPIO_InitStruct.Mode = GPIO_MODE_OUTPUT_PP;
 800095e:	2301      	movs	r3, #1
 8000960:	623b      	str	r3, [r7, #32]
  GPIO_InitStruct.Pull = GPIO_NOPULL;
 8000962:	2300      	movs	r3, #0
 8000964:	627b      	str	r3, [r7, #36]	; 0x24
  GPIO_InitStruct.Speed = GPIO_SPEED_FREQ_LOW;
 8000966:	2300      	movs	r3, #0
 8000968:	62bb      	str	r3, [r7, #40]	; 0x28
  HAL_GPIO_Init(OTG_FS_PowerSwitchOn_GPIO_Port, &GPIO_InitStruct);
 800096a:	f107 031c 	add.w	r3, r7, #28
 800096e:	4619      	mov	r1, r3
 8000970:	4835      	ldr	r0, [pc, #212]	; (8000a48 <MX_GPIO_Init+0x1e8>)
 8000972:	f000 fbf7 	bl	8001164 <HAL_GPIO_Init>

  /*Configure GPIO pin : PDM_OUT_Pin */
  GPIO_InitStruct.Pin = PDM_OUT_Pin;
 8000976:	2308      	movs	r3, #8
 8000978:	61fb      	str	r3, [r7, #28]
  GPIO_InitStruct.Mode = GPIO_MODE_AF_PP;
 800097a:	2302      	movs	r3, #2
 800097c:	623b      	str	r3, [r7, #32]
  GPIO_InitStruct.Pull = GPIO_NOPULL;
 800097e:	2300      	movs	r3, #0
 8000980:	627b      	str	r3, [r7, #36]	; 0x24
  GPIO_InitStruct.Speed = GPIO_SPEED_FREQ_LOW;
 8000982:	2300      	movs	r3, #0
 8000984:	62bb      	str	r3, [r7, #40]	; 0x28
  GPIO_InitStruct.Alternate = GPIO_AF5_SPI2;
 8000986:	2305      	movs	r3, #5
 8000988:	62fb      	str	r3, [r7, #44]	; 0x2c
  HAL_GPIO_Init(PDM_OUT_GPIO_Port, &GPIO_InitStruct);
 800098a:	f107 031c 	add.w	r3, r7, #28
 800098e:	4619      	mov	r1, r3
 8000990:	482d      	ldr	r0, [pc, #180]	; (8000a48 <MX_GPIO_Init+0x1e8>)
 8000992:	f000 fbe7 	bl	8001164 <HAL_GPIO_Init>

  /*Configure GPIO pin : B1_Pin */
  GPIO_InitStruct.Pin = B1_Pin;
 8000996:	2301      	movs	r3, #1
 8000998:	61fb      	str	r3, [r7, #28]
  GPIO_InitStruct.Mode = GPIO_MODE_EVT_RISING;
 800099a:	4b2d      	ldr	r3, [pc, #180]	; (8000a50 <MX_GPIO_Init+0x1f0>)
 800099c:	623b      	str	r3, [r7, #32]
  GPIO_InitStruct.Pull = GPIO_NOPULL;
 800099e:	2300      	movs	r3, #0
 80009a0:	627b      	str	r3, [r7, #36]	; 0x24
  HAL_GPIO_Init(B1_GPIO_Port, &GPIO_InitStruct);
 80009a2:	f107 031c 	add.w	r3, r7, #28
 80009a6:	4619      	mov	r1, r3
 80009a8:	482a      	ldr	r0, [pc, #168]	; (8000a54 <MX_GPIO_Init+0x1f4>)
 80009aa:	f000 fbdb 	bl	8001164 <HAL_GPIO_Init>

  /*Configure GPIO pin : BOOT1_Pin */
  GPIO_InitStruct.Pin = BOOT1_Pin;
 80009ae:	2304      	movs	r3, #4
 80009b0:	61fb      	str	r3, [r7, #28]
  GPIO_InitStruct.Mode = GPIO_MODE_INPUT;
 80009b2:	2300      	movs	r3, #0
 80009b4:	623b      	str	r3, [r7, #32]
  GPIO_InitStruct.Pull = GPIO_NOPULL;
 80009b6:	2300      	movs	r3, #0
 80009b8:	627b      	str	r3, [r7, #36]	; 0x24
  HAL_GPIO_Init(BOOT1_GPIO_Port, &GPIO_InitStruct);
 80009ba:	f107 031c 	add.w	r3, r7, #28
 80009be:	4619      	mov	r1, r3
 80009c0:	4825      	ldr	r0, [pc, #148]	; (8000a58 <MX_GPIO_Init+0x1f8>)
 80009c2:	f000 fbcf 	bl	8001164 <HAL_GPIO_Init>

  /*Configure GPIO pin : CLK_IN_Pin */
  GPIO_InitStruct.Pin = CLK_IN_Pin;
 80009c6:	f44f 6380 	mov.w	r3, #1024	; 0x400
 80009ca:	61fb      	str	r3, [r7, #28]
  GPIO_InitStruct.Mode = GPIO_MODE_AF_PP;
 80009cc:	2302      	movs	r3, #2
 80009ce:	623b      	str	r3, [r7, #32]
  GPIO_InitStruct.Pull = GPIO_NOPULL;
 80009d0:	2300      	movs	r3, #0
 80009d2:	627b      	str	r3, [r7, #36]	; 0x24
  GPIO_InitStruct.Speed = GPIO_SPEED_FREQ_LOW;
 80009d4:	2300      	movs	r3, #0
 80009d6:	62bb      	str	r3, [r7, #40]	; 0x28
  GPIO_InitStruct.Alternate = GPIO_AF5_SPI2;
 80009d8:	2305      	movs	r3, #5
 80009da:	62fb      	str	r3, [r7, #44]	; 0x2c
  HAL_GPIO_Init(CLK_IN_GPIO_Port, &GPIO_InitStruct);
 80009dc:	f107 031c 	add.w	r3, r7, #28
 80009e0:	4619      	mov	r1, r3
 80009e2:	481d      	ldr	r0, [pc, #116]	; (8000a58 <MX_GPIO_Init+0x1f8>)
 80009e4:	f000 fbbe 	bl	8001164 <HAL_GPIO_Init>

  /*Configure GPIO pins : LD4_Pin LD3_Pin LD5_Pin LD6_Pin
                           Audio_RST_Pin */
  GPIO_InitStruct.Pin = LD4_Pin|LD3_Pin|LD5_Pin|LD6_Pin
 80009e8:	f24f 0310 	movw	r3, #61456	; 0xf010
 80009ec:	61fb      	str	r3, [r7, #28]
                          |Audio_RST_Pin;
  GPIO_InitStruct.Mode = GPIO_MODE_OUTPUT_PP;
 80009ee:	2301      	movs	r3, #1
 80009f0:	623b      	str	r3, [r7, #32]
  GPIO_InitStruct.Pull = GPIO_NOPULL;
 80009f2:	2300      	movs	r3, #0
 80009f4:	627b      	str	r3, [r7, #36]	; 0x24
  GPIO_InitStruct.Speed = GPIO_SPEED_FREQ_LOW;
 80009f6:	2300      	movs	r3, #0
 80009f8:	62bb      	str	r3, [r7, #40]	; 0x28
  HAL_GPIO_Init(GPIOD, &GPIO_InitStruct);
 80009fa:	f107 031c 	add.w	r3, r7, #28
 80009fe:	4619      	mov	r1, r3
 8000a00:	4812      	ldr	r0, [pc, #72]	; (8000a4c <MX_GPIO_Init+0x1ec>)
 8000a02:	f000 fbaf 	bl	8001164 <HAL_GPIO_Init>

  /*Configure GPIO pin : OTG_FS_OverCurrent_Pin */
  GPIO_InitStruct.Pin = OTG_FS_OverCurrent_Pin;
 8000a06:	2320      	movs	r3, #32
 8000a08:	61fb      	str	r3, [r7, #28]
  GPIO_InitStruct.Mode = GPIO_MODE_INPUT;
 8000a0a:	2300      	movs	r3, #0
 8000a0c:	623b      	str	r3, [r7, #32]
  GPIO_InitStruct.Pull = GPIO_NOPULL;
 8000a0e:	2300      	movs	r3, #0
 8000a10:	627b      	str	r3, [r7, #36]	; 0x24
  HAL_GPIO_Init(OTG_FS_OverCurrent_GPIO_Port, &GPIO_InitStruct);
 8000a12:	f107 031c 	add.w	r3, r7, #28
 8000a16:	4619      	mov	r1, r3
 8000a18:	480c      	ldr	r0, [pc, #48]	; (8000a4c <MX_GPIO_Init+0x1ec>)
 8000a1a:	f000 fba3 	bl	8001164 <HAL_GPIO_Init>

  /*Configure GPIO pin : MEMS_INT2_Pin */
  GPIO_InitStruct.Pin = MEMS_INT2_Pin;
 8000a1e:	2302      	movs	r3, #2
 8000a20:	61fb      	str	r3, [r7, #28]
  GPIO_InitStruct.Mode = GPIO_MODE_EVT_RISING;
 8000a22:	4b0b      	ldr	r3, [pc, #44]	; (8000a50 <MX_GPIO_Init+0x1f0>)
 8000a24:	623b      	str	r3, [r7, #32]
  GPIO_InitStruct.Pull = GPIO_NOPULL;
 8000a26:	2300      	movs	r3, #0
 8000a28:	627b      	str	r3, [r7, #36]	; 0x24
  HAL_GPIO_Init(MEMS_INT2_GPIO_Port, &GPIO_InitStruct);
 8000a2a:	f107 031c 	add.w	r3, r7, #28
 8000a2e:	4619      	mov	r1, r3
 8000a30:	4804      	ldr	r0, [pc, #16]	; (8000a44 <MX_GPIO_Init+0x1e4>)
 8000a32:	f000 fb97 	bl	8001164 <HAL_GPIO_Init>

}
 8000a36:	bf00      	nop
 8000a38:	3730      	adds	r7, #48	; 0x30
 8000a3a:	46bd      	mov	sp, r7
 8000a3c:	bd80      	pop	{r7, pc}
 8000a3e:	bf00      	nop
 8000a40:	40023800 	.word	0x40023800
 8000a44:	40021000 	.word	0x40021000
 8000a48:	40020800 	.word	0x40020800
 8000a4c:	40020c00 	.word	0x40020c00
 8000a50:	10120000 	.word	0x10120000
 8000a54:	40020000 	.word	0x40020000
 8000a58:	40020400 	.word	0x40020400

08000a5c <StartDefaultTask>:
  * @param  argument: Not used
  * @retval None
  */
/* USER CODE END Header_StartDefaultTask */
void StartDefaultTask(void const * argument)
{
 8000a5c:	b580      	push	{r7, lr}
 8000a5e:	b082      	sub	sp, #8
 8000a60:	af00      	add	r7, sp, #0
 8000a62:	6078      	str	r0, [r7, #4]
  /* init code for USB_HOST */
  MX_USB_HOST_Init();
 8000a64:	f009 fcca 	bl	800a3fc <MX_USB_HOST_Init>
  /* USER CODE BEGIN 5 */
  /* Infinite loop */
  for(;;)
  {
    osDelay(1);
 8000a68:	2001      	movs	r0, #1
 8000a6a:	f007 fad4 	bl	8008016 <osDelay>
 8000a6e:	e7fb      	b.n	8000a68 <StartDefaultTask+0xc>

08000a70 <HAL_TIM_PeriodElapsedCallback>:
  * a global variable "uwTick" used as application time base.
  * @param  htim : TIM handle
  * @retval None
  */
void HAL_TIM_PeriodElapsedCallback(TIM_HandleTypeDef *htim)
{
 8000a70:	b580      	push	{r7, lr}
 8000a72:	b082      	sub	sp, #8
 8000a74:	af00      	add	r7, sp, #0
 8000a76:	6078      	str	r0, [r7, #4]
  /* USER CODE BEGIN Callback 0 */

  /* USER CODE END Callback 0 */
  if (htim->Instance == TIM6) {
 8000a78:	687b      	ldr	r3, [r7, #4]
 8000a7a:	681b      	ldr	r3, [r3, #0]
 8000a7c:	4a04      	ldr	r2, [pc, #16]	; (8000a90 <HAL_TIM_PeriodElapsedCallback+0x20>)
 8000a7e:	4293      	cmp	r3, r2
 8000a80:	d101      	bne.n	8000a86 <HAL_TIM_PeriodElapsedCallback+0x16>
    HAL_IncTick();
 8000a82:	f000 fa49 	bl	8000f18 <HAL_IncTick>
  }
  /* USER CODE BEGIN Callback 1 */

  /* USER CODE END Callback 1 */
}
 8000a86:	bf00      	nop
 8000a88:	3708      	adds	r7, #8
 8000a8a:	46bd      	mov	sp, r7
 8000a8c:	bd80      	pop	{r7, pc}
 8000a8e:	bf00      	nop
 8000a90:	40001000 	.word	0x40001000

08000a94 <Error_Handler>:
/**
  * @brief  This function is executed in case of error occurrence.
  * @retval None
  */
void Error_Handler(void)
{
 8000a94:	b480      	push	{r7}
 8000a96:	af00      	add	r7, sp, #0
  \details Disables IRQ interrupts by setting the I-bit in the CPSR.
           Can only be executed in Privileged modes.
 */
__STATIC_FORCEINLINE void __disable_irq(void)
{
  __ASM volatile ("cpsid i" : : : "memory");
 8000a98:	b672      	cpsid	i
}
 8000a9a:	bf00      	nop
  /* USER CODE BEGIN Error_Handler_Debug */
  /* User can add his own implementation to report the HAL error return state */
  __disable_irq();
  while (1)
 8000a9c:	e7fe      	b.n	8000a9c <Error_Handler+0x8>
	...

08000aa0 <HAL_MspInit>:
/* USER CODE END 0 */
/**
  * Initializes the Global MSP.
  */
void HAL_MspInit(void)
{
 8000aa0:	b580      	push	{r7, lr}
 8000aa2:	b082      	sub	sp, #8
 8000aa4:	af00      	add	r7, sp, #0
  /* USER CODE BEGIN MspInit 0 */

  /* USER CODE END MspInit 0 */

  __HAL_RCC_SYSCFG_CLK_ENABLE();
 8000aa6:	2300      	movs	r3, #0
 8000aa8:	607b      	str	r3, [r7, #4]
 8000aaa:	4b12      	ldr	r3, [pc, #72]	; (8000af4 <HAL_MspInit+0x54>)
 8000aac:	6c5b      	ldr	r3, [r3, #68]	; 0x44
 8000aae:	4a11      	ldr	r2, [pc, #68]	; (8000af4 <HAL_MspInit+0x54>)
 8000ab0:	f443 4380 	orr.w	r3, r3, #16384	; 0x4000
 8000ab4:	6453      	str	r3, [r2, #68]	; 0x44
 8000ab6:	4b0f      	ldr	r3, [pc, #60]	; (8000af4 <HAL_MspInit+0x54>)
 8000ab8:	6c5b      	ldr	r3, [r3, #68]	; 0x44
 8000aba:	f403 4380 	and.w	r3, r3, #16384	; 0x4000
 8000abe:	607b      	str	r3, [r7, #4]
 8000ac0:	687b      	ldr	r3, [r7, #4]
  __HAL_RCC_PWR_CLK_ENABLE();
 8000ac2:	2300      	movs	r3, #0
 8000ac4:	603b      	str	r3, [r7, #0]
 8000ac6:	4b0b      	ldr	r3, [pc, #44]	; (8000af4 <HAL_MspInit+0x54>)
 8000ac8:	6c1b      	ldr	r3, [r3, #64]	; 0x40
 8000aca:	4a0a      	ldr	r2, [pc, #40]	; (8000af4 <HAL_MspInit+0x54>)
 8000acc:	f043 5380 	orr.w	r3, r3, #268435456	; 0x10000000
 8000ad0:	6413      	str	r3, [r2, #64]	; 0x40
 8000ad2:	4b08      	ldr	r3, [pc, #32]	; (8000af4 <HAL_MspInit+0x54>)
 8000ad4:	6c1b      	ldr	r3, [r3, #64]	; 0x40
 8000ad6:	f003 5380 	and.w	r3, r3, #268435456	; 0x10000000
 8000ada:	603b      	str	r3, [r7, #0]
 8000adc:	683b      	ldr	r3, [r7, #0]

  /* System interrupt init*/
  /* PendSV_IRQn interrupt configuration */
  HAL_NVIC_SetPriority(PendSV_IRQn, 15, 0);
 8000ade:	2200      	movs	r2, #0
 8000ae0:	210f      	movs	r1, #15
 8000ae2:	f06f 0001 	mvn.w	r0, #1
 8000ae6:	f000 fb13 	bl	8001110 <HAL_NVIC_SetPriority>

  /* USER CODE BEGIN MspInit 1 */

  /* USER CODE END MspInit 1 */
}
 8000aea:	bf00      	nop
 8000aec:	3708      	adds	r7, #8
 8000aee:	46bd      	mov	sp, r7
 8000af0:	bd80      	pop	{r7, pc}
 8000af2:	bf00      	nop
 8000af4:	40023800 	.word	0x40023800

08000af8 <HAL_I2C_MspInit>:
* This function configures the hardware resources used in this example
* @param hi2c: I2C handle pointer
* @retval None
*/
void HAL_I2C_MspInit(I2C_HandleTypeDef* hi2c)
{
 8000af8:	b580      	push	{r7, lr}
 8000afa:	b08a      	sub	sp, #40	; 0x28
 8000afc:	af00      	add	r7, sp, #0
 8000afe:	6078      	str	r0, [r7, #4]
  GPIO_InitTypeDef GPIO_InitStruct = {0};
 8000b00:	f107 0314 	add.w	r3, r7, #20
 8000b04:	2200      	movs	r2, #0
 8000b06:	601a      	str	r2, [r3, #0]
 8000b08:	605a      	str	r2, [r3, #4]
 8000b0a:	609a      	str	r2, [r3, #8]
 8000b0c:	60da      	str	r2, [r3, #12]
 8000b0e:	611a      	str	r2, [r3, #16]
  if(hi2c->Instance==I2C1)
 8000b10:	687b      	ldr	r3, [r7, #4]
 8000b12:	681b      	ldr	r3, [r3, #0]
 8000b14:	4a19      	ldr	r2, [pc, #100]	; (8000b7c <HAL_I2C_MspInit+0x84>)
 8000b16:	4293      	cmp	r3, r2
 8000b18:	d12c      	bne.n	8000b74 <HAL_I2C_MspInit+0x7c>
  {
  /* USER CODE BEGIN I2C1_MspInit 0 */

  /* USER CODE END I2C1_MspInit 0 */

    __HAL_RCC_GPIOB_CLK_ENABLE();
 8000b1a:	2300      	movs	r3, #0
 8000b1c:	613b      	str	r3, [r7, #16]
 8000b1e:	4b18      	ldr	r3, [pc, #96]	; (8000b80 <HAL_I2C_MspInit+0x88>)
 8000b20:	6b1b      	ldr	r3, [r3, #48]	; 0x30
 8000b22:	4a17      	ldr	r2, [pc, #92]	; (8000b80 <HAL_I2C_MspInit+0x88>)
 8000b24:	f043 0302 	orr.w	r3, r3, #2
 8000b28:	6313      	str	r3, [r2, #48]	; 0x30
 8000b2a:	4b15      	ldr	r3, [pc, #84]	; (8000b80 <HAL_I2C_MspInit+0x88>)
 8000b2c:	6b1b      	ldr	r3, [r3, #48]	; 0x30
 8000b2e:	f003 0302 	and.w	r3, r3, #2
 8000b32:	613b      	str	r3, [r7, #16]
 8000b34:	693b      	ldr	r3, [r7, #16]
    /**I2C1 GPIO Configuration
    PB6     ------> I2C1_SCL
    PB9     ------> I2C1_SDA
    */
    GPIO_InitStruct.Pin = Audio_SCL_Pin|Audio_SDA_Pin;
 8000b36:	f44f 7310 	mov.w	r3, #576	; 0x240
 8000b3a:	617b      	str	r3, [r7, #20]
    GPIO_InitStruct.Mode = GPIO_MODE_AF_OD;
 8000b3c:	2312      	movs	r3, #18
 8000b3e:	61bb      	str	r3, [r7, #24]
    GPIO_InitStruct.Pull = GPIO_PULLUP;
 8000b40:	2301      	movs	r3, #1
 8000b42:	61fb      	str	r3, [r7, #28]
    GPIO_InitStruct.Speed = GPIO_SPEED_FREQ_LOW;
 8000b44:	2300      	movs	r3, #0
 8000b46:	623b      	str	r3, [r7, #32]
    GPIO_InitStruct.Alternate = GPIO_AF4_I2C1;
 8000b48:	2304      	movs	r3, #4
 8000b4a:	627b      	str	r3, [r7, #36]	; 0x24
    HAL_GPIO_Init(GPIOB, &GPIO_InitStruct);
 8000b4c:	f107 0314 	add.w	r3, r7, #20
 8000b50:	4619      	mov	r1, r3
 8000b52:	480c      	ldr	r0, [pc, #48]	; (8000b84 <HAL_I2C_MspInit+0x8c>)
 8000b54:	f000 fb06 	bl	8001164 <HAL_GPIO_Init>

    /* Peripheral clock enable */
    __HAL_RCC_I2C1_CLK_ENABLE();
 8000b58:	2300      	movs	r3, #0
 8000b5a:	60fb      	str	r3, [r7, #12]
 8000b5c:	4b08      	ldr	r3, [pc, #32]	; (8000b80 <HAL_I2C_MspInit+0x88>)
 8000b5e:	6c1b      	ldr	r3, [r3, #64]	; 0x40
 8000b60:	4a07      	ldr	r2, [pc, #28]	; (8000b80 <HAL_I2C_MspInit+0x88>)
 8000b62:	f443 1300 	orr.w	r3, r3, #2097152	; 0x200000
 8000b66:	6413      	str	r3, [r2, #64]	; 0x40
 8000b68:	4b05      	ldr	r3, [pc, #20]	; (8000b80 <HAL_I2C_MspInit+0x88>)
 8000b6a:	6c1b      	ldr	r3, [r3, #64]	; 0x40
 8000b6c:	f403 1300 	and.w	r3, r3, #2097152	; 0x200000
 8000b70:	60fb      	str	r3, [r7, #12]
 8000b72:	68fb      	ldr	r3, [r7, #12]
  /* USER CODE BEGIN I2C1_MspInit 1 */

  /* USER CODE END I2C1_MspInit 1 */
  }

}
 8000b74:	bf00      	nop
 8000b76:	3728      	adds	r7, #40	; 0x28
 8000b78:	46bd      	mov	sp, r7
 8000b7a:	bd80      	pop	{r7, pc}
 8000b7c:	40005400 	.word	0x40005400
 8000b80:	40023800 	.word	0x40023800
 8000b84:	40020400 	.word	0x40020400

08000b88 <HAL_I2S_MspInit>:
* This function configures the hardware resources used in this example
* @param hi2s: I2S handle pointer
* @retval None
*/
void HAL_I2S_MspInit(I2S_HandleTypeDef* hi2s)
{
 8000b88:	b580      	push	{r7, lr}
 8000b8a:	b08a      	sub	sp, #40	; 0x28
 8000b8c:	af00      	add	r7, sp, #0
 8000b8e:	6078      	str	r0, [r7, #4]
  GPIO_InitTypeDef GPIO_InitStruct = {0};
 8000b90:	f107 0314 	add.w	r3, r7, #20
 8000b94:	2200      	movs	r2, #0
 8000b96:	601a      	str	r2, [r3, #0]
 8000b98:	605a      	str	r2, [r3, #4]
 8000b9a:	609a      	str	r2, [r3, #8]
 8000b9c:	60da      	str	r2, [r3, #12]
 8000b9e:	611a      	str	r2, [r3, #16]
  if(hi2s->Instance==SPI3)
 8000ba0:	687b      	ldr	r3, [r7, #4]
 8000ba2:	681b      	ldr	r3, [r3, #0]
 8000ba4:	4a28      	ldr	r2, [pc, #160]	; (8000c48 <HAL_I2S_MspInit+0xc0>)
 8000ba6:	4293      	cmp	r3, r2
 8000ba8:	d14a      	bne.n	8000c40 <HAL_I2S_MspInit+0xb8>
  {
  /* USER CODE BEGIN SPI3_MspInit 0 */

  /* USER CODE END SPI3_MspInit 0 */
    /* Peripheral clock enable */
    __HAL_RCC_SPI3_CLK_ENABLE();
 8000baa:	2300      	movs	r3, #0
 8000bac:	613b      	str	r3, [r7, #16]
 8000bae:	4b27      	ldr	r3, [pc, #156]	; (8000c4c <HAL_I2S_MspInit+0xc4>)
 8000bb0:	6c1b      	ldr	r3, [r3, #64]	; 0x40
 8000bb2:	4a26      	ldr	r2, [pc, #152]	; (8000c4c <HAL_I2S_MspInit+0xc4>)
 8000bb4:	f443 4300 	orr.w	r3, r3, #32768	; 0x8000
 8000bb8:	6413      	str	r3, [r2, #64]	; 0x40
 8000bba:	4b24      	ldr	r3, [pc, #144]	; (8000c4c <HAL_I2S_MspInit+0xc4>)
 8000bbc:	6c1b      	ldr	r3, [r3, #64]	; 0x40
 8000bbe:	f403 4300 	and.w	r3, r3, #32768	; 0x8000
 8000bc2:	613b      	str	r3, [r7, #16]
 8000bc4:	693b      	ldr	r3, [r7, #16]

    __HAL_RCC_GPIOA_CLK_ENABLE();
 8000bc6:	2300      	movs	r3, #0
 8000bc8:	60fb      	str	r3, [r7, #12]
 8000bca:	4b20      	ldr	r3, [pc, #128]	; (8000c4c <HAL_I2S_MspInit+0xc4>)
 8000bcc:	6b1b      	ldr	r3, [r3, #48]	; 0x30
 8000bce:	4a1f      	ldr	r2, [pc, #124]	; (8000c4c <HAL_I2S_MspInit+0xc4>)
 8000bd0:	f043 0301 	orr.w	r3, r3, #1
 8000bd4:	6313      	str	r3, [r2, #48]	; 0x30
 8000bd6:	4b1d      	ldr	r3, [pc, #116]	; (8000c4c <HAL_I2S_MspInit+0xc4>)
 8000bd8:	6b1b      	ldr	r3, [r3, #48]	; 0x30
 8000bda:	f003 0301 	and.w	r3, r3, #1
 8000bde:	60fb      	str	r3, [r7, #12]
 8000be0:	68fb      	ldr	r3, [r7, #12]
    __HAL_RCC_GPIOC_CLK_ENABLE();
 8000be2:	2300      	movs	r3, #0
 8000be4:	60bb      	str	r3, [r7, #8]
 8000be6:	4b19      	ldr	r3, [pc, #100]	; (8000c4c <HAL_I2S_MspInit+0xc4>)
 8000be8:	6b1b      	ldr	r3, [r3, #48]	; 0x30
 8000bea:	4a18      	ldr	r2, [pc, #96]	; (8000c4c <HAL_I2S_MspInit+0xc4>)
 8000bec:	f043 0304 	orr.w	r3, r3, #4
 8000bf0:	6313      	str	r3, [r2, #48]	; 0x30
 8000bf2:	4b16      	ldr	r3, [pc, #88]	; (8000c4c <HAL_I2S_MspInit+0xc4>)
 8000bf4:	6b1b      	ldr	r3, [r3, #48]	; 0x30
 8000bf6:	f003 0304 	and.w	r3, r3, #4
 8000bfa:	60bb      	str	r3, [r7, #8]
 8000bfc:	68bb      	ldr	r3, [r7, #8]
    PA4     ------> I2S3_WS
    PC7     ------> I2S3_MCK
    PC10     ------> I2S3_CK
    PC12     ------> I2S3_SD
    */
    GPIO_InitStruct.Pin = I2S3_WS_Pin;
 8000bfe:	2310      	movs	r3, #16
 8000c00:	617b      	str	r3, [r7, #20]
    GPIO_InitStruct.Mode = GPIO_MODE_AF_PP;
 8000c02:	2302      	movs	r3, #2
 8000c04:	61bb      	str	r3, [r7, #24]
    GPIO_InitStruct.Pull = GPIO_NOPULL;
 8000c06:	2300      	movs	r3, #0
 8000c08:	61fb      	str	r3, [r7, #28]
    GPIO_InitStruct.Speed = GPIO_SPEED_FREQ_LOW;
 8000c0a:	2300      	movs	r3, #0
 8000c0c:	623b      	str	r3, [r7, #32]
    GPIO_InitStruct.Alternate = GPIO_AF6_SPI3;
 8000c0e:	2306      	movs	r3, #6
 8000c10:	627b      	str	r3, [r7, #36]	; 0x24
    HAL_GPIO_Init(I2S3_WS_GPIO_Port, &GPIO_InitStruct);
 8000c12:	f107 0314 	add.w	r3, r7, #20
 8000c16:	4619      	mov	r1, r3
 8000c18:	480d      	ldr	r0, [pc, #52]	; (8000c50 <HAL_I2S_MspInit+0xc8>)
 8000c1a:	f000 faa3 	bl	8001164 <HAL_GPIO_Init>

    GPIO_InitStruct.Pin = I2S3_MCK_Pin|I2S3_SCK_Pin|I2S3_SD_Pin;
 8000c1e:	f44f 53a4 	mov.w	r3, #5248	; 0x1480
 8000c22:	617b      	str	r3, [r7, #20]
    GPIO_InitStruct.Mode = GPIO_MODE_AF_PP;
 8000c24:	2302      	movs	r3, #2
 8000c26:	61bb      	str	r3, [r7, #24]
    GPIO_InitStruct.Pull = GPIO_NOPULL;
 8000c28:	2300      	movs	r3, #0
 8000c2a:	61fb      	str	r3, [r7, #28]
    GPIO_InitStruct.Speed = GPIO_SPEED_FREQ_LOW;
 8000c2c:	2300      	movs	r3, #0
 8000c2e:	623b      	str	r3, [r7, #32]
    GPIO_InitStruct.Alternate = GPIO_AF6_SPI3;
 8000c30:	2306      	movs	r3, #6
 8000c32:	627b      	str	r3, [r7, #36]	; 0x24
    HAL_GPIO_Init(GPIOC, &GPIO_InitStruct);
 8000c34:	f107 0314 	add.w	r3, r7, #20
 8000c38:	4619      	mov	r1, r3
 8000c3a:	4806      	ldr	r0, [pc, #24]	; (8000c54 <HAL_I2S_MspInit+0xcc>)
 8000c3c:	f000 fa92 	bl	8001164 <HAL_GPIO_Init>
  /* USER CODE BEGIN SPI3_MspInit 1 */

  /* USER CODE END SPI3_MspInit 1 */
  }

}
 8000c40:	bf00      	nop
 8000c42:	3728      	adds	r7, #40	; 0x28
 8000c44:	46bd      	mov	sp, r7
 8000c46:	bd80      	pop	{r7, pc}
 8000c48:	40003c00 	.word	0x40003c00
 8000c4c:	40023800 	.word	0x40023800
 8000c50:	40020000 	.word	0x40020000
 8000c54:	40020800 	.word	0x40020800

08000c58 <HAL_SPI_MspInit>:
* This function configures the hardware resources used in this example
* @param hspi: SPI handle pointer
* @retval None
*/
void HAL_SPI_MspInit(SPI_HandleTypeDef* hspi)
{
 8000c58:	b580      	push	{r7, lr}
 8000c5a:	b08a      	sub	sp, #40	; 0x28
 8000c5c:	af00      	add	r7, sp, #0
 8000c5e:	6078      	str	r0, [r7, #4]
  GPIO_InitTypeDef GPIO_InitStruct = {0};
 8000c60:	f107 0314 	add.w	r3, r7, #20
 8000c64:	2200      	movs	r2, #0
 8000c66:	601a      	str	r2, [r3, #0]
 8000c68:	605a      	str	r2, [r3, #4]
 8000c6a:	609a      	str	r2, [r3, #8]
 8000c6c:	60da      	str	r2, [r3, #12]
 8000c6e:	611a      	str	r2, [r3, #16]
  if(hspi->Instance==SPI1)
 8000c70:	687b      	ldr	r3, [r7, #4]
 8000c72:	681b      	ldr	r3, [r3, #0]
 8000c74:	4a19      	ldr	r2, [pc, #100]	; (8000cdc <HAL_SPI_MspInit+0x84>)
 8000c76:	4293      	cmp	r3, r2
 8000c78:	d12b      	bne.n	8000cd2 <HAL_SPI_MspInit+0x7a>
  {
  /* USER CODE BEGIN SPI1_MspInit 0 */

  /* USER CODE END SPI1_MspInit 0 */
    /* Peripheral clock enable */
    __HAL_RCC_SPI1_CLK_ENABLE();
 8000c7a:	2300      	movs	r3, #0
 8000c7c:	613b      	str	r3, [r7, #16]
 8000c7e:	4b18      	ldr	r3, [pc, #96]	; (8000ce0 <HAL_SPI_MspInit+0x88>)
 8000c80:	6c5b      	ldr	r3, [r3, #68]	; 0x44
 8000c82:	4a17      	ldr	r2, [pc, #92]	; (8000ce0 <HAL_SPI_MspInit+0x88>)
 8000c84:	f443 5380 	orr.w	r3, r3, #4096	; 0x1000
 8000c88:	6453      	str	r3, [r2, #68]	; 0x44
 8000c8a:	4b15      	ldr	r3, [pc, #84]	; (8000ce0 <HAL_SPI_MspInit+0x88>)
 8000c8c:	6c5b      	ldr	r3, [r3, #68]	; 0x44
 8000c8e:	f403 5380 	and.w	r3, r3, #4096	; 0x1000
 8000c92:	613b      	str	r3, [r7, #16]
 8000c94:	693b      	ldr	r3, [r7, #16]

    __HAL_RCC_GPIOA_CLK_ENABLE();
 8000c96:	2300      	movs	r3, #0
 8000c98:	60fb      	str	r3, [r7, #12]
 8000c9a:	4b11      	ldr	r3, [pc, #68]	; (8000ce0 <HAL_SPI_MspInit+0x88>)
 8000c9c:	6b1b      	ldr	r3, [r3, #48]	; 0x30
 8000c9e:	4a10      	ldr	r2, [pc, #64]	; (8000ce0 <HAL_SPI_MspInit+0x88>)
 8000ca0:	f043 0301 	orr.w	r3, r3, #1
 8000ca4:	6313      	str	r3, [r2, #48]	; 0x30
 8000ca6:	4b0e      	ldr	r3, [pc, #56]	; (8000ce0 <HAL_SPI_MspInit+0x88>)
 8000ca8:	6b1b      	ldr	r3, [r3, #48]	; 0x30
 8000caa:	f003 0301 	and.w	r3, r3, #1
 8000cae:	60fb      	str	r3, [r7, #12]
 8000cb0:	68fb      	ldr	r3, [r7, #12]
    /**SPI1 GPIO Configuration
    PA5     ------> SPI1_SCK
    PA6     ------> SPI1_MISO
    PA7     ------> SPI1_MOSI
    */
    GPIO_InitStruct.Pin = SPI1_SCK_Pin|SPI1_MISO_Pin|SPI1_MOSI_Pin;
 8000cb2:	23e0      	movs	r3, #224	; 0xe0
 8000cb4:	617b      	str	r3, [r7, #20]
    GPIO_InitStruct.Mode = GPIO_MODE_AF_PP;
 8000cb6:	2302      	movs	r3, #2
 8000cb8:	61bb      	str	r3, [r7, #24]
    GPIO_InitStruct.Pull = GPIO_NOPULL;
 8000cba:	2300      	movs	r3, #0
 8000cbc:	61fb      	str	r3, [r7, #28]
    GPIO_InitStruct.Speed = GPIO_SPEED_FREQ_LOW;
 8000cbe:	2300      	movs	r3, #0
 8000cc0:	623b      	str	r3, [r7, #32]
    GPIO_InitStruct.Alternate = GPIO_AF5_SPI1;
 8000cc2:	2305      	movs	r3, #5
 8000cc4:	627b      	str	r3, [r7, #36]	; 0x24
    HAL_GPIO_Init(GPIOA, &GPIO_InitStruct);
 8000cc6:	f107 0314 	add.w	r3, r7, #20
 8000cca:	4619      	mov	r1, r3
 8000ccc:	4805      	ldr	r0, [pc, #20]	; (8000ce4 <HAL_SPI_MspInit+0x8c>)
 8000cce:	f000 fa49 	bl	8001164 <HAL_GPIO_Init>
  /* USER CODE BEGIN SPI1_MspInit 1 */

  /* USER CODE END SPI1_MspInit 1 */
  }

}
 8000cd2:	bf00      	nop
 8000cd4:	3728      	adds	r7, #40	; 0x28
 8000cd6:	46bd      	mov	sp, r7
 8000cd8:	bd80      	pop	{r7, pc}
 8000cda:	bf00      	nop
 8000cdc:	40013000 	.word	0x40013000
 8000ce0:	40023800 	.word	0x40023800
 8000ce4:	40020000 	.word	0x40020000

08000ce8 <HAL_InitTick>:
  *         reset by HAL_Init() or at any time when clock is configured, by HAL_RCC_ClockConfig().
  * @param  TickPriority: Tick interrupt priority.
  * @retval HAL status
  */
HAL_StatusTypeDef HAL_InitTick(uint32_t TickPriority)
{
 8000ce8:	b580      	push	{r7, lr}
 8000cea:	b08c      	sub	sp, #48	; 0x30
 8000cec:	af00      	add	r7, sp, #0
 8000cee:	6078      	str	r0, [r7, #4]
  RCC_ClkInitTypeDef    clkconfig;
  uint32_t              uwTimclock = 0;
 8000cf0:	2300      	movs	r3, #0
 8000cf2:	62fb      	str	r3, [r7, #44]	; 0x2c
  uint32_t              uwPrescalerValue = 0;
 8000cf4:	2300      	movs	r3, #0
 8000cf6:	62bb      	str	r3, [r7, #40]	; 0x28
  uint32_t              pFLatency;
  /*Configure the TIM6 IRQ priority */
  HAL_NVIC_SetPriority(TIM6_DAC_IRQn, TickPriority ,0);
 8000cf8:	2200      	movs	r2, #0
 8000cfa:	6879      	ldr	r1, [r7, #4]
 8000cfc:	2036      	movs	r0, #54	; 0x36
 8000cfe:	f000 fa07 	bl	8001110 <HAL_NVIC_SetPriority>

  /* Enable the TIM6 global Interrupt */
  HAL_NVIC_EnableIRQ(TIM6_DAC_IRQn);
 8000d02:	2036      	movs	r0, #54	; 0x36
 8000d04:	f000 fa20 	bl	8001148 <HAL_NVIC_EnableIRQ>
  /* Enable TIM6 clock */
  __HAL_RCC_TIM6_CLK_ENABLE();
 8000d08:	2300      	movs	r3, #0
 8000d0a:	60fb      	str	r3, [r7, #12]
 8000d0c:	4b1f      	ldr	r3, [pc, #124]	; (8000d8c <HAL_InitTick+0xa4>)
 8000d0e:	6c1b      	ldr	r3, [r3, #64]	; 0x40
 8000d10:	4a1e      	ldr	r2, [pc, #120]	; (8000d8c <HAL_InitTick+0xa4>)
 8000d12:	f043 0310 	orr.w	r3, r3, #16
 8000d16:	6413      	str	r3, [r2, #64]	; 0x40
 8000d18:	4b1c      	ldr	r3, [pc, #112]	; (8000d8c <HAL_InitTick+0xa4>)
 8000d1a:	6c1b      	ldr	r3, [r3, #64]	; 0x40
 8000d1c:	f003 0310 	and.w	r3, r3, #16
 8000d20:	60fb      	str	r3, [r7, #12]
 8000d22:	68fb      	ldr	r3, [r7, #12]

  /* Get clock configuration */
  HAL_RCC_GetClockConfig(&clkconfig, &pFLatency);
 8000d24:	f107 0210 	add.w	r2, r7, #16
 8000d28:	f107 0314 	add.w	r3, r7, #20
 8000d2c:	4611      	mov	r1, r2
 8000d2e:	4618      	mov	r0, r3
 8000d30:	f003 fb8e 	bl	8004450 <HAL_RCC_GetClockConfig>

  /* Compute TIM6 clock */
  uwTimclock = 2*HAL_RCC_GetPCLK1Freq();
 8000d34:	f003 fb78 	bl	8004428 <HAL_RCC_GetPCLK1Freq>
 8000d38:	4603      	mov	r3, r0
 8000d3a:	005b      	lsls	r3, r3, #1
 8000d3c:	62fb      	str	r3, [r7, #44]	; 0x2c
  /* Compute the prescaler value to have TIM6 counter clock equal to 1MHz */
  uwPrescalerValue = (uint32_t) ((uwTimclock / 1000000U) - 1U);
 8000d3e:	6afb      	ldr	r3, [r7, #44]	; 0x2c
 8000d40:	4a13      	ldr	r2, [pc, #76]	; (8000d90 <HAL_InitTick+0xa8>)
 8000d42:	fba2 2303 	umull	r2, r3, r2, r3
 8000d46:	0c9b      	lsrs	r3, r3, #18
 8000d48:	3b01      	subs	r3, #1
 8000d4a:	62bb      	str	r3, [r7, #40]	; 0x28

  /* Initialize TIM6 */
  htim6.Instance = TIM6;
 8000d4c:	4b11      	ldr	r3, [pc, #68]	; (8000d94 <HAL_InitTick+0xac>)
 8000d4e:	4a12      	ldr	r2, [pc, #72]	; (8000d98 <HAL_InitTick+0xb0>)
 8000d50:	601a      	str	r2, [r3, #0]
  + Period = [(TIM6CLK/1000) - 1]. to have a (1/1000) s time base.
  + Prescaler = (uwTimclock/1000000 - 1) to have a 1MHz counter clock.
  + ClockDivision = 0
  + Counter direction = Up
  */
  htim6.Init.Period = (1000000U / 1000U) - 1U;
 8000d52:	4b10      	ldr	r3, [pc, #64]	; (8000d94 <HAL_InitTick+0xac>)
 8000d54:	f240 32e7 	movw	r2, #999	; 0x3e7
 8000d58:	60da      	str	r2, [r3, #12]
  htim6.Init.Prescaler = uwPrescalerValue;
 8000d5a:	4a0e      	ldr	r2, [pc, #56]	; (8000d94 <HAL_InitTick+0xac>)
 8000d5c:	6abb      	ldr	r3, [r7, #40]	; 0x28
 8000d5e:	6053      	str	r3, [r2, #4]
  htim6.Init.ClockDivision = 0;
 8000d60:	4b0c      	ldr	r3, [pc, #48]	; (8000d94 <HAL_InitTick+0xac>)
 8000d62:	2200      	movs	r2, #0
 8000d64:	611a      	str	r2, [r3, #16]
  htim6.Init.CounterMode = TIM_COUNTERMODE_UP;
 8000d66:	4b0b      	ldr	r3, [pc, #44]	; (8000d94 <HAL_InitTick+0xac>)
 8000d68:	2200      	movs	r2, #0
 8000d6a:	609a      	str	r2, [r3, #8]
  if(HAL_TIM_Base_Init(&htim6) == HAL_OK)
 8000d6c:	4809      	ldr	r0, [pc, #36]	; (8000d94 <HAL_InitTick+0xac>)
 8000d6e:	f003 fd6a 	bl	8004846 <HAL_TIM_Base_Init>
 8000d72:	4603      	mov	r3, r0
 8000d74:	2b00      	cmp	r3, #0
 8000d76:	d104      	bne.n	8000d82 <HAL_InitTick+0x9a>
  {
    /* Start the TIM time Base generation in interrupt mode */
    return HAL_TIM_Base_Start_IT(&htim6);
 8000d78:	4806      	ldr	r0, [pc, #24]	; (8000d94 <HAL_InitTick+0xac>)
 8000d7a:	f003 fdbd 	bl	80048f8 <HAL_TIM_Base_Start_IT>
 8000d7e:	4603      	mov	r3, r0
 8000d80:	e000      	b.n	8000d84 <HAL_InitTick+0x9c>
  }

  /* Return function status */
  return HAL_ERROR;
 8000d82:	2301      	movs	r3, #1
}
 8000d84:	4618      	mov	r0, r3
 8000d86:	3730      	adds	r7, #48	; 0x30
 8000d88:	46bd      	mov	sp, r7
 8000d8a:	bd80      	pop	{r7, pc}
 8000d8c:	40023800 	.word	0x40023800
 8000d90:	431bde83 	.word	0x431bde83
 8000d94:	20004168 	.word	0x20004168
 8000d98:	40001000 	.word	0x40001000

08000d9c <NMI_Handler>:
/******************************************************************************/
/**
  * @brief This function handles Non maskable interrupt.
  */
void NMI_Handler(void)
{
 8000d9c:	b480      	push	{r7}
 8000d9e:	af00      	add	r7, sp, #0
  /* USER CODE BEGIN NonMaskableInt_IRQn 0 */

  /* USER CODE END NonMaskableInt_IRQn 0 */
  /* USER CODE BEGIN NonMaskableInt_IRQn 1 */
  while (1)
 8000da0:	e7fe      	b.n	8000da0 <NMI_Handler+0x4>

08000da2 <HardFault_Handler>:

/**
  * @brief This function handles Hard fault interrupt.
  */
void HardFault_Handler(void)
{
 8000da2:	b480      	push	{r7}
 8000da4:	af00      	add	r7, sp, #0
  /* USER CODE BEGIN HardFault_IRQn 0 */

  /* USER CODE END HardFault_IRQn 0 */
  while (1)
 8000da6:	e7fe      	b.n	8000da6 <HardFault_Handler+0x4>

08000da8 <MemManage_Handler>:

/**
  * @brief This function handles Memory management fault.
  */
void MemManage_Handler(void)
{
 8000da8:	b480      	push	{r7}
 8000daa:	af00      	add	r7, sp, #0
  /* USER CODE BEGIN MemoryManagement_IRQn 0 */

  /* USER CODE END MemoryManagement_IRQn 0 */
  while (1)
 8000dac:	e7fe      	b.n	8000dac <MemManage_Handler+0x4>

08000dae <BusFault_Handler>:

/**
  * @brief This function handles Pre-fetch fault, memory access fault.
  */
void BusFault_Handler(void)
{
 8000dae:	b480      	push	{r7}
 8000db0:	af00      	add	r7, sp, #0
  /* USER CODE BEGIN BusFault_IRQn 0 */

  /* USER CODE END BusFault_IRQn 0 */
  while (1)
 8000db2:	e7fe      	b.n	8000db2 <BusFault_Handler+0x4>

08000db4 <UsageFault_Handler>:

/**
  * @brief This function handles Undefined instruction or illegal state.
  */
void UsageFault_Handler(void)
{
 8000db4:	b480      	push	{r7}
 8000db6:	af00      	add	r7, sp, #0
  /* USER CODE BEGIN UsageFault_IRQn 0 */

  /* USER CODE END UsageFault_IRQn 0 */
  while (1)
 8000db8:	e7fe      	b.n	8000db8 <UsageFault_Handler+0x4>

08000dba <DebugMon_Handler>:

/**
  * @brief This function handles Debug monitor.
  */
void DebugMon_Handler(void)
{
 8000dba:	b480      	push	{r7}
 8000dbc:	af00      	add	r7, sp, #0

  /* USER CODE END DebugMonitor_IRQn 0 */
  /* USER CODE BEGIN DebugMonitor_IRQn 1 */

  /* USER CODE END DebugMonitor_IRQn 1 */
}
 8000dbe:	bf00      	nop
 8000dc0:	46bd      	mov	sp, r7
 8000dc2:	f85d 7b04 	ldr.w	r7, [sp], #4
 8000dc6:	4770      	bx	lr

08000dc8 <TIM6_DAC_IRQHandler>:

/**
  * @brief This function handles TIM6 global interrupt, DAC1 and DAC2 underrun error interrupts.
  */
void TIM6_DAC_IRQHandler(void)
{
 8000dc8:	b580      	push	{r7, lr}
 8000dca:	af00      	add	r7, sp, #0
  /* USER CODE BEGIN TIM6_DAC_IRQn 0 */

  /* USER CODE END TIM6_DAC_IRQn 0 */
  HAL_TIM_IRQHandler(&htim6);
 8000dcc:	4802      	ldr	r0, [pc, #8]	; (8000dd8 <TIM6_DAC_IRQHandler+0x10>)
 8000dce:	f003 fe03 	bl	80049d8 <HAL_TIM_IRQHandler>
  /* USER CODE BEGIN TIM6_DAC_IRQn 1 */

  /* USER CODE END TIM6_DAC_IRQn 1 */
}
 8000dd2:	bf00      	nop
 8000dd4:	bd80      	pop	{r7, pc}
 8000dd6:	bf00      	nop
 8000dd8:	20004168 	.word	0x20004168

08000ddc <OTG_FS_IRQHandler>:

/**
  * @brief This function handles USB On The Go FS global interrupt.
  */
void OTG_FS_IRQHandler(void)
{
 8000ddc:	b580      	push	{r7, lr}
 8000dde:	af00      	add	r7, sp, #0
  /* USER CODE BEGIN OTG_FS_IRQn 0 */

  /* USER CODE END OTG_FS_IRQn 0 */
  HAL_HCD_IRQHandler(&hhcd_USB_OTG_FS);
 8000de0:	4802      	ldr	r0, [pc, #8]	; (8000dec <OTG_FS_IRQHandler+0x10>)
 8000de2:	f000 fdf7 	bl	80019d4 <HAL_HCD_IRQHandler>
  /* USER CODE BEGIN OTG_FS_IRQn 1 */

  /* USER CODE END OTG_FS_IRQn 1 */
}
 8000de6:	bf00      	nop
 8000de8:	bd80      	pop	{r7, pc}
 8000dea:	bf00      	nop
 8000dec:	20004598 	.word	0x20004598

08000df0 <_sbrk>:
 *
 * @param incr Memory size
 * @return Pointer to allocated memory
 */
void *_sbrk(ptrdiff_t incr)
{
 8000df0:	b580      	push	{r7, lr}
 8000df2:	b086      	sub	sp, #24
 8000df4:	af00      	add	r7, sp, #0
 8000df6:	6078      	str	r0, [r7, #4]
  extern uint8_t _end; /* Symbol defined in the linker script */
  extern uint8_t _estack; /* Symbol defined in the linker script */
  extern uint32_t _Min_Stack_Size; /* Symbol defined in the linker script */
  const uint32_t stack_limit = (uint32_t)&_estack - (uint32_t)&_Min_Stack_Size;
 8000df8:	4a14      	ldr	r2, [pc, #80]	; (8000e4c <_sbrk+0x5c>)
 8000dfa:	4b15      	ldr	r3, [pc, #84]	; (8000e50 <_sbrk+0x60>)
 8000dfc:	1ad3      	subs	r3, r2, r3
 8000dfe:	617b      	str	r3, [r7, #20]
  const uint8_t *max_heap = (uint8_t *)stack_limit;
 8000e00:	697b      	ldr	r3, [r7, #20]
 8000e02:	613b      	str	r3, [r7, #16]
  uint8_t *prev_heap_end;

  /* Initialize heap end at first call */
  if (NULL == __sbrk_heap_end)
 8000e04:	4b13      	ldr	r3, [pc, #76]	; (8000e54 <_sbrk+0x64>)
 8000e06:	681b      	ldr	r3, [r3, #0]
 8000e08:	2b00      	cmp	r3, #0
 8000e0a:	d102      	bne.n	8000e12 <_sbrk+0x22>
  {
    __sbrk_heap_end = &_end;
 8000e0c:	4b11      	ldr	r3, [pc, #68]	; (8000e54 <_sbrk+0x64>)
 8000e0e:	4a12      	ldr	r2, [pc, #72]	; (8000e58 <_sbrk+0x68>)
 8000e10:	601a      	str	r2, [r3, #0]
  }

  /* Protect heap from growing into the reserved MSP stack */
  if (__sbrk_heap_end + incr > max_heap)
 8000e12:	4b10      	ldr	r3, [pc, #64]	; (8000e54 <_sbrk+0x64>)
 8000e14:	681a      	ldr	r2, [r3, #0]
 8000e16:	687b      	ldr	r3, [r7, #4]
 8000e18:	4413      	add	r3, r2
 8000e1a:	693a      	ldr	r2, [r7, #16]
 8000e1c:	429a      	cmp	r2, r3
 8000e1e:	d207      	bcs.n	8000e30 <_sbrk+0x40>
  {
    errno = ENOMEM;
 8000e20:	f009 fdee 	bl	800aa00 <__errno>
 8000e24:	4603      	mov	r3, r0
 8000e26:	220c      	movs	r2, #12
 8000e28:	601a      	str	r2, [r3, #0]
    return (void *)-1;
 8000e2a:	f04f 33ff 	mov.w	r3, #4294967295
 8000e2e:	e009      	b.n	8000e44 <_sbrk+0x54>
  }

  prev_heap_end = __sbrk_heap_end;
 8000e30:	4b08      	ldr	r3, [pc, #32]	; (8000e54 <_sbrk+0x64>)
 8000e32:	681b      	ldr	r3, [r3, #0]
 8000e34:	60fb      	str	r3, [r7, #12]
  __sbrk_heap_end += incr;
 8000e36:	4b07      	ldr	r3, [pc, #28]	; (8000e54 <_sbrk+0x64>)
 8000e38:	681a      	ldr	r2, [r3, #0]
 8000e3a:	687b      	ldr	r3, [r7, #4]
 8000e3c:	4413      	add	r3, r2
 8000e3e:	4a05      	ldr	r2, [pc, #20]	; (8000e54 <_sbrk+0x64>)
 8000e40:	6013      	str	r3, [r2, #0]

  return (void *)prev_heap_end;
 8000e42:	68fb      	ldr	r3, [r7, #12]
}
 8000e44:	4618      	mov	r0, r3
 8000e46:	3718      	adds	r7, #24
 8000e48:	46bd      	mov	sp, r7
 8000e4a:	bd80      	pop	{r7, pc}
 8000e4c:	20020000 	.word	0x20020000
 8000e50:	00000400 	.word	0x00000400
 8000e54:	20000304 	.word	0x20000304
 8000e58:	200048b0 	.word	0x200048b0

08000e5c <SystemInit>:
  *         configuration.
  * @param  None
  * @retval None
  */
void SystemInit(void)
{
 8000e5c:	b480      	push	{r7}
 8000e5e:	af00      	add	r7, sp, #0
  /* FPU settings ------------------------------------------------------------*/
  #if (__FPU_PRESENT == 1) && (__FPU_USED == 1)
    SCB->CPACR |= ((3UL << 10*2)|(3UL << 11*2));  /* set CP10 and CP11 Full Access */
 8000e60:	4b06      	ldr	r3, [pc, #24]	; (8000e7c <SystemInit+0x20>)
 8000e62:	f8d3 3088 	ldr.w	r3, [r3, #136]	; 0x88
 8000e66:	4a05      	ldr	r2, [pc, #20]	; (8000e7c <SystemInit+0x20>)
 8000e68:	f443 0370 	orr.w	r3, r3, #15728640	; 0xf00000
 8000e6c:	f8c2 3088 	str.w	r3, [r2, #136]	; 0x88

  /* Configure the Vector Table location -------------------------------------*/
#if defined(USER_VECT_TAB_ADDRESS)
  SCB->VTOR = VECT_TAB_BASE_ADDRESS | VECT_TAB_OFFSET; /* Vector Table Relocation in Internal SRAM */
#endif /* USER_VECT_TAB_ADDRESS */
}
 8000e70:	bf00      	nop
 8000e72:	46bd      	mov	sp, r7
 8000e74:	f85d 7b04 	ldr.w	r7, [sp], #4
 8000e78:	4770      	bx	lr
 8000e7a:	bf00      	nop
 8000e7c:	e000ed00 	.word	0xe000ed00

08000e80 <Reset_Handler>:

    .section  .text.Reset_Handler
  .weak  Reset_Handler
  .type  Reset_Handler, %function
Reset_Handler:  
  ldr   sp, =_estack     /* set stack pointer */
 8000e80:	f8df d034 	ldr.w	sp, [pc, #52]	; 8000eb8 <LoopFillZerobss+0x12>

/* Copy the data segment initializers from flash to SRAM */  
  ldr r0, =_sdata
 8000e84:	480d      	ldr	r0, [pc, #52]	; (8000ebc <LoopFillZerobss+0x16>)
  ldr r1, =_edata
 8000e86:	490e      	ldr	r1, [pc, #56]	; (8000ec0 <LoopFillZerobss+0x1a>)
  ldr r2, =_sidata
 8000e88:	4a0e      	ldr	r2, [pc, #56]	; (8000ec4 <LoopFillZerobss+0x1e>)
  movs r3, #0
 8000e8a:	2300      	movs	r3, #0
  b LoopCopyDataInit
 8000e8c:	e002      	b.n	8000e94 <LoopCopyDataInit>

08000e8e <CopyDataInit>:

CopyDataInit:
  ldr r4, [r2, r3]
 8000e8e:	58d4      	ldr	r4, [r2, r3]
  str r4, [r0, r3]
 8000e90:	50c4      	str	r4, [r0, r3]
  adds r3, r3, #4
 8000e92:	3304      	adds	r3, #4

08000e94 <LoopCopyDataInit>:

LoopCopyDataInit:
  adds r4, r0, r3
 8000e94:	18c4      	adds	r4, r0, r3
  cmp r4, r1
 8000e96:	428c      	cmp	r4, r1
  bcc CopyDataInit
 8000e98:	d3f9      	bcc.n	8000e8e <CopyDataInit>
  
/* Zero fill the bss segment. */
  ldr r2, =_sbss
 8000e9a:	4a0b      	ldr	r2, [pc, #44]	; (8000ec8 <LoopFillZerobss+0x22>)
  ldr r4, =_ebss
 8000e9c:	4c0b      	ldr	r4, [pc, #44]	; (8000ecc <LoopFillZerobss+0x26>)
  movs r3, #0
 8000e9e:	2300      	movs	r3, #0
  b LoopFillZerobss
 8000ea0:	e001      	b.n	8000ea6 <LoopFillZerobss>

08000ea2 <FillZerobss>:

FillZerobss:
  str  r3, [r2]
 8000ea2:	6013      	str	r3, [r2, #0]
  adds r2, r2, #4
 8000ea4:	3204      	adds	r2, #4

08000ea6 <LoopFillZerobss>:

LoopFillZerobss:
  cmp r2, r4
 8000ea6:	42a2      	cmp	r2, r4
  bcc FillZerobss
 8000ea8:	d3fb      	bcc.n	8000ea2 <FillZerobss>

/* Call the clock system intitialization function.*/
  bl  SystemInit   
 8000eaa:	f7ff ffd7 	bl	8000e5c <SystemInit>
/* Call static constructors */
    bl __libc_init_array
 8000eae:	f009 fdad 	bl	800aa0c <__libc_init_array>
/* Call the application's entry point.*/
  bl  main
 8000eb2:	f7ff fb5b 	bl	800056c <main>
  bx  lr    
 8000eb6:	4770      	bx	lr
  ldr   sp, =_estack     /* set stack pointer */
 8000eb8:	20020000 	.word	0x20020000
  ldr r0, =_sdata
 8000ebc:	20000000 	.word	0x20000000
  ldr r1, =_edata
 8000ec0:	20000094 	.word	0x20000094
  ldr r2, =_sidata
 8000ec4:	0800ace8 	.word	0x0800ace8
  ldr r2, =_sbss
 8000ec8:	20000094 	.word	0x20000094
  ldr r4, =_ebss
 8000ecc:	200048ac 	.word	0x200048ac

08000ed0 <ADC_IRQHandler>:
 * @retval None       
*/
    .section  .text.Default_Handler,"ax",%progbits
Default_Handler:
Infinite_Loop:
  b  Infinite_Loop
 8000ed0:	e7fe      	b.n	8000ed0 <ADC_IRQHandler>
	...

08000ed4 <HAL_Init>:
  *         need to ensure that the SysTick time base is always set to 1 millisecond
  *         to have correct HAL operation.
  * @retval HAL status
  */
HAL_StatusTypeDef HAL_Init(void)
{
 8000ed4:	b580      	push	{r7, lr}
 8000ed6:	af00      	add	r7, sp, #0
  /* Configure Flash prefetch, Instruction cache, Data cache */ 
#if (INSTRUCTION_CACHE_ENABLE != 0U)
  __HAL_FLASH_INSTRUCTION_CACHE_ENABLE();
 8000ed8:	4b0e      	ldr	r3, [pc, #56]	; (8000f14 <HAL_Init+0x40>)
 8000eda:	681b      	ldr	r3, [r3, #0]
 8000edc:	4a0d      	ldr	r2, [pc, #52]	; (8000f14 <HAL_Init+0x40>)
 8000ede:	f443 7300 	orr.w	r3, r3, #512	; 0x200
 8000ee2:	6013      	str	r3, [r2, #0]
#endif /* INSTRUCTION_CACHE_ENABLE */

#if (DATA_CACHE_ENABLE != 0U)
  __HAL_FLASH_DATA_CACHE_ENABLE();
 8000ee4:	4b0b      	ldr	r3, [pc, #44]	; (8000f14 <HAL_Init+0x40>)
 8000ee6:	681b      	ldr	r3, [r3, #0]
 8000ee8:	4a0a      	ldr	r2, [pc, #40]	; (8000f14 <HAL_Init+0x40>)
 8000eea:	f443 6380 	orr.w	r3, r3, #1024	; 0x400
 8000eee:	6013      	str	r3, [r2, #0]
#endif /* DATA_CACHE_ENABLE */

#if (PREFETCH_ENABLE != 0U)
  __HAL_FLASH_PREFETCH_BUFFER_ENABLE();
 8000ef0:	4b08      	ldr	r3, [pc, #32]	; (8000f14 <HAL_Init+0x40>)
 8000ef2:	681b      	ldr	r3, [r3, #0]
 8000ef4:	4a07      	ldr	r2, [pc, #28]	; (8000f14 <HAL_Init+0x40>)
 8000ef6:	f443 7380 	orr.w	r3, r3, #256	; 0x100
 8000efa:	6013      	str	r3, [r2, #0]
#endif /* PREFETCH_ENABLE */

  /* Set Interrupt Group Priority */
  HAL_NVIC_SetPriorityGrouping(NVIC_PRIORITYGROUP_4);
 8000efc:	2003      	movs	r0, #3
 8000efe:	f000 f8fc 	bl	80010fa <HAL_NVIC_SetPriorityGrouping>

  /* Use systick as time base source and configure 1ms tick (default clock after Reset is HSI) */
  HAL_InitTick(TICK_INT_PRIORITY);
 8000f02:	2000      	movs	r0, #0
 8000f04:	f7ff fef0 	bl	8000ce8 <HAL_InitTick>

  /* Init the low level hardware */
  HAL_MspInit();
 8000f08:	f7ff fdca 	bl	8000aa0 <HAL_MspInit>

  /* Return function status */
  return HAL_OK;
 8000f0c:	2300      	movs	r3, #0
}
 8000f0e:	4618      	mov	r0, r3
 8000f10:	bd80      	pop	{r7, pc}
 8000f12:	bf00      	nop
 8000f14:	40023c00 	.word	0x40023c00

08000f18 <HAL_IncTick>:
 * @note This function is declared as __weak to be overwritten in case of other 
  *      implementations in user file.
  * @retval None
  */
__weak void HAL_IncTick(void)
{
 8000f18:	b480      	push	{r7}
 8000f1a:	af00      	add	r7, sp, #0
  uwTick += uwTickFreq;
 8000f1c:	4b06      	ldr	r3, [pc, #24]	; (8000f38 <HAL_IncTick+0x20>)
 8000f1e:	781b      	ldrb	r3, [r3, #0]
 8000f20:	461a      	mov	r2, r3
 8000f22:	4b06      	ldr	r3, [pc, #24]	; (8000f3c <HAL_IncTick+0x24>)
 8000f24:	681b      	ldr	r3, [r3, #0]
 8000f26:	4413      	add	r3, r2
 8000f28:	4a04      	ldr	r2, [pc, #16]	; (8000f3c <HAL_IncTick+0x24>)
 8000f2a:	6013      	str	r3, [r2, #0]
}
 8000f2c:	bf00      	nop
 8000f2e:	46bd      	mov	sp, r7
 8000f30:	f85d 7b04 	ldr.w	r7, [sp], #4
 8000f34:	4770      	bx	lr
 8000f36:	bf00      	nop
 8000f38:	20000008 	.word	0x20000008
 8000f3c:	200041b0 	.word	0x200041b0

08000f40 <HAL_GetTick>:
  * @note This function is declared as __weak to be overwritten in case of other 
  *       implementations in user file.
  * @retval tick value
  */
__weak uint32_t HAL_GetTick(void)
{
 8000f40:	b480      	push	{r7}
 8000f42:	af00      	add	r7, sp, #0
  return uwTick;
 8000f44:	4b03      	ldr	r3, [pc, #12]	; (8000f54 <HAL_GetTick+0x14>)
 8000f46:	681b      	ldr	r3, [r3, #0]
}
 8000f48:	4618      	mov	r0, r3
 8000f4a:	46bd      	mov	sp, r7
 8000f4c:	f85d 7b04 	ldr.w	r7, [sp], #4
 8000f50:	4770      	bx	lr
 8000f52:	bf00      	nop
 8000f54:	200041b0 	.word	0x200041b0

08000f58 <HAL_Delay>:
  *       implementations in user file.
  * @param Delay specifies the delay time length, in milliseconds.
  * @retval None
  */
__weak void HAL_Delay(uint32_t Delay)
{
 8000f58:	b580      	push	{r7, lr}
 8000f5a:	b084      	sub	sp, #16
 8000f5c:	af00      	add	r7, sp, #0
 8000f5e:	6078      	str	r0, [r7, #4]
  uint32_t tickstart = HAL_GetTick();
 8000f60:	f7ff ffee 	bl	8000f40 <HAL_GetTick>
 8000f64:	60b8      	str	r0, [r7, #8]
  uint32_t wait = Delay;
 8000f66:	687b      	ldr	r3, [r7, #4]
 8000f68:	60fb      	str	r3, [r7, #12]

  /* Add a freq to guarantee minimum wait */
  if (wait < HAL_MAX_DELAY)
 8000f6a:	68fb      	ldr	r3, [r7, #12]
 8000f6c:	f1b3 3fff 	cmp.w	r3, #4294967295
 8000f70:	d005      	beq.n	8000f7e <HAL_Delay+0x26>
  {
    wait += (uint32_t)(uwTickFreq);
 8000f72:	4b0a      	ldr	r3, [pc, #40]	; (8000f9c <HAL_Delay+0x44>)
 8000f74:	781b      	ldrb	r3, [r3, #0]
 8000f76:	461a      	mov	r2, r3
 8000f78:	68fb      	ldr	r3, [r7, #12]
 8000f7a:	4413      	add	r3, r2
 8000f7c:	60fb      	str	r3, [r7, #12]
  }

  while((HAL_GetTick() - tickstart) < wait)
 8000f7e:	bf00      	nop
 8000f80:	f7ff ffde 	bl	8000f40 <HAL_GetTick>
 8000f84:	4602      	mov	r2, r0
 8000f86:	68bb      	ldr	r3, [r7, #8]
 8000f88:	1ad3      	subs	r3, r2, r3
 8000f8a:	68fa      	ldr	r2, [r7, #12]
 8000f8c:	429a      	cmp	r2, r3
 8000f8e:	d8f7      	bhi.n	8000f80 <HAL_Delay+0x28>
  {
  }
}
 8000f90:	bf00      	nop
 8000f92:	bf00      	nop
 8000f94:	3710      	adds	r7, #16
 8000f96:	46bd      	mov	sp, r7
 8000f98:	bd80      	pop	{r7, pc}
 8000f9a:	bf00      	nop
 8000f9c:	20000008 	.word	0x20000008

08000fa0 <__NVIC_SetPriorityGrouping>:
           In case of a conflict between priority grouping and available
           priority bits (__NVIC_PRIO_BITS), the smallest possible priority group is set.
  \param [in]      PriorityGroup  Priority grouping field.
 */
__STATIC_INLINE void __NVIC_SetPriorityGrouping(uint32_t PriorityGroup)
{
 8000fa0:	b480      	push	{r7}
 8000fa2:	b085      	sub	sp, #20
 8000fa4:	af00      	add	r7, sp, #0
 8000fa6:	6078      	str	r0, [r7, #4]
  uint32_t reg_value;
  uint32_t PriorityGroupTmp = (PriorityGroup & (uint32_t)0x07UL);             /* only values 0..7 are used          */
 8000fa8:	687b      	ldr	r3, [r7, #4]
 8000faa:	f003 0307 	and.w	r3, r3, #7
 8000fae:	60fb      	str	r3, [r7, #12]

  reg_value  =  SCB->AIRCR;                                                   /* read old register configuration    */
 8000fb0:	4b0c      	ldr	r3, [pc, #48]	; (8000fe4 <__NVIC_SetPriorityGrouping+0x44>)
 8000fb2:	68db      	ldr	r3, [r3, #12]
 8000fb4:	60bb      	str	r3, [r7, #8]
  reg_value &= ~((uint32_t)(SCB_AIRCR_VECTKEY_Msk | SCB_AIRCR_PRIGROUP_Msk)); /* clear bits to change               */
 8000fb6:	68ba      	ldr	r2, [r7, #8]
 8000fb8:	f64f 03ff 	movw	r3, #63743	; 0xf8ff
 8000fbc:	4013      	ands	r3, r2
 8000fbe:	60bb      	str	r3, [r7, #8]
  reg_value  =  (reg_value                                   |
                ((uint32_t)0x5FAUL << SCB_AIRCR_VECTKEY_Pos) |
                (PriorityGroupTmp << SCB_AIRCR_PRIGROUP_Pos)  );              /* Insert write key and priority group */
 8000fc0:	68fb      	ldr	r3, [r7, #12]
 8000fc2:	021a      	lsls	r2, r3, #8
                ((uint32_t)0x5FAUL << SCB_AIRCR_VECTKEY_Pos) |
 8000fc4:	68bb      	ldr	r3, [r7, #8]
 8000fc6:	4313      	orrs	r3, r2
  reg_value  =  (reg_value                                   |
 8000fc8:	f043 63bf 	orr.w	r3, r3, #100139008	; 0x5f80000
 8000fcc:	f443 3300 	orr.w	r3, r3, #131072	; 0x20000
 8000fd0:	60bb      	str	r3, [r7, #8]
  SCB->AIRCR =  reg_value;
 8000fd2:	4a04      	ldr	r2, [pc, #16]	; (8000fe4 <__NVIC_SetPriorityGrouping+0x44>)
 8000fd4:	68bb      	ldr	r3, [r7, #8]
 8000fd6:	60d3      	str	r3, [r2, #12]
}
 8000fd8:	bf00      	nop
 8000fda:	3714      	adds	r7, #20
 8000fdc:	46bd      	mov	sp, r7
 8000fde:	f85d 7b04 	ldr.w	r7, [sp], #4
 8000fe2:	4770      	bx	lr
 8000fe4:	e000ed00 	.word	0xe000ed00

08000fe8 <__NVIC_GetPriorityGrouping>:
  \brief   Get Priority Grouping
  \details Reads the priority grouping field from the NVIC Interrupt Controller.
  \return                Priority grouping field (SCB->AIRCR [10:8] PRIGROUP field).
 */
__STATIC_INLINE uint32_t __NVIC_GetPriorityGrouping(void)
{
 8000fe8:	b480      	push	{r7}
 8000fea:	af00      	add	r7, sp, #0
  return ((uint32_t)((SCB->AIRCR & SCB_AIRCR_PRIGROUP_Msk) >> SCB_AIRCR_PRIGROUP_Pos));
 8000fec:	4b04      	ldr	r3, [pc, #16]	; (8001000 <__NVIC_GetPriorityGrouping+0x18>)
 8000fee:	68db      	ldr	r3, [r3, #12]
 8000ff0:	0a1b      	lsrs	r3, r3, #8
 8000ff2:	f003 0307 	and.w	r3, r3, #7
}
 8000ff6:	4618      	mov	r0, r3
 8000ff8:	46bd      	mov	sp, r7
 8000ffa:	f85d 7b04 	ldr.w	r7, [sp], #4
 8000ffe:	4770      	bx	lr
 8001000:	e000ed00 	.word	0xe000ed00

08001004 <__NVIC_EnableIRQ>:
  \details Enables a device specific interrupt in the NVIC interrupt controller.
  \param [in]      IRQn  Device specific interrupt number.
  \note    IRQn must not be negative.
 */
__STATIC_INLINE void __NVIC_EnableIRQ(IRQn_Type IRQn)
{
 8001004:	b480      	push	{r7}
 8001006:	b083      	sub	sp, #12
 8001008:	af00      	add	r7, sp, #0
 800100a:	4603      	mov	r3, r0
 800100c:	71fb      	strb	r3, [r7, #7]
  if ((int32_t)(IRQn) >= 0)
 800100e:	f997 3007 	ldrsb.w	r3, [r7, #7]
 8001012:	2b00      	cmp	r3, #0
 8001014:	db0b      	blt.n	800102e <__NVIC_EnableIRQ+0x2a>
  {
    NVIC->ISER[(((uint32_t)IRQn) >> 5UL)] = (uint32_t)(1UL << (((uint32_t)IRQn) & 0x1FUL));
 8001016:	79fb      	ldrb	r3, [r7, #7]
 8001018:	f003 021f 	and.w	r2, r3, #31
 800101c:	4907      	ldr	r1, [pc, #28]	; (800103c <__NVIC_EnableIRQ+0x38>)
 800101e:	f997 3007 	ldrsb.w	r3, [r7, #7]
 8001022:	095b      	lsrs	r3, r3, #5
 8001024:	2001      	movs	r0, #1
 8001026:	fa00 f202 	lsl.w	r2, r0, r2
 800102a:	f841 2023 	str.w	r2, [r1, r3, lsl #2]
  }
}
 800102e:	bf00      	nop
 8001030:	370c      	adds	r7, #12
 8001032:	46bd      	mov	sp, r7
 8001034:	f85d 7b04 	ldr.w	r7, [sp], #4
 8001038:	4770      	bx	lr
 800103a:	bf00      	nop
 800103c:	e000e100 	.word	0xe000e100

08001040 <__NVIC_SetPriority>:
  \param [in]      IRQn  Interrupt number.
  \param [in]  priority  Priority to set.
  \note    The priority cannot be set for every processor exception.
 */
__STATIC_INLINE void __NVIC_SetPriority(IRQn_Type IRQn, uint32_t priority)
{
 8001040:	b480      	push	{r7}
 8001042:	b083      	sub	sp, #12
 8001044:	af00      	add	r7, sp, #0
 8001046:	4603      	mov	r3, r0
 8001048:	6039      	str	r1, [r7, #0]
 800104a:	71fb      	strb	r3, [r7, #7]
  if ((int32_t)(IRQn) >= 0)
 800104c:	f997 3007 	ldrsb.w	r3, [r7, #7]
 8001050:	2b00      	cmp	r3, #0
 8001052:	db0a      	blt.n	800106a <__NVIC_SetPriority+0x2a>
  {
    NVIC->IP[((uint32_t)IRQn)]               = (uint8_t)((priority << (8U - __NVIC_PRIO_BITS)) & (uint32_t)0xFFUL);
 8001054:	683b      	ldr	r3, [r7, #0]
 8001056:	b2da      	uxtb	r2, r3
 8001058:	490c      	ldr	r1, [pc, #48]	; (800108c <__NVIC_SetPriority+0x4c>)
 800105a:	f997 3007 	ldrsb.w	r3, [r7, #7]
 800105e:	0112      	lsls	r2, r2, #4
 8001060:	b2d2      	uxtb	r2, r2
 8001062:	440b      	add	r3, r1
 8001064:	f883 2300 	strb.w	r2, [r3, #768]	; 0x300
  }
  else
  {
    SCB->SHP[(((uint32_t)IRQn) & 0xFUL)-4UL] = (uint8_t)((priority << (8U - __NVIC_PRIO_BITS)) & (uint32_t)0xFFUL);
  }
}
 8001068:	e00a      	b.n	8001080 <__NVIC_SetPriority+0x40>
    SCB->SHP[(((uint32_t)IRQn) & 0xFUL)-4UL] = (uint8_t)((priority << (8U - __NVIC_PRIO_BITS)) & (uint32_t)0xFFUL);
 800106a:	683b      	ldr	r3, [r7, #0]
 800106c:	b2da      	uxtb	r2, r3
 800106e:	4908      	ldr	r1, [pc, #32]	; (8001090 <__NVIC_SetPriority+0x50>)
 8001070:	79fb      	ldrb	r3, [r7, #7]
 8001072:	f003 030f 	and.w	r3, r3, #15
 8001076:	3b04      	subs	r3, #4
 8001078:	0112      	lsls	r2, r2, #4
 800107a:	b2d2      	uxtb	r2, r2
 800107c:	440b      	add	r3, r1
 800107e:	761a      	strb	r2, [r3, #24]
}
 8001080:	bf00      	nop
 8001082:	370c      	adds	r7, #12
 8001084:	46bd      	mov	sp, r7
 8001086:	f85d 7b04 	ldr.w	r7, [sp], #4
 800108a:	4770      	bx	lr
 800108c:	e000e100 	.word	0xe000e100
 8001090:	e000ed00 	.word	0xe000ed00

08001094 <NVIC_EncodePriority>:
  \param [in]   PreemptPriority  Preemptive priority value (starting from 0).
  \param [in]       SubPriority  Subpriority value (starting from 0).
  \return                        Encoded priority. Value can be used in the function \ref NVIC_SetPriority().
 */
__STATIC_INLINE uint32_t NVIC_EncodePriority (uint32_t PriorityGroup, uint32_t PreemptPriority, uint32_t SubPriority)
{
 8001094:	b480      	push	{r7}
 8001096:	b089      	sub	sp, #36	; 0x24
 8001098:	af00      	add	r7, sp, #0
 800109a:	60f8      	str	r0, [r7, #12]
 800109c:	60b9      	str	r1, [r7, #8]
 800109e:	607a      	str	r2, [r7, #4]
  uint32_t PriorityGroupTmp = (PriorityGroup & (uint32_t)0x07UL);   /* only values 0..7 are used          */
 80010a0:	68fb      	ldr	r3, [r7, #12]
 80010a2:	f003 0307 	and.w	r3, r3, #7
 80010a6:	61fb      	str	r3, [r7, #28]
  uint32_t PreemptPriorityBits;
  uint32_t SubPriorityBits;

  PreemptPriorityBits = ((7UL - PriorityGroupTmp) > (uint32_t)(__NVIC_PRIO_BITS)) ? (uint32_t)(__NVIC_PRIO_BITS) : (uint32_t)(7UL - PriorityGroupTmp);
 80010a8:	69fb      	ldr	r3, [r7, #28]
 80010aa:	f1c3 0307 	rsb	r3, r3, #7
 80010ae:	2b04      	cmp	r3, #4
 80010b0:	bf28      	it	cs
 80010b2:	2304      	movcs	r3, #4
 80010b4:	61bb      	str	r3, [r7, #24]
  SubPriorityBits     = ((PriorityGroupTmp + (uint32_t)(__NVIC_PRIO_BITS)) < (uint32_t)7UL) ? (uint32_t)0UL : (uint32_t)((PriorityGroupTmp - 7UL) + (uint32_t)(__NVIC_PRIO_BITS));
 80010b6:	69fb      	ldr	r3, [r7, #28]
 80010b8:	3304      	adds	r3, #4
 80010ba:	2b06      	cmp	r3, #6
 80010bc:	d902      	bls.n	80010c4 <NVIC_EncodePriority+0x30>
 80010be:	69fb      	ldr	r3, [r7, #28]
 80010c0:	3b03      	subs	r3, #3
 80010c2:	e000      	b.n	80010c6 <NVIC_EncodePriority+0x32>
 80010c4:	2300      	movs	r3, #0
 80010c6:	617b      	str	r3, [r7, #20]

  return (
           ((PreemptPriority & (uint32_t)((1UL << (PreemptPriorityBits)) - 1UL)) << SubPriorityBits) |
 80010c8:	f04f 32ff 	mov.w	r2, #4294967295
 80010cc:	69bb      	ldr	r3, [r7, #24]
 80010ce:	fa02 f303 	lsl.w	r3, r2, r3
 80010d2:	43da      	mvns	r2, r3
 80010d4:	68bb      	ldr	r3, [r7, #8]
 80010d6:	401a      	ands	r2, r3
 80010d8:	697b      	ldr	r3, [r7, #20]
 80010da:	409a      	lsls	r2, r3
           ((SubPriority     & (uint32_t)((1UL << (SubPriorityBits    )) - 1UL)))
 80010dc:	f04f 31ff 	mov.w	r1, #4294967295
 80010e0:	697b      	ldr	r3, [r7, #20]
 80010e2:	fa01 f303 	lsl.w	r3, r1, r3
 80010e6:	43d9      	mvns	r1, r3
 80010e8:	687b      	ldr	r3, [r7, #4]
 80010ea:	400b      	ands	r3, r1
           ((PreemptPriority & (uint32_t)((1UL << (PreemptPriorityBits)) - 1UL)) << SubPriorityBits) |
 80010ec:	4313      	orrs	r3, r2
         );
}
 80010ee:	4618      	mov	r0, r3
 80010f0:	3724      	adds	r7, #36	; 0x24
 80010f2:	46bd      	mov	sp, r7
 80010f4:	f85d 7b04 	ldr.w	r7, [sp], #4
 80010f8:	4770      	bx	lr

080010fa <HAL_NVIC_SetPriorityGrouping>:
  * @note   When the NVIC_PriorityGroup_0 is selected, IRQ preemption is no more possible. 
  *         The pending IRQ priority will be managed only by the subpriority. 
  * @retval None
  */
void HAL_NVIC_SetPriorityGrouping(uint32_t PriorityGroup)
{
 80010fa:	b580      	push	{r7, lr}
 80010fc:	b082      	sub	sp, #8
 80010fe:	af00      	add	r7, sp, #0
 8001100:	6078      	str	r0, [r7, #4]
  /* Check the parameters */
  assert_param(IS_NVIC_PRIORITY_GROUP(PriorityGroup));
  
  /* Set the PRIGROUP[10:8] bits according to the PriorityGroup parameter value */
  NVIC_SetPriorityGrouping(PriorityGroup);
 8001102:	6878      	ldr	r0, [r7, #4]
 8001104:	f7ff ff4c 	bl	8000fa0 <__NVIC_SetPriorityGrouping>
}
 8001108:	bf00      	nop
 800110a:	3708      	adds	r7, #8
 800110c:	46bd      	mov	sp, r7
 800110e:	bd80      	pop	{r7, pc}

08001110 <HAL_NVIC_SetPriority>:
  *         This parameter can be a value between 0 and 15
  *         A lower priority value indicates a higher priority.          
  * @retval None
  */
void HAL_NVIC_SetPriority(IRQn_Type IRQn, uint32_t PreemptPriority, uint32_t SubPriority)
{ 
 8001110:	b580      	push	{r7, lr}
 8001112:	b086      	sub	sp, #24
 8001114:	af00      	add	r7, sp, #0
 8001116:	4603      	mov	r3, r0
 8001118:	60b9      	str	r1, [r7, #8]
 800111a:	607a      	str	r2, [r7, #4]
 800111c:	73fb      	strb	r3, [r7, #15]
  uint32_t prioritygroup = 0x00U;
 800111e:	2300      	movs	r3, #0
 8001120:	617b      	str	r3, [r7, #20]
  
  /* Check the parameters */
  assert_param(IS_NVIC_SUB_PRIORITY(SubPriority));
  assert_param(IS_NVIC_PREEMPTION_PRIORITY(PreemptPriority));
  
  prioritygroup = NVIC_GetPriorityGrouping();
 8001122:	f7ff ff61 	bl	8000fe8 <__NVIC_GetPriorityGrouping>
 8001126:	6178      	str	r0, [r7, #20]
  
  NVIC_SetPriority(IRQn, NVIC_EncodePriority(prioritygroup, PreemptPriority, SubPriority));
 8001128:	687a      	ldr	r2, [r7, #4]
 800112a:	68b9      	ldr	r1, [r7, #8]
 800112c:	6978      	ldr	r0, [r7, #20]
 800112e:	f7ff ffb1 	bl	8001094 <NVIC_EncodePriority>
 8001132:	4602      	mov	r2, r0
 8001134:	f997 300f 	ldrsb.w	r3, [r7, #15]
 8001138:	4611      	mov	r1, r2
 800113a:	4618      	mov	r0, r3
 800113c:	f7ff ff80 	bl	8001040 <__NVIC_SetPriority>
}
 8001140:	bf00      	nop
 8001142:	3718      	adds	r7, #24
 8001144:	46bd      	mov	sp, r7
 8001146:	bd80      	pop	{r7, pc}

08001148 <HAL_NVIC_EnableIRQ>:
  *         This parameter can be an enumerator of IRQn_Type enumeration
  *         (For the complete STM32 Devices IRQ Channels list, please refer to the appropriate CMSIS device file (stm32f4xxxx.h))
  * @retval None
  */
void HAL_NVIC_EnableIRQ(IRQn_Type IRQn)
{
 8001148:	b580      	push	{r7, lr}
 800114a:	b082      	sub	sp, #8
 800114c:	af00      	add	r7, sp, #0
 800114e:	4603      	mov	r3, r0
 8001150:	71fb      	strb	r3, [r7, #7]
  /* Check the parameters */
  assert_param(IS_NVIC_DEVICE_IRQ(IRQn));
  
  /* Enable interrupt */
  NVIC_EnableIRQ(IRQn);
 8001152:	f997 3007 	ldrsb.w	r3, [r7, #7]
 8001156:	4618      	mov	r0, r3
 8001158:	f7ff ff54 	bl	8001004 <__NVIC_EnableIRQ>
}
 800115c:	bf00      	nop
 800115e:	3708      	adds	r7, #8
 8001160:	46bd      	mov	sp, r7
 8001162:	bd80      	pop	{r7, pc}

08001164 <HAL_GPIO_Init>:
  * @param  GPIO_Init pointer to a GPIO_InitTypeDef structure that contains
  *         the configuration information for the specified GPIO peripheral.
  * @retval None
  */
void HAL_GPIO_Init(GPIO_TypeDef  *GPIOx, GPIO_InitTypeDef *GPIO_Init)
{
 8001164:	b480      	push	{r7}
 8001166:	b089      	sub	sp, #36	; 0x24
 8001168:	af00      	add	r7, sp, #0
 800116a:	6078      	str	r0, [r7, #4]
 800116c:	6039      	str	r1, [r7, #0]
  uint32_t position;
  uint32_t ioposition = 0x00U;
 800116e:	2300      	movs	r3, #0
 8001170:	617b      	str	r3, [r7, #20]
  uint32_t iocurrent = 0x00U;
 8001172:	2300      	movs	r3, #0
 8001174:	613b      	str	r3, [r7, #16]
  uint32_t temp = 0x00U;
 8001176:	2300      	movs	r3, #0
 8001178:	61bb      	str	r3, [r7, #24]
  assert_param(IS_GPIO_PIN(GPIO_Init->Pin));
  assert_param(IS_GPIO_MODE(GPIO_Init->Mode));
  assert_param(IS_GPIO_PULL(GPIO_Init->Pull));

  /* Configure the port pins */
  for(position = 0U; position < GPIO_NUMBER; position++)
 800117a:	2300      	movs	r3, #0
 800117c:	61fb      	str	r3, [r7, #28]
 800117e:	e16b      	b.n	8001458 <HAL_GPIO_Init+0x2f4>
  {
    /* Get the IO position */
    ioposition = 0x01U << position;
 8001180:	2201      	movs	r2, #1
 8001182:	69fb      	ldr	r3, [r7, #28]
 8001184:	fa02 f303 	lsl.w	r3, r2, r3
 8001188:	617b      	str	r3, [r7, #20]
    /* Get the current IO position */
    iocurrent = (uint32_t)(GPIO_Init->Pin) & ioposition;
 800118a:	683b      	ldr	r3, [r7, #0]
 800118c:	681b      	ldr	r3, [r3, #0]
 800118e:	697a      	ldr	r2, [r7, #20]
 8001190:	4013      	ands	r3, r2
 8001192:	613b      	str	r3, [r7, #16]

    if(iocurrent == ioposition)
 8001194:	693a      	ldr	r2, [r7, #16]
 8001196:	697b      	ldr	r3, [r7, #20]
 8001198:	429a      	cmp	r2, r3
 800119a:	f040 815a 	bne.w	8001452 <HAL_GPIO_Init+0x2ee>
    {
      /*--------------------- GPIO Mode Configuration ------------------------*/
      /* In case of Output or Alternate function mode selection */
      if(((GPIO_Init->Mode & GPIO_MODE) == MODE_OUTPUT) || \
 800119e:	683b      	ldr	r3, [r7, #0]
 80011a0:	685b      	ldr	r3, [r3, #4]
 80011a2:	f003 0303 	and.w	r3, r3, #3
 80011a6:	2b01      	cmp	r3, #1
 80011a8:	d005      	beq.n	80011b6 <HAL_GPIO_Init+0x52>
          (GPIO_Init->Mode & GPIO_MODE) == MODE_AF)
 80011aa:	683b      	ldr	r3, [r7, #0]
 80011ac:	685b      	ldr	r3, [r3, #4]
 80011ae:	f003 0303 	and.w	r3, r3, #3
      if(((GPIO_Init->Mode & GPIO_MODE) == MODE_OUTPUT) || \
 80011b2:	2b02      	cmp	r3, #2
 80011b4:	d130      	bne.n	8001218 <HAL_GPIO_Init+0xb4>
      {
        /* Check the Speed parameter */
        assert_param(IS_GPIO_SPEED(GPIO_Init->Speed));
        /* Configure the IO Speed */
        temp = GPIOx->OSPEEDR; 
 80011b6:	687b      	ldr	r3, [r7, #4]
 80011b8:	689b      	ldr	r3, [r3, #8]
 80011ba:	61bb      	str	r3, [r7, #24]
        temp &= ~(GPIO_OSPEEDER_OSPEEDR0 << (position * 2U));
 80011bc:	69fb      	ldr	r3, [r7, #28]
 80011be:	005b      	lsls	r3, r3, #1
 80011c0:	2203      	movs	r2, #3
 80011c2:	fa02 f303 	lsl.w	r3, r2, r3
 80011c6:	43db      	mvns	r3, r3
 80011c8:	69ba      	ldr	r2, [r7, #24]
 80011ca:	4013      	ands	r3, r2
 80011cc:	61bb      	str	r3, [r7, #24]
        temp |= (GPIO_Init->Speed << (position * 2U));
 80011ce:	683b      	ldr	r3, [r7, #0]
 80011d0:	68da      	ldr	r2, [r3, #12]
 80011d2:	69fb      	ldr	r3, [r7, #28]
 80011d4:	005b      	lsls	r3, r3, #1
 80011d6:	fa02 f303 	lsl.w	r3, r2, r3
 80011da:	69ba      	ldr	r2, [r7, #24]
 80011dc:	4313      	orrs	r3, r2
 80011de:	61bb      	str	r3, [r7, #24]
        GPIOx->OSPEEDR = temp;
 80011e0:	687b      	ldr	r3, [r7, #4]
 80011e2:	69ba      	ldr	r2, [r7, #24]
 80011e4:	609a      	str	r2, [r3, #8]

        /* Configure the IO Output Type */
        temp = GPIOx->OTYPER;
 80011e6:	687b      	ldr	r3, [r7, #4]
 80011e8:	685b      	ldr	r3, [r3, #4]
 80011ea:	61bb      	str	r3, [r7, #24]
        temp &= ~(GPIO_OTYPER_OT_0 << position) ;
 80011ec:	2201      	movs	r2, #1
 80011ee:	69fb      	ldr	r3, [r7, #28]
 80011f0:	fa02 f303 	lsl.w	r3, r2, r3
 80011f4:	43db      	mvns	r3, r3
 80011f6:	69ba      	ldr	r2, [r7, #24]
 80011f8:	4013      	ands	r3, r2
 80011fa:	61bb      	str	r3, [r7, #24]
        temp |= (((GPIO_Init->Mode & GPIO_OUTPUT_TYPE) >> 4U) << position);
 80011fc:	683b      	ldr	r3, [r7, #0]
 80011fe:	685b      	ldr	r3, [r3, #4]
 8001200:	091b      	lsrs	r3, r3, #4
 8001202:	f003 0201 	and.w	r2, r3, #1
 8001206:	69fb      	ldr	r3, [r7, #28]
 8001208:	fa02 f303 	lsl.w	r3, r2, r3
 800120c:	69ba      	ldr	r2, [r7, #24]
 800120e:	4313      	orrs	r3, r2
 8001210:	61bb      	str	r3, [r7, #24]
        GPIOx->OTYPER = temp;
 8001212:	687b      	ldr	r3, [r7, #4]
 8001214:	69ba      	ldr	r2, [r7, #24]
 8001216:	605a      	str	r2, [r3, #4]
       }

      if((GPIO_Init->Mode & GPIO_MODE) != MODE_ANALOG)
 8001218:	683b      	ldr	r3, [r7, #0]
 800121a:	685b      	ldr	r3, [r3, #4]
 800121c:	f003 0303 	and.w	r3, r3, #3
 8001220:	2b03      	cmp	r3, #3
 8001222:	d017      	beq.n	8001254 <HAL_GPIO_Init+0xf0>
      {
        /* Activate the Pull-up or Pull down resistor for the current IO */
        temp = GPIOx->PUPDR;
 8001224:	687b      	ldr	r3, [r7, #4]
 8001226:	68db      	ldr	r3, [r3, #12]
 8001228:	61bb      	str	r3, [r7, #24]
        temp &= ~(GPIO_PUPDR_PUPDR0 << (position * 2U));
 800122a:	69fb      	ldr	r3, [r7, #28]
 800122c:	005b      	lsls	r3, r3, #1
 800122e:	2203      	movs	r2, #3
 8001230:	fa02 f303 	lsl.w	r3, r2, r3
 8001234:	43db      	mvns	r3, r3
 8001236:	69ba      	ldr	r2, [r7, #24]
 8001238:	4013      	ands	r3, r2
 800123a:	61bb      	str	r3, [r7, #24]
        temp |= ((GPIO_Init->Pull) << (position * 2U));
 800123c:	683b      	ldr	r3, [r7, #0]
 800123e:	689a      	ldr	r2, [r3, #8]
 8001240:	69fb      	ldr	r3, [r7, #28]
 8001242:	005b      	lsls	r3, r3, #1
 8001244:	fa02 f303 	lsl.w	r3, r2, r3
 8001248:	69ba      	ldr	r2, [r7, #24]
 800124a:	4313      	orrs	r3, r2
 800124c:	61bb      	str	r3, [r7, #24]
        GPIOx->PUPDR = temp;
 800124e:	687b      	ldr	r3, [r7, #4]
 8001250:	69ba      	ldr	r2, [r7, #24]
 8001252:	60da      	str	r2, [r3, #12]
      }

      /* In case of Alternate function mode selection */
      if((GPIO_Init->Mode & GPIO_MODE) == MODE_AF)
 8001254:	683b      	ldr	r3, [r7, #0]
 8001256:	685b      	ldr	r3, [r3, #4]
 8001258:	f003 0303 	and.w	r3, r3, #3
 800125c:	2b02      	cmp	r3, #2
 800125e:	d123      	bne.n	80012a8 <HAL_GPIO_Init+0x144>
      {
        /* Check the Alternate function parameter */
        assert_param(IS_GPIO_AF(GPIO_Init->Alternate));
        /* Configure Alternate function mapped with the current IO */
        temp = GPIOx->AFR[position >> 3U];
 8001260:	69fb      	ldr	r3, [r7, #28]
 8001262:	08da      	lsrs	r2, r3, #3
 8001264:	687b      	ldr	r3, [r7, #4]
 8001266:	3208      	adds	r2, #8
 8001268:	f853 3022 	ldr.w	r3, [r3, r2, lsl #2]
 800126c:	61bb      	str	r3, [r7, #24]
        temp &= ~(0xFU << ((uint32_t)(position & 0x07U) * 4U)) ;
 800126e:	69fb      	ldr	r3, [r7, #28]
 8001270:	f003 0307 	and.w	r3, r3, #7
 8001274:	009b      	lsls	r3, r3, #2
 8001276:	220f      	movs	r2, #15
 8001278:	fa02 f303 	lsl.w	r3, r2, r3
 800127c:	43db      	mvns	r3, r3
 800127e:	69ba      	ldr	r2, [r7, #24]
 8001280:	4013      	ands	r3, r2
 8001282:	61bb      	str	r3, [r7, #24]
        temp |= ((uint32_t)(GPIO_Init->Alternate) << (((uint32_t)position & 0x07U) * 4U));
 8001284:	683b      	ldr	r3, [r7, #0]
 8001286:	691a      	ldr	r2, [r3, #16]
 8001288:	69fb      	ldr	r3, [r7, #28]
 800128a:	f003 0307 	and.w	r3, r3, #7
 800128e:	009b      	lsls	r3, r3, #2
 8001290:	fa02 f303 	lsl.w	r3, r2, r3
 8001294:	69ba      	ldr	r2, [r7, #24]
 8001296:	4313      	orrs	r3, r2
 8001298:	61bb      	str	r3, [r7, #24]
        GPIOx->AFR[position >> 3U] = temp;
 800129a:	69fb      	ldr	r3, [r7, #28]
 800129c:	08da      	lsrs	r2, r3, #3
 800129e:	687b      	ldr	r3, [r7, #4]
 80012a0:	3208      	adds	r2, #8
 80012a2:	69b9      	ldr	r1, [r7, #24]
 80012a4:	f843 1022 	str.w	r1, [r3, r2, lsl #2]
      }

      /* Configure IO Direction mode (Input, Output, Alternate or Analog) */
      temp = GPIOx->MODER;
 80012a8:	687b      	ldr	r3, [r7, #4]
 80012aa:	681b      	ldr	r3, [r3, #0]
 80012ac:	61bb      	str	r3, [r7, #24]
      temp &= ~(GPIO_MODER_MODER0 << (position * 2U));
 80012ae:	69fb      	ldr	r3, [r7, #28]
 80012b0:	005b      	lsls	r3, r3, #1
 80012b2:	2203      	movs	r2, #3
 80012b4:	fa02 f303 	lsl.w	r3, r2, r3
 80012b8:	43db      	mvns	r3, r3
 80012ba:	69ba      	ldr	r2, [r7, #24]
 80012bc:	4013      	ands	r3, r2
 80012be:	61bb      	str	r3, [r7, #24]
      temp |= ((GPIO_Init->Mode & GPIO_MODE) << (position * 2U));
 80012c0:	683b      	ldr	r3, [r7, #0]
 80012c2:	685b      	ldr	r3, [r3, #4]
 80012c4:	f003 0203 	and.w	r2, r3, #3
 80012c8:	69fb      	ldr	r3, [r7, #28]
 80012ca:	005b      	lsls	r3, r3, #1
 80012cc:	fa02 f303 	lsl.w	r3, r2, r3
 80012d0:	69ba      	ldr	r2, [r7, #24]
 80012d2:	4313      	orrs	r3, r2
 80012d4:	61bb      	str	r3, [r7, #24]
      GPIOx->MODER = temp;
 80012d6:	687b      	ldr	r3, [r7, #4]
 80012d8:	69ba      	ldr	r2, [r7, #24]
 80012da:	601a      	str	r2, [r3, #0]

      /*--------------------- EXTI Mode Configuration ------------------------*/
      /* Configure the External Interrupt or event for the current IO */
      if((GPIO_Init->Mode & EXTI_MODE) == EXTI_MODE)
 80012dc:	683b      	ldr	r3, [r7, #0]
 80012de:	685b      	ldr	r3, [r3, #4]
 80012e0:	f003 5380 	and.w	r3, r3, #268435456	; 0x10000000
 80012e4:	2b00      	cmp	r3, #0
 80012e6:	f000 80b4 	beq.w	8001452 <HAL_GPIO_Init+0x2ee>
      {
        /* Enable SYSCFG Clock */
        __HAL_RCC_SYSCFG_CLK_ENABLE();
 80012ea:	2300      	movs	r3, #0
 80012ec:	60fb      	str	r3, [r7, #12]
 80012ee:	4b60      	ldr	r3, [pc, #384]	; (8001470 <HAL_GPIO_Init+0x30c>)
 80012f0:	6c5b      	ldr	r3, [r3, #68]	; 0x44
 80012f2:	4a5f      	ldr	r2, [pc, #380]	; (8001470 <HAL_GPIO_Init+0x30c>)
 80012f4:	f443 4380 	orr.w	r3, r3, #16384	; 0x4000
 80012f8:	6453      	str	r3, [r2, #68]	; 0x44
 80012fa:	4b5d      	ldr	r3, [pc, #372]	; (8001470 <HAL_GPIO_Init+0x30c>)
 80012fc:	6c5b      	ldr	r3, [r3, #68]	; 0x44
 80012fe:	f403 4380 	and.w	r3, r3, #16384	; 0x4000
 8001302:	60fb      	str	r3, [r7, #12]
 8001304:	68fb      	ldr	r3, [r7, #12]

        temp = SYSCFG->EXTICR[position >> 2U];
 8001306:	4a5b      	ldr	r2, [pc, #364]	; (8001474 <HAL_GPIO_Init+0x310>)
 8001308:	69fb      	ldr	r3, [r7, #28]
 800130a:	089b      	lsrs	r3, r3, #2
 800130c:	3302      	adds	r3, #2
 800130e:	f852 3023 	ldr.w	r3, [r2, r3, lsl #2]
 8001312:	61bb      	str	r3, [r7, #24]
        temp &= ~(0x0FU << (4U * (position & 0x03U)));
 8001314:	69fb      	ldr	r3, [r7, #28]
 8001316:	f003 0303 	and.w	r3, r3, #3
 800131a:	009b      	lsls	r3, r3, #2
 800131c:	220f      	movs	r2, #15
 800131e:	fa02 f303 	lsl.w	r3, r2, r3
 8001322:	43db      	mvns	r3, r3
 8001324:	69ba      	ldr	r2, [r7, #24]
 8001326:	4013      	ands	r3, r2
 8001328:	61bb      	str	r3, [r7, #24]
        temp |= ((uint32_t)(GPIO_GET_INDEX(GPIOx)) << (4U * (position & 0x03U)));
 800132a:	687b      	ldr	r3, [r7, #4]
 800132c:	4a52      	ldr	r2, [pc, #328]	; (8001478 <HAL_GPIO_Init+0x314>)
 800132e:	4293      	cmp	r3, r2
 8001330:	d02b      	beq.n	800138a <HAL_GPIO_Init+0x226>
 8001332:	687b      	ldr	r3, [r7, #4]
 8001334:	4a51      	ldr	r2, [pc, #324]	; (800147c <HAL_GPIO_Init+0x318>)
 8001336:	4293      	cmp	r3, r2
 8001338:	d025      	beq.n	8001386 <HAL_GPIO_Init+0x222>
 800133a:	687b      	ldr	r3, [r7, #4]
 800133c:	4a50      	ldr	r2, [pc, #320]	; (8001480 <HAL_GPIO_Init+0x31c>)
 800133e:	4293      	cmp	r3, r2
 8001340:	d01f      	beq.n	8001382 <HAL_GPIO_Init+0x21e>
 8001342:	687b      	ldr	r3, [r7, #4]
 8001344:	4a4f      	ldr	r2, [pc, #316]	; (8001484 <HAL_GPIO_Init+0x320>)
 8001346:	4293      	cmp	r3, r2
 8001348:	d019      	beq.n	800137e <HAL_GPIO_Init+0x21a>
 800134a:	687b      	ldr	r3, [r7, #4]
 800134c:	4a4e      	ldr	r2, [pc, #312]	; (8001488 <HAL_GPIO_Init+0x324>)
 800134e:	4293      	cmp	r3, r2
 8001350:	d013      	beq.n	800137a <HAL_GPIO_Init+0x216>
 8001352:	687b      	ldr	r3, [r7, #4]
 8001354:	4a4d      	ldr	r2, [pc, #308]	; (800148c <HAL_GPIO_Init+0x328>)
 8001356:	4293      	cmp	r3, r2
 8001358:	d00d      	beq.n	8001376 <HAL_GPIO_Init+0x212>
 800135a:	687b      	ldr	r3, [r7, #4]
 800135c:	4a4c      	ldr	r2, [pc, #304]	; (8001490 <HAL_GPIO_Init+0x32c>)
 800135e:	4293      	cmp	r3, r2
 8001360:	d007      	beq.n	8001372 <HAL_GPIO_Init+0x20e>
 8001362:	687b      	ldr	r3, [r7, #4]
 8001364:	4a4b      	ldr	r2, [pc, #300]	; (8001494 <HAL_GPIO_Init+0x330>)
 8001366:	4293      	cmp	r3, r2
 8001368:	d101      	bne.n	800136e <HAL_GPIO_Init+0x20a>
 800136a:	2307      	movs	r3, #7
 800136c:	e00e      	b.n	800138c <HAL_GPIO_Init+0x228>
 800136e:	2308      	movs	r3, #8
 8001370:	e00c      	b.n	800138c <HAL_GPIO_Init+0x228>
 8001372:	2306      	movs	r3, #6
 8001374:	e00a      	b.n	800138c <HAL_GPIO_Init+0x228>
 8001376:	2305      	movs	r3, #5
 8001378:	e008      	b.n	800138c <HAL_GPIO_Init+0x228>
 800137a:	2304      	movs	r3, #4
 800137c:	e006      	b.n	800138c <HAL_GPIO_Init+0x228>
 800137e:	2303      	movs	r3, #3
 8001380:	e004      	b.n	800138c <HAL_GPIO_Init+0x228>
 8001382:	2302      	movs	r3, #2
 8001384:	e002      	b.n	800138c <HAL_GPIO_Init+0x228>
 8001386:	2301      	movs	r3, #1
 8001388:	e000      	b.n	800138c <HAL_GPIO_Init+0x228>
 800138a:	2300      	movs	r3, #0
 800138c:	69fa      	ldr	r2, [r7, #28]
 800138e:	f002 0203 	and.w	r2, r2, #3
 8001392:	0092      	lsls	r2, r2, #2
 8001394:	4093      	lsls	r3, r2
 8001396:	69ba      	ldr	r2, [r7, #24]
 8001398:	4313      	orrs	r3, r2
 800139a:	61bb      	str	r3, [r7, #24]
        SYSCFG->EXTICR[position >> 2U] = temp;
 800139c:	4935      	ldr	r1, [pc, #212]	; (8001474 <HAL_GPIO_Init+0x310>)
 800139e:	69fb      	ldr	r3, [r7, #28]
 80013a0:	089b      	lsrs	r3, r3, #2
 80013a2:	3302      	adds	r3, #2
 80013a4:	69ba      	ldr	r2, [r7, #24]
 80013a6:	f841 2023 	str.w	r2, [r1, r3, lsl #2]

        /* Clear EXTI line configuration */
        temp = EXTI->IMR;
 80013aa:	4b3b      	ldr	r3, [pc, #236]	; (8001498 <HAL_GPIO_Init+0x334>)
 80013ac:	681b      	ldr	r3, [r3, #0]
 80013ae:	61bb      	str	r3, [r7, #24]
        temp &= ~((uint32_t)iocurrent);
 80013b0:	693b      	ldr	r3, [r7, #16]
 80013b2:	43db      	mvns	r3, r3
 80013b4:	69ba      	ldr	r2, [r7, #24]
 80013b6:	4013      	ands	r3, r2
 80013b8:	61bb      	str	r3, [r7, #24]
        if((GPIO_Init->Mode & GPIO_MODE_IT) == GPIO_MODE_IT)
 80013ba:	683b      	ldr	r3, [r7, #0]
 80013bc:	685b      	ldr	r3, [r3, #4]
 80013be:	f403 3380 	and.w	r3, r3, #65536	; 0x10000
 80013c2:	2b00      	cmp	r3, #0
 80013c4:	d003      	beq.n	80013ce <HAL_GPIO_Init+0x26a>
        {
          temp |= iocurrent;
 80013c6:	69ba      	ldr	r2, [r7, #24]
 80013c8:	693b      	ldr	r3, [r7, #16]
 80013ca:	4313      	orrs	r3, r2
 80013cc:	61bb      	str	r3, [r7, #24]
        }
        EXTI->IMR = temp;
 80013ce:	4a32      	ldr	r2, [pc, #200]	; (8001498 <HAL_GPIO_Init+0x334>)
 80013d0:	69bb      	ldr	r3, [r7, #24]
 80013d2:	6013      	str	r3, [r2, #0]

        temp = EXTI->EMR;
 80013d4:	4b30      	ldr	r3, [pc, #192]	; (8001498 <HAL_GPIO_Init+0x334>)
 80013d6:	685b      	ldr	r3, [r3, #4]
 80013d8:	61bb      	str	r3, [r7, #24]
        temp &= ~((uint32_t)iocurrent);
 80013da:	693b      	ldr	r3, [r7, #16]
 80013dc:	43db      	mvns	r3, r3
 80013de:	69ba      	ldr	r2, [r7, #24]
 80013e0:	4013      	ands	r3, r2
 80013e2:	61bb      	str	r3, [r7, #24]
        if((GPIO_Init->Mode & GPIO_MODE_EVT) == GPIO_MODE_EVT)
 80013e4:	683b      	ldr	r3, [r7, #0]
 80013e6:	685b      	ldr	r3, [r3, #4]
 80013e8:	f403 3300 	and.w	r3, r3, #131072	; 0x20000
 80013ec:	2b00      	cmp	r3, #0
 80013ee:	d003      	beq.n	80013f8 <HAL_GPIO_Init+0x294>
        {
          temp |= iocurrent;
 80013f0:	69ba      	ldr	r2, [r7, #24]
 80013f2:	693b      	ldr	r3, [r7, #16]
 80013f4:	4313      	orrs	r3, r2
 80013f6:	61bb      	str	r3, [r7, #24]
        }
        EXTI->EMR = temp;
 80013f8:	4a27      	ldr	r2, [pc, #156]	; (8001498 <HAL_GPIO_Init+0x334>)
 80013fa:	69bb      	ldr	r3, [r7, #24]
 80013fc:	6053      	str	r3, [r2, #4]

        /* Clear Rising Falling edge configuration */
        temp = EXTI->RTSR;
 80013fe:	4b26      	ldr	r3, [pc, #152]	; (8001498 <HAL_GPIO_Init+0x334>)
 8001400:	689b      	ldr	r3, [r3, #8]
 8001402:	61bb      	str	r3, [r7, #24]
        temp &= ~((uint32_t)iocurrent);
 8001404:	693b      	ldr	r3, [r7, #16]
 8001406:	43db      	mvns	r3, r3
 8001408:	69ba      	ldr	r2, [r7, #24]
 800140a:	4013      	ands	r3, r2
 800140c:	61bb      	str	r3, [r7, #24]
        if((GPIO_Init->Mode & RISING_EDGE) == RISING_EDGE)
 800140e:	683b      	ldr	r3, [r7, #0]
 8001410:	685b      	ldr	r3, [r3, #4]
 8001412:	f403 1380 	and.w	r3, r3, #1048576	; 0x100000
 8001416:	2b00      	cmp	r3, #0
 8001418:	d003      	beq.n	8001422 <HAL_GPIO_Init+0x2be>
        {
          temp |= iocurrent;
 800141a:	69ba      	ldr	r2, [r7, #24]
 800141c:	693b      	ldr	r3, [r7, #16]
 800141e:	4313      	orrs	r3, r2
 8001420:	61bb      	str	r3, [r7, #24]
        }
        EXTI->RTSR = temp;
 8001422:	4a1d      	ldr	r2, [pc, #116]	; (8001498 <HAL_GPIO_Init+0x334>)
 8001424:	69bb      	ldr	r3, [r7, #24]
 8001426:	6093      	str	r3, [r2, #8]

        temp = EXTI->FTSR;
 8001428:	4b1b      	ldr	r3, [pc, #108]	; (8001498 <HAL_GPIO_Init+0x334>)
 800142a:	68db      	ldr	r3, [r3, #12]
 800142c:	61bb      	str	r3, [r7, #24]
        temp &= ~((uint32_t)iocurrent);
 800142e:	693b      	ldr	r3, [r7, #16]
 8001430:	43db      	mvns	r3, r3
 8001432:	69ba      	ldr	r2, [r7, #24]
 8001434:	4013      	ands	r3, r2
 8001436:	61bb      	str	r3, [r7, #24]
        if((GPIO_Init->Mode & FALLING_EDGE) == FALLING_EDGE)
 8001438:	683b      	ldr	r3, [r7, #0]
 800143a:	685b      	ldr	r3, [r3, #4]
 800143c:	f403 1300 	and.w	r3, r3, #2097152	; 0x200000
 8001440:	2b00      	cmp	r3, #0
 8001442:	d003      	beq.n	800144c <HAL_GPIO_Init+0x2e8>
        {
          temp |= iocurrent;
 8001444:	69ba      	ldr	r2, [r7, #24]
 8001446:	693b      	ldr	r3, [r7, #16]
 8001448:	4313      	orrs	r3, r2
 800144a:	61bb      	str	r3, [r7, #24]
        }
        EXTI->FTSR = temp;
 800144c:	4a12      	ldr	r2, [pc, #72]	; (8001498 <HAL_GPIO_Init+0x334>)
 800144e:	69bb      	ldr	r3, [r7, #24]
 8001450:	60d3      	str	r3, [r2, #12]
  for(position = 0U; position < GPIO_NUMBER; position++)
 8001452:	69fb      	ldr	r3, [r7, #28]
 8001454:	3301      	adds	r3, #1
 8001456:	61fb      	str	r3, [r7, #28]
 8001458:	69fb      	ldr	r3, [r7, #28]
 800145a:	2b0f      	cmp	r3, #15
 800145c:	f67f ae90 	bls.w	8001180 <HAL_GPIO_Init+0x1c>
      }
    }
  }
}
 8001460:	bf00      	nop
 8001462:	bf00      	nop
 8001464:	3724      	adds	r7, #36	; 0x24
 8001466:	46bd      	mov	sp, r7
 8001468:	f85d 7b04 	ldr.w	r7, [sp], #4
 800146c:	4770      	bx	lr
 800146e:	bf00      	nop
 8001470:	40023800 	.word	0x40023800
 8001474:	40013800 	.word	0x40013800
 8001478:	40020000 	.word	0x40020000
 800147c:	40020400 	.word	0x40020400
 8001480:	40020800 	.word	0x40020800
 8001484:	40020c00 	.word	0x40020c00
 8001488:	40021000 	.word	0x40021000
 800148c:	40021400 	.word	0x40021400
 8001490:	40021800 	.word	0x40021800
 8001494:	40021c00 	.word	0x40021c00
 8001498:	40013c00 	.word	0x40013c00

0800149c <HAL_GPIO_ReadPin>:
  * @param  GPIO_Pin specifies the port bit to read.
  *         This parameter can be GPIO_PIN_x where x can be (0..15).
  * @retval The input port pin value.
  */
GPIO_PinState HAL_GPIO_ReadPin(GPIO_TypeDef* GPIOx, uint16_t GPIO_Pin)
{
 800149c:	b480      	push	{r7}
 800149e:	b085      	sub	sp, #20
 80014a0:	af00      	add	r7, sp, #0
 80014a2:	6078      	str	r0, [r7, #4]
 80014a4:	460b      	mov	r3, r1
 80014a6:	807b      	strh	r3, [r7, #2]
  GPIO_PinState bitstatus;

  /* Check the parameters */
  assert_param(IS_GPIO_PIN(GPIO_Pin));

  if((GPIOx->IDR & GPIO_Pin) != (uint32_t)GPIO_PIN_RESET)
 80014a8:	687b      	ldr	r3, [r7, #4]
 80014aa:	691a      	ldr	r2, [r3, #16]
 80014ac:	887b      	ldrh	r3, [r7, #2]
 80014ae:	4013      	ands	r3, r2
 80014b0:	2b00      	cmp	r3, #0
 80014b2:	d002      	beq.n	80014ba <HAL_GPIO_ReadPin+0x1e>
  {
    bitstatus = GPIO_PIN_SET;
 80014b4:	2301      	movs	r3, #1
 80014b6:	73fb      	strb	r3, [r7, #15]
 80014b8:	e001      	b.n	80014be <HAL_GPIO_ReadPin+0x22>
  }
  else
  {
    bitstatus = GPIO_PIN_RESET;
 80014ba:	2300      	movs	r3, #0
 80014bc:	73fb      	strb	r3, [r7, #15]
  }
  return bitstatus;
 80014be:	7bfb      	ldrb	r3, [r7, #15]
}
 80014c0:	4618      	mov	r0, r3
 80014c2:	3714      	adds	r7, #20
 80014c4:	46bd      	mov	sp, r7
 80014c6:	f85d 7b04 	ldr.w	r7, [sp], #4
 80014ca:	4770      	bx	lr

080014cc <HAL_GPIO_WritePin>:
  *            @arg GPIO_PIN_RESET: to clear the port pin
  *            @arg GPIO_PIN_SET: to set the port pin
  * @retval None
  */
void HAL_GPIO_WritePin(GPIO_TypeDef* GPIOx, uint16_t GPIO_Pin, GPIO_PinState PinState)
{
 80014cc:	b480      	push	{r7}
 80014ce:	b083      	sub	sp, #12
 80014d0:	af00      	add	r7, sp, #0
 80014d2:	6078      	str	r0, [r7, #4]
 80014d4:	460b      	mov	r3, r1
 80014d6:	807b      	strh	r3, [r7, #2]
 80014d8:	4613      	mov	r3, r2
 80014da:	707b      	strb	r3, [r7, #1]
  /* Check the parameters */
  assert_param(IS_GPIO_PIN(GPIO_Pin));
  assert_param(IS_GPIO_PIN_ACTION(PinState));

  if(PinState != GPIO_PIN_RESET)
 80014dc:	787b      	ldrb	r3, [r7, #1]
 80014de:	2b00      	cmp	r3, #0
 80014e0:	d003      	beq.n	80014ea <HAL_GPIO_WritePin+0x1e>
  {
    GPIOx->BSRR = GPIO_Pin;
 80014e2:	887a      	ldrh	r2, [r7, #2]
 80014e4:	687b      	ldr	r3, [r7, #4]
 80014e6:	619a      	str	r2, [r3, #24]
  }
  else
  {
    GPIOx->BSRR = (uint32_t)GPIO_Pin << 16U;
  }
}
 80014e8:	e003      	b.n	80014f2 <HAL_GPIO_WritePin+0x26>
    GPIOx->BSRR = (uint32_t)GPIO_Pin << 16U;
 80014ea:	887b      	ldrh	r3, [r7, #2]
 80014ec:	041a      	lsls	r2, r3, #16
 80014ee:	687b      	ldr	r3, [r7, #4]
 80014f0:	619a      	str	r2, [r3, #24]
}
 80014f2:	bf00      	nop
 80014f4:	370c      	adds	r7, #12
 80014f6:	46bd      	mov	sp, r7
 80014f8:	f85d 7b04 	ldr.w	r7, [sp], #4
 80014fc:	4770      	bx	lr

080014fe <HAL_HCD_Init>:
  * @brief  Initialize the host driver.
  * @param  hhcd HCD handle
  * @retval HAL status
  */
HAL_StatusTypeDef HAL_HCD_Init(HCD_HandleTypeDef *hhcd)
{
 80014fe:	b5f0      	push	{r4, r5, r6, r7, lr}
 8001500:	b08f      	sub	sp, #60	; 0x3c
 8001502:	af0a      	add	r7, sp, #40	; 0x28
 8001504:	6078      	str	r0, [r7, #4]
  USB_OTG_GlobalTypeDef *USBx;

  /* Check the HCD handle allocation */
  if (hhcd == NULL)
 8001506:	687b      	ldr	r3, [r7, #4]
 8001508:	2b00      	cmp	r3, #0
 800150a:	d101      	bne.n	8001510 <HAL_HCD_Init+0x12>
  {
    return HAL_ERROR;
 800150c:	2301      	movs	r3, #1
 800150e:	e054      	b.n	80015ba <HAL_HCD_Init+0xbc>
  }

  /* Check the parameters */
  assert_param(IS_HCD_ALL_INSTANCE(hhcd->Instance));

  USBx = hhcd->Instance;
 8001510:	687b      	ldr	r3, [r7, #4]
 8001512:	681b      	ldr	r3, [r3, #0]
 8001514:	60fb      	str	r3, [r7, #12]

  if (hhcd->State == HAL_HCD_STATE_RESET)
 8001516:	687b      	ldr	r3, [r7, #4]
 8001518:	f893 32f9 	ldrb.w	r3, [r3, #761]	; 0x2f9
 800151c:	b2db      	uxtb	r3, r3
 800151e:	2b00      	cmp	r3, #0
 8001520:	d106      	bne.n	8001530 <HAL_HCD_Init+0x32>
  {
    /* Allocate lock resource and initialize it */
    hhcd->Lock = HAL_UNLOCKED;
 8001522:	687b      	ldr	r3, [r7, #4]
 8001524:	2200      	movs	r2, #0
 8001526:	f883 22f8 	strb.w	r2, [r3, #760]	; 0x2f8

    /* Init the low level hardware */
    hhcd->MspInitCallback(hhcd);
#else
    /* Init the low level hardware : GPIO, CLOCK, NVIC... */
    HAL_HCD_MspInit(hhcd);
 800152a:	6878      	ldr	r0, [r7, #4]
 800152c:	f008 ffba 	bl	800a4a4 <HAL_HCD_MspInit>
#endif /* (USE_HAL_HCD_REGISTER_CALLBACKS) */
  }

  hhcd->State = HAL_HCD_STATE_BUSY;
 8001530:	687b      	ldr	r3, [r7, #4]
 8001532:	2203      	movs	r2, #3
 8001534:	f883 22f9 	strb.w	r2, [r3, #761]	; 0x2f9

  /* Disable DMA mode for FS instance */
  if ((USBx->CID & (0x1U << 8)) == 0U)
 8001538:	68fb      	ldr	r3, [r7, #12]
 800153a:	6bdb      	ldr	r3, [r3, #60]	; 0x3c
 800153c:	f403 7380 	and.w	r3, r3, #256	; 0x100
 8001540:	2b00      	cmp	r3, #0
 8001542:	d102      	bne.n	800154a <HAL_HCD_Init+0x4c>
  {
    hhcd->Init.dma_enable = 0U;
 8001544:	687b      	ldr	r3, [r7, #4]
 8001546:	2200      	movs	r2, #0
 8001548:	611a      	str	r2, [r3, #16]
  }

  /* Disable the Interrupts */
  __HAL_HCD_DISABLE(hhcd);
 800154a:	687b      	ldr	r3, [r7, #4]
 800154c:	681b      	ldr	r3, [r3, #0]
 800154e:	4618      	mov	r0, r3
 8001550:	f003 fc98 	bl	8004e84 <USB_DisableGlobalInt>

  /* Init the Core (common init.) */
  (void)USB_CoreInit(hhcd->Instance, hhcd->Init);
 8001554:	687b      	ldr	r3, [r7, #4]
 8001556:	681b      	ldr	r3, [r3, #0]
 8001558:	603b      	str	r3, [r7, #0]
 800155a:	687e      	ldr	r6, [r7, #4]
 800155c:	466d      	mov	r5, sp
 800155e:	f106 0410 	add.w	r4, r6, #16
 8001562:	cc0f      	ldmia	r4!, {r0, r1, r2, r3}
 8001564:	c50f      	stmia	r5!, {r0, r1, r2, r3}
 8001566:	cc0f      	ldmia	r4!, {r0, r1, r2, r3}
 8001568:	c50f      	stmia	r5!, {r0, r1, r2, r3}
 800156a:	e894 0003 	ldmia.w	r4, {r0, r1}
 800156e:	e885 0003 	stmia.w	r5, {r0, r1}
 8001572:	1d33      	adds	r3, r6, #4
 8001574:	cb0e      	ldmia	r3, {r1, r2, r3}
 8001576:	6838      	ldr	r0, [r7, #0]
 8001578:	f003 fc12 	bl	8004da0 <USB_CoreInit>

  /* Force Host Mode*/
  (void)USB_SetCurrentMode(hhcd->Instance, USB_HOST_MODE);
 800157c:	687b      	ldr	r3, [r7, #4]
 800157e:	681b      	ldr	r3, [r3, #0]
 8001580:	2101      	movs	r1, #1
 8001582:	4618      	mov	r0, r3
 8001584:	f003 fc8f 	bl	8004ea6 <USB_SetCurrentMode>

  /* Init Host */
  (void)USB_HostInit(hhcd->Instance, hhcd->Init);
 8001588:	687b      	ldr	r3, [r7, #4]
 800158a:	681b      	ldr	r3, [r3, #0]
 800158c:	603b      	str	r3, [r7, #0]
 800158e:	687e      	ldr	r6, [r7, #4]
 8001590:	466d      	mov	r5, sp
 8001592:	f106 0410 	add.w	r4, r6, #16
 8001596:	cc0f      	ldmia	r4!, {r0, r1, r2, r3}
 8001598:	c50f      	stmia	r5!, {r0, r1, r2, r3}
 800159a:	cc0f      	ldmia	r4!, {r0, r1, r2, r3}
 800159c:	c50f      	stmia	r5!, {r0, r1, r2, r3}
 800159e:	e894 0003 	ldmia.w	r4, {r0, r1}
 80015a2:	e885 0003 	stmia.w	r5, {r0, r1}
 80015a6:	1d33      	adds	r3, r6, #4
 80015a8:	cb0e      	ldmia	r3, {r1, r2, r3}
 80015aa:	6838      	ldr	r0, [r7, #0]
 80015ac:	f003 fda2 	bl	80050f4 <USB_HostInit>

  hhcd->State = HAL_HCD_STATE_READY;
 80015b0:	687b      	ldr	r3, [r7, #4]
 80015b2:	2201      	movs	r2, #1
 80015b4:	f883 22f9 	strb.w	r2, [r3, #761]	; 0x2f9

  return HAL_OK;
 80015b8:	2300      	movs	r3, #0
}
 80015ba:	4618      	mov	r0, r3
 80015bc:	3714      	adds	r7, #20
 80015be:	46bd      	mov	sp, r7
 80015c0:	bdf0      	pop	{r4, r5, r6, r7, pc}

080015c2 <HAL_HCD_HC_Init>:
                                  uint8_t epnum,
                                  uint8_t dev_address,
                                  uint8_t speed,
                                  uint8_t ep_type,
                                  uint16_t mps)
{
 80015c2:	b590      	push	{r4, r7, lr}
 80015c4:	b089      	sub	sp, #36	; 0x24
 80015c6:	af04      	add	r7, sp, #16
 80015c8:	6078      	str	r0, [r7, #4]
 80015ca:	4608      	mov	r0, r1
 80015cc:	4611      	mov	r1, r2
 80015ce:	461a      	mov	r2, r3
 80015d0:	4603      	mov	r3, r0
 80015d2:	70fb      	strb	r3, [r7, #3]
 80015d4:	460b      	mov	r3, r1
 80015d6:	70bb      	strb	r3, [r7, #2]
 80015d8:	4613      	mov	r3, r2
 80015da:	707b      	strb	r3, [r7, #1]
  HAL_StatusTypeDef status;

  __HAL_LOCK(hhcd);
 80015dc:	687b      	ldr	r3, [r7, #4]
 80015de:	f893 32f8 	ldrb.w	r3, [r3, #760]	; 0x2f8
 80015e2:	2b01      	cmp	r3, #1
 80015e4:	d101      	bne.n	80015ea <HAL_HCD_HC_Init+0x28>
 80015e6:	2302      	movs	r3, #2
 80015e8:	e076      	b.n	80016d8 <HAL_HCD_HC_Init+0x116>
 80015ea:	687b      	ldr	r3, [r7, #4]
 80015ec:	2201      	movs	r2, #1
 80015ee:	f883 22f8 	strb.w	r2, [r3, #760]	; 0x2f8
  hhcd->hc[ch_num].do_ping = 0U;
 80015f2:	78fb      	ldrb	r3, [r7, #3]
 80015f4:	687a      	ldr	r2, [r7, #4]
 80015f6:	212c      	movs	r1, #44	; 0x2c
 80015f8:	fb01 f303 	mul.w	r3, r1, r3
 80015fc:	4413      	add	r3, r2
 80015fe:	333d      	adds	r3, #61	; 0x3d
 8001600:	2200      	movs	r2, #0
 8001602:	701a      	strb	r2, [r3, #0]
  hhcd->hc[ch_num].dev_addr = dev_address;
 8001604:	78fb      	ldrb	r3, [r7, #3]
 8001606:	687a      	ldr	r2, [r7, #4]
 8001608:	212c      	movs	r1, #44	; 0x2c
 800160a:	fb01 f303 	mul.w	r3, r1, r3
 800160e:	4413      	add	r3, r2
 8001610:	3338      	adds	r3, #56	; 0x38
 8001612:	787a      	ldrb	r2, [r7, #1]
 8001614:	701a      	strb	r2, [r3, #0]
  hhcd->hc[ch_num].max_packet = mps;
 8001616:	78fb      	ldrb	r3, [r7, #3]
 8001618:	687a      	ldr	r2, [r7, #4]
 800161a:	212c      	movs	r1, #44	; 0x2c
 800161c:	fb01 f303 	mul.w	r3, r1, r3
 8001620:	4413      	add	r3, r2
 8001622:	3340      	adds	r3, #64	; 0x40
 8001624:	8d3a      	ldrh	r2, [r7, #40]	; 0x28
 8001626:	801a      	strh	r2, [r3, #0]
  hhcd->hc[ch_num].ch_num = ch_num;
 8001628:	78fb      	ldrb	r3, [r7, #3]
 800162a:	687a      	ldr	r2, [r7, #4]
 800162c:	212c      	movs	r1, #44	; 0x2c
 800162e:	fb01 f303 	mul.w	r3, r1, r3
 8001632:	4413      	add	r3, r2
 8001634:	3339      	adds	r3, #57	; 0x39
 8001636:	78fa      	ldrb	r2, [r7, #3]
 8001638:	701a      	strb	r2, [r3, #0]
  hhcd->hc[ch_num].ep_type = ep_type;
 800163a:	78fb      	ldrb	r3, [r7, #3]
 800163c:	687a      	ldr	r2, [r7, #4]
 800163e:	212c      	movs	r1, #44	; 0x2c
 8001640:	fb01 f303 	mul.w	r3, r1, r3
 8001644:	4413      	add	r3, r2
 8001646:	333f      	adds	r3, #63	; 0x3f
 8001648:	f897 2024 	ldrb.w	r2, [r7, #36]	; 0x24
 800164c:	701a      	strb	r2, [r3, #0]
  hhcd->hc[ch_num].ep_num = epnum & 0x7FU;
 800164e:	78fb      	ldrb	r3, [r7, #3]
 8001650:	78ba      	ldrb	r2, [r7, #2]
 8001652:	f002 027f 	and.w	r2, r2, #127	; 0x7f
 8001656:	b2d0      	uxtb	r0, r2
 8001658:	687a      	ldr	r2, [r7, #4]
 800165a:	212c      	movs	r1, #44	; 0x2c
 800165c:	fb01 f303 	mul.w	r3, r1, r3
 8001660:	4413      	add	r3, r2
 8001662:	333a      	adds	r3, #58	; 0x3a
 8001664:	4602      	mov	r2, r0
 8001666:	701a      	strb	r2, [r3, #0]

  if ((epnum & 0x80U) == 0x80U)
 8001668:	f997 3002 	ldrsb.w	r3, [r7, #2]
 800166c:	2b00      	cmp	r3, #0
 800166e:	da09      	bge.n	8001684 <HAL_HCD_HC_Init+0xc2>
  {
    hhcd->hc[ch_num].ep_is_in = 1U;
 8001670:	78fb      	ldrb	r3, [r7, #3]
 8001672:	687a      	ldr	r2, [r7, #4]
 8001674:	212c      	movs	r1, #44	; 0x2c
 8001676:	fb01 f303 	mul.w	r3, r1, r3
 800167a:	4413      	add	r3, r2
 800167c:	333b      	adds	r3, #59	; 0x3b
 800167e:	2201      	movs	r2, #1
 8001680:	701a      	strb	r2, [r3, #0]
 8001682:	e008      	b.n	8001696 <HAL_HCD_HC_Init+0xd4>
  }
  else
  {
    hhcd->hc[ch_num].ep_is_in = 0U;
 8001684:	78fb      	ldrb	r3, [r7, #3]
 8001686:	687a      	ldr	r2, [r7, #4]
 8001688:	212c      	movs	r1, #44	; 0x2c
 800168a:	fb01 f303 	mul.w	r3, r1, r3
 800168e:	4413      	add	r3, r2
 8001690:	333b      	adds	r3, #59	; 0x3b
 8001692:	2200      	movs	r2, #0
 8001694:	701a      	strb	r2, [r3, #0]
  }

  hhcd->hc[ch_num].speed = speed;
 8001696:	78fb      	ldrb	r3, [r7, #3]
 8001698:	687a      	ldr	r2, [r7, #4]
 800169a:	212c      	movs	r1, #44	; 0x2c
 800169c:	fb01 f303 	mul.w	r3, r1, r3
 80016a0:	4413      	add	r3, r2
 80016a2:	333c      	adds	r3, #60	; 0x3c
 80016a4:	f897 2020 	ldrb.w	r2, [r7, #32]
 80016a8:	701a      	strb	r2, [r3, #0]

  status =  USB_HC_Init(hhcd->Instance,
 80016aa:	687b      	ldr	r3, [r7, #4]
 80016ac:	6818      	ldr	r0, [r3, #0]
 80016ae:	787c      	ldrb	r4, [r7, #1]
 80016b0:	78ba      	ldrb	r2, [r7, #2]
 80016b2:	78f9      	ldrb	r1, [r7, #3]
 80016b4:	8d3b      	ldrh	r3, [r7, #40]	; 0x28
 80016b6:	9302      	str	r3, [sp, #8]
 80016b8:	f897 3024 	ldrb.w	r3, [r7, #36]	; 0x24
 80016bc:	9301      	str	r3, [sp, #4]
 80016be:	f897 3020 	ldrb.w	r3, [r7, #32]
 80016c2:	9300      	str	r3, [sp, #0]
 80016c4:	4623      	mov	r3, r4
 80016c6:	f003 fe97 	bl	80053f8 <USB_HC_Init>
 80016ca:	4603      	mov	r3, r0
 80016cc:	73fb      	strb	r3, [r7, #15]
                        epnum,
                        dev_address,
                        speed,
                        ep_type,
                        mps);
  __HAL_UNLOCK(hhcd);
 80016ce:	687b      	ldr	r3, [r7, #4]
 80016d0:	2200      	movs	r2, #0
 80016d2:	f883 22f8 	strb.w	r2, [r3, #760]	; 0x2f8

  return status;
 80016d6:	7bfb      	ldrb	r3, [r7, #15]
}
 80016d8:	4618      	mov	r0, r3
 80016da:	3714      	adds	r7, #20
 80016dc:	46bd      	mov	sp, r7
 80016de:	bd90      	pop	{r4, r7, pc}

080016e0 <HAL_HCD_HC_Halt>:
  * @param  ch_num Channel number.
  *         This parameter can be a value from 1 to 15
  * @retval HAL status
  */
HAL_StatusTypeDef HAL_HCD_HC_Halt(HCD_HandleTypeDef *hhcd, uint8_t ch_num)
{
 80016e0:	b580      	push	{r7, lr}
 80016e2:	b084      	sub	sp, #16
 80016e4:	af00      	add	r7, sp, #0
 80016e6:	6078      	str	r0, [r7, #4]
 80016e8:	460b      	mov	r3, r1
 80016ea:	70fb      	strb	r3, [r7, #3]
  HAL_StatusTypeDef status = HAL_OK;
 80016ec:	2300      	movs	r3, #0
 80016ee:	73fb      	strb	r3, [r7, #15]

  __HAL_LOCK(hhcd);
 80016f0:	687b      	ldr	r3, [r7, #4]
 80016f2:	f893 32f8 	ldrb.w	r3, [r3, #760]	; 0x2f8
 80016f6:	2b01      	cmp	r3, #1
 80016f8:	d101      	bne.n	80016fe <HAL_HCD_HC_Halt+0x1e>
 80016fa:	2302      	movs	r3, #2
 80016fc:	e00f      	b.n	800171e <HAL_HCD_HC_Halt+0x3e>
 80016fe:	687b      	ldr	r3, [r7, #4]
 8001700:	2201      	movs	r2, #1
 8001702:	f883 22f8 	strb.w	r2, [r3, #760]	; 0x2f8
  (void)USB_HC_Halt(hhcd->Instance, (uint8_t)ch_num);
 8001706:	687b      	ldr	r3, [r7, #4]
 8001708:	681b      	ldr	r3, [r3, #0]
 800170a:	78fa      	ldrb	r2, [r7, #3]
 800170c:	4611      	mov	r1, r2
 800170e:	4618      	mov	r0, r3
 8001710:	f004 f8d3 	bl	80058ba <USB_HC_Halt>
  __HAL_UNLOCK(hhcd);
 8001714:	687b      	ldr	r3, [r7, #4]
 8001716:	2200      	movs	r2, #0
 8001718:	f883 22f8 	strb.w	r2, [r3, #760]	; 0x2f8

  return status;
 800171c:	7bfb      	ldrb	r3, [r7, #15]
}
 800171e:	4618      	mov	r0, r3
 8001720:	3710      	adds	r7, #16
 8001722:	46bd      	mov	sp, r7
 8001724:	bd80      	pop	{r7, pc}
	...

08001728 <HAL_HCD_HC_SubmitRequest>:
                                           uint8_t ep_type,
                                           uint8_t token,
                                           uint8_t *pbuff,
                                           uint16_t length,
                                           uint8_t do_ping)
{
 8001728:	b580      	push	{r7, lr}
 800172a:	b082      	sub	sp, #8
 800172c:	af00      	add	r7, sp, #0
 800172e:	6078      	str	r0, [r7, #4]
 8001730:	4608      	mov	r0, r1
 8001732:	4611      	mov	r1, r2
 8001734:	461a      	mov	r2, r3
 8001736:	4603      	mov	r3, r0
 8001738:	70fb      	strb	r3, [r7, #3]
 800173a:	460b      	mov	r3, r1
 800173c:	70bb      	strb	r3, [r7, #2]
 800173e:	4613      	mov	r3, r2
 8001740:	707b      	strb	r3, [r7, #1]
  hhcd->hc[ch_num].ep_is_in = direction;
 8001742:	78fb      	ldrb	r3, [r7, #3]
 8001744:	687a      	ldr	r2, [r7, #4]
 8001746:	212c      	movs	r1, #44	; 0x2c
 8001748:	fb01 f303 	mul.w	r3, r1, r3
 800174c:	4413      	add	r3, r2
 800174e:	333b      	adds	r3, #59	; 0x3b
 8001750:	78ba      	ldrb	r2, [r7, #2]
 8001752:	701a      	strb	r2, [r3, #0]
  hhcd->hc[ch_num].ep_type  = ep_type;
 8001754:	78fb      	ldrb	r3, [r7, #3]
 8001756:	687a      	ldr	r2, [r7, #4]
 8001758:	212c      	movs	r1, #44	; 0x2c
 800175a:	fb01 f303 	mul.w	r3, r1, r3
 800175e:	4413      	add	r3, r2
 8001760:	333f      	adds	r3, #63	; 0x3f
 8001762:	787a      	ldrb	r2, [r7, #1]
 8001764:	701a      	strb	r2, [r3, #0]

  if (token == 0U)
 8001766:	7c3b      	ldrb	r3, [r7, #16]
 8001768:	2b00      	cmp	r3, #0
 800176a:	d112      	bne.n	8001792 <HAL_HCD_HC_SubmitRequest+0x6a>
  {
    hhcd->hc[ch_num].data_pid = HC_PID_SETUP;
 800176c:	78fb      	ldrb	r3, [r7, #3]
 800176e:	687a      	ldr	r2, [r7, #4]
 8001770:	212c      	movs	r1, #44	; 0x2c
 8001772:	fb01 f303 	mul.w	r3, r1, r3
 8001776:	4413      	add	r3, r2
 8001778:	3342      	adds	r3, #66	; 0x42
 800177a:	2203      	movs	r2, #3
 800177c:	701a      	strb	r2, [r3, #0]
    hhcd->hc[ch_num].do_ping = do_ping;
 800177e:	78fb      	ldrb	r3, [r7, #3]
 8001780:	687a      	ldr	r2, [r7, #4]
 8001782:	212c      	movs	r1, #44	; 0x2c
 8001784:	fb01 f303 	mul.w	r3, r1, r3
 8001788:	4413      	add	r3, r2
 800178a:	333d      	adds	r3, #61	; 0x3d
 800178c:	7f3a      	ldrb	r2, [r7, #28]
 800178e:	701a      	strb	r2, [r3, #0]
 8001790:	e008      	b.n	80017a4 <HAL_HCD_HC_SubmitRequest+0x7c>
  }
  else
  {
    hhcd->hc[ch_num].data_pid = HC_PID_DATA1;
 8001792:	78fb      	ldrb	r3, [r7, #3]
 8001794:	687a      	ldr	r2, [r7, #4]
 8001796:	212c      	movs	r1, #44	; 0x2c
 8001798:	fb01 f303 	mul.w	r3, r1, r3
 800179c:	4413      	add	r3, r2
 800179e:	3342      	adds	r3, #66	; 0x42
 80017a0:	2202      	movs	r2, #2
 80017a2:	701a      	strb	r2, [r3, #0]
  }

  /* Manage Data Toggle */
  switch (ep_type)
 80017a4:	787b      	ldrb	r3, [r7, #1]
 80017a6:	2b03      	cmp	r3, #3
 80017a8:	f200 80c6 	bhi.w	8001938 <HAL_HCD_HC_SubmitRequest+0x210>
 80017ac:	a201      	add	r2, pc, #4	; (adr r2, 80017b4 <HAL_HCD_HC_SubmitRequest+0x8c>)
 80017ae:	f852 f023 	ldr.w	pc, [r2, r3, lsl #2]
 80017b2:	bf00      	nop
 80017b4:	080017c5 	.word	0x080017c5
 80017b8:	08001925 	.word	0x08001925
 80017bc:	08001829 	.word	0x08001829
 80017c0:	080018a7 	.word	0x080018a7
  {
    case EP_TYPE_CTRL:
      if ((token == 1U) && (direction == 0U)) /*send data */
 80017c4:	7c3b      	ldrb	r3, [r7, #16]
 80017c6:	2b01      	cmp	r3, #1
 80017c8:	f040 80b8 	bne.w	800193c <HAL_HCD_HC_SubmitRequest+0x214>
 80017cc:	78bb      	ldrb	r3, [r7, #2]
 80017ce:	2b00      	cmp	r3, #0
 80017d0:	f040 80b4 	bne.w	800193c <HAL_HCD_HC_SubmitRequest+0x214>
      {
        if (length == 0U)
 80017d4:	8b3b      	ldrh	r3, [r7, #24]
 80017d6:	2b00      	cmp	r3, #0
 80017d8:	d108      	bne.n	80017ec <HAL_HCD_HC_SubmitRequest+0xc4>
        {
          /* For Status OUT stage, Length==0, Status Out PID = 1 */
          hhcd->hc[ch_num].toggle_out = 1U;
 80017da:	78fb      	ldrb	r3, [r7, #3]
 80017dc:	687a      	ldr	r2, [r7, #4]
 80017de:	212c      	movs	r1, #44	; 0x2c
 80017e0:	fb01 f303 	mul.w	r3, r1, r3
 80017e4:	4413      	add	r3, r2
 80017e6:	3355      	adds	r3, #85	; 0x55
 80017e8:	2201      	movs	r2, #1
 80017ea:	701a      	strb	r2, [r3, #0]
        }

        /* Set the Data Toggle bit as per the Flag */
        if (hhcd->hc[ch_num].toggle_out == 0U)
 80017ec:	78fb      	ldrb	r3, [r7, #3]
 80017ee:	687a      	ldr	r2, [r7, #4]
 80017f0:	212c      	movs	r1, #44	; 0x2c
 80017f2:	fb01 f303 	mul.w	r3, r1, r3
 80017f6:	4413      	add	r3, r2
 80017f8:	3355      	adds	r3, #85	; 0x55
 80017fa:	781b      	ldrb	r3, [r3, #0]
 80017fc:	2b00      	cmp	r3, #0
 80017fe:	d109      	bne.n	8001814 <HAL_HCD_HC_SubmitRequest+0xec>
        {
          /* Put the PID 0 */
          hhcd->hc[ch_num].data_pid = HC_PID_DATA0;
 8001800:	78fb      	ldrb	r3, [r7, #3]
 8001802:	687a      	ldr	r2, [r7, #4]
 8001804:	212c      	movs	r1, #44	; 0x2c
 8001806:	fb01 f303 	mul.w	r3, r1, r3
 800180a:	4413      	add	r3, r2
 800180c:	3342      	adds	r3, #66	; 0x42
 800180e:	2200      	movs	r2, #0
 8001810:	701a      	strb	r2, [r3, #0]
        {
          /* Put the PID 1 */
          hhcd->hc[ch_num].data_pid = HC_PID_DATA1;
        }
      }
      break;
 8001812:	e093      	b.n	800193c <HAL_HCD_HC_SubmitRequest+0x214>
          hhcd->hc[ch_num].data_pid = HC_PID_DATA1;
 8001814:	78fb      	ldrb	r3, [r7, #3]
 8001816:	687a      	ldr	r2, [r7, #4]
 8001818:	212c      	movs	r1, #44	; 0x2c
 800181a:	fb01 f303 	mul.w	r3, r1, r3
 800181e:	4413      	add	r3, r2
 8001820:	3342      	adds	r3, #66	; 0x42
 8001822:	2202      	movs	r2, #2
 8001824:	701a      	strb	r2, [r3, #0]
      break;
 8001826:	e089      	b.n	800193c <HAL_HCD_HC_SubmitRequest+0x214>

    case EP_TYPE_BULK:
      if (direction == 0U)
 8001828:	78bb      	ldrb	r3, [r7, #2]
 800182a:	2b00      	cmp	r3, #0
 800182c:	d11d      	bne.n	800186a <HAL_HCD_HC_SubmitRequest+0x142>
      {
        /* Set the Data Toggle bit as per the Flag */
        if (hhcd->hc[ch_num].toggle_out == 0U)
 800182e:	78fb      	ldrb	r3, [r7, #3]
 8001830:	687a      	ldr	r2, [r7, #4]
 8001832:	212c      	movs	r1, #44	; 0x2c
 8001834:	fb01 f303 	mul.w	r3, r1, r3
 8001838:	4413      	add	r3, r2
 800183a:	3355      	adds	r3, #85	; 0x55
 800183c:	781b      	ldrb	r3, [r3, #0]
 800183e:	2b00      	cmp	r3, #0
 8001840:	d109      	bne.n	8001856 <HAL_HCD_HC_SubmitRequest+0x12e>
        {
          /* Put the PID 0 */
          hhcd->hc[ch_num].data_pid = HC_PID_DATA0;
 8001842:	78fb      	ldrb	r3, [r7, #3]
 8001844:	687a      	ldr	r2, [r7, #4]
 8001846:	212c      	movs	r1, #44	; 0x2c
 8001848:	fb01 f303 	mul.w	r3, r1, r3
 800184c:	4413      	add	r3, r2
 800184e:	3342      	adds	r3, #66	; 0x42
 8001850:	2200      	movs	r2, #0
 8001852:	701a      	strb	r2, [r3, #0]
        {
          hhcd->hc[ch_num].data_pid = HC_PID_DATA1;
        }
      }

      break;
 8001854:	e073      	b.n	800193e <HAL_HCD_HC_SubmitRequest+0x216>
          hhcd->hc[ch_num].data_pid = HC_PID_DATA1;
 8001856:	78fb      	ldrb	r3, [r7, #3]
 8001858:	687a      	ldr	r2, [r7, #4]
 800185a:	212c      	movs	r1, #44	; 0x2c
 800185c:	fb01 f303 	mul.w	r3, r1, r3
 8001860:	4413      	add	r3, r2
 8001862:	3342      	adds	r3, #66	; 0x42
 8001864:	2202      	movs	r2, #2
 8001866:	701a      	strb	r2, [r3, #0]
      break;
 8001868:	e069      	b.n	800193e <HAL_HCD_HC_SubmitRequest+0x216>
        if (hhcd->hc[ch_num].toggle_in == 0U)
 800186a:	78fb      	ldrb	r3, [r7, #3]
 800186c:	687a      	ldr	r2, [r7, #4]
 800186e:	212c      	movs	r1, #44	; 0x2c
 8001870:	fb01 f303 	mul.w	r3, r1, r3
 8001874:	4413      	add	r3, r2
 8001876:	3354      	adds	r3, #84	; 0x54
 8001878:	781b      	ldrb	r3, [r3, #0]
 800187a:	2b00      	cmp	r3, #0
 800187c:	d109      	bne.n	8001892 <HAL_HCD_HC_SubmitRequest+0x16a>
          hhcd->hc[ch_num].data_pid = HC_PID_DATA0;
 800187e:	78fb      	ldrb	r3, [r7, #3]
 8001880:	687a      	ldr	r2, [r7, #4]
 8001882:	212c      	movs	r1, #44	; 0x2c
 8001884:	fb01 f303 	mul.w	r3, r1, r3
 8001888:	4413      	add	r3, r2
 800188a:	3342      	adds	r3, #66	; 0x42
 800188c:	2200      	movs	r2, #0
 800188e:	701a      	strb	r2, [r3, #0]
      break;
 8001890:	e055      	b.n	800193e <HAL_HCD_HC_SubmitRequest+0x216>
          hhcd->hc[ch_num].data_pid = HC_PID_DATA1;
 8001892:	78fb      	ldrb	r3, [r7, #3]
 8001894:	687a      	ldr	r2, [r7, #4]
 8001896:	212c      	movs	r1, #44	; 0x2c
 8001898:	fb01 f303 	mul.w	r3, r1, r3
 800189c:	4413      	add	r3, r2
 800189e:	3342      	adds	r3, #66	; 0x42
 80018a0:	2202      	movs	r2, #2
 80018a2:	701a      	strb	r2, [r3, #0]
      break;
 80018a4:	e04b      	b.n	800193e <HAL_HCD_HC_SubmitRequest+0x216>
    case EP_TYPE_INTR:
      if (direction == 0U)
 80018a6:	78bb      	ldrb	r3, [r7, #2]
 80018a8:	2b00      	cmp	r3, #0
 80018aa:	d11d      	bne.n	80018e8 <HAL_HCD_HC_SubmitRequest+0x1c0>
      {
        /* Set the Data Toggle bit as per the Flag */
        if (hhcd->hc[ch_num].toggle_out == 0U)
 80018ac:	78fb      	ldrb	r3, [r7, #3]
 80018ae:	687a      	ldr	r2, [r7, #4]
 80018b0:	212c      	movs	r1, #44	; 0x2c
 80018b2:	fb01 f303 	mul.w	r3, r1, r3
 80018b6:	4413      	add	r3, r2
 80018b8:	3355      	adds	r3, #85	; 0x55
 80018ba:	781b      	ldrb	r3, [r3, #0]
 80018bc:	2b00      	cmp	r3, #0
 80018be:	d109      	bne.n	80018d4 <HAL_HCD_HC_SubmitRequest+0x1ac>
        {
          /* Put the PID 0 */
          hhcd->hc[ch_num].data_pid = HC_PID_DATA0;
 80018c0:	78fb      	ldrb	r3, [r7, #3]
 80018c2:	687a      	ldr	r2, [r7, #4]
 80018c4:	212c      	movs	r1, #44	; 0x2c
 80018c6:	fb01 f303 	mul.w	r3, r1, r3
 80018ca:	4413      	add	r3, r2
 80018cc:	3342      	adds	r3, #66	; 0x42
 80018ce:	2200      	movs	r2, #0
 80018d0:	701a      	strb	r2, [r3, #0]
        else
        {
          hhcd->hc[ch_num].data_pid = HC_PID_DATA1;
        }
      }
      break;
 80018d2:	e034      	b.n	800193e <HAL_HCD_HC_SubmitRequest+0x216>
          hhcd->hc[ch_num].data_pid = HC_PID_DATA1;
 80018d4:	78fb      	ldrb	r3, [r7, #3]
 80018d6:	687a      	ldr	r2, [r7, #4]
 80018d8:	212c      	movs	r1, #44	; 0x2c
 80018da:	fb01 f303 	mul.w	r3, r1, r3
 80018de:	4413      	add	r3, r2
 80018e0:	3342      	adds	r3, #66	; 0x42
 80018e2:	2202      	movs	r2, #2
 80018e4:	701a      	strb	r2, [r3, #0]
      break;
 80018e6:	e02a      	b.n	800193e <HAL_HCD_HC_SubmitRequest+0x216>
        if (hhcd->hc[ch_num].toggle_in == 0U)
 80018e8:	78fb      	ldrb	r3, [r7, #3]
 80018ea:	687a      	ldr	r2, [r7, #4]
 80018ec:	212c      	movs	r1, #44	; 0x2c
 80018ee:	fb01 f303 	mul.w	r3, r1, r3
 80018f2:	4413      	add	r3, r2
 80018f4:	3354      	adds	r3, #84	; 0x54
 80018f6:	781b      	ldrb	r3, [r3, #0]
 80018f8:	2b00      	cmp	r3, #0
 80018fa:	d109      	bne.n	8001910 <HAL_HCD_HC_SubmitRequest+0x1e8>
          hhcd->hc[ch_num].data_pid = HC_PID_DATA0;
 80018fc:	78fb      	ldrb	r3, [r7, #3]
 80018fe:	687a      	ldr	r2, [r7, #4]
 8001900:	212c      	movs	r1, #44	; 0x2c
 8001902:	fb01 f303 	mul.w	r3, r1, r3
 8001906:	4413      	add	r3, r2
 8001908:	3342      	adds	r3, #66	; 0x42
 800190a:	2200      	movs	r2, #0
 800190c:	701a      	strb	r2, [r3, #0]
      break;
 800190e:	e016      	b.n	800193e <HAL_HCD_HC_SubmitRequest+0x216>
          hhcd->hc[ch_num].data_pid = HC_PID_DATA1;
 8001910:	78fb      	ldrb	r3, [r7, #3]
 8001912:	687a      	ldr	r2, [r7, #4]
 8001914:	212c      	movs	r1, #44	; 0x2c
 8001916:	fb01 f303 	mul.w	r3, r1, r3
 800191a:	4413      	add	r3, r2
 800191c:	3342      	adds	r3, #66	; 0x42
 800191e:	2202      	movs	r2, #2
 8001920:	701a      	strb	r2, [r3, #0]
      break;
 8001922:	e00c      	b.n	800193e <HAL_HCD_HC_SubmitRequest+0x216>

    case EP_TYPE_ISOC:
      hhcd->hc[ch_num].data_pid = HC_PID_DATA0;
 8001924:	78fb      	ldrb	r3, [r7, #3]
 8001926:	687a      	ldr	r2, [r7, #4]
 8001928:	212c      	movs	r1, #44	; 0x2c
 800192a:	fb01 f303 	mul.w	r3, r1, r3
 800192e:	4413      	add	r3, r2
 8001930:	3342      	adds	r3, #66	; 0x42
 8001932:	2200      	movs	r2, #0
 8001934:	701a      	strb	r2, [r3, #0]
      break;
 8001936:	e002      	b.n	800193e <HAL_HCD_HC_SubmitRequest+0x216>

    default:
      break;
 8001938:	bf00      	nop
 800193a:	e000      	b.n	800193e <HAL_HCD_HC_SubmitRequest+0x216>
      break;
 800193c:	bf00      	nop
  }

  hhcd->hc[ch_num].xfer_buff = pbuff;
 800193e:	78fb      	ldrb	r3, [r7, #3]
 8001940:	687a      	ldr	r2, [r7, #4]
 8001942:	212c      	movs	r1, #44	; 0x2c
 8001944:	fb01 f303 	mul.w	r3, r1, r3
 8001948:	4413      	add	r3, r2
 800194a:	3344      	adds	r3, #68	; 0x44
 800194c:	697a      	ldr	r2, [r7, #20]
 800194e:	601a      	str	r2, [r3, #0]
  hhcd->hc[ch_num].xfer_len  = length;
 8001950:	78fb      	ldrb	r3, [r7, #3]
 8001952:	8b3a      	ldrh	r2, [r7, #24]
 8001954:	6879      	ldr	r1, [r7, #4]
 8001956:	202c      	movs	r0, #44	; 0x2c
 8001958:	fb00 f303 	mul.w	r3, r0, r3
 800195c:	440b      	add	r3, r1
 800195e:	334c      	adds	r3, #76	; 0x4c
 8001960:	601a      	str	r2, [r3, #0]
  hhcd->hc[ch_num].urb_state = URB_IDLE;
 8001962:	78fb      	ldrb	r3, [r7, #3]
 8001964:	687a      	ldr	r2, [r7, #4]
 8001966:	212c      	movs	r1, #44	; 0x2c
 8001968:	fb01 f303 	mul.w	r3, r1, r3
 800196c:	4413      	add	r3, r2
 800196e:	3360      	adds	r3, #96	; 0x60
 8001970:	2200      	movs	r2, #0
 8001972:	701a      	strb	r2, [r3, #0]
  hhcd->hc[ch_num].xfer_count = 0U;
 8001974:	78fb      	ldrb	r3, [r7, #3]
 8001976:	687a      	ldr	r2, [r7, #4]
 8001978:	212c      	movs	r1, #44	; 0x2c
 800197a:	fb01 f303 	mul.w	r3, r1, r3
 800197e:	4413      	add	r3, r2
 8001980:	3350      	adds	r3, #80	; 0x50
 8001982:	2200      	movs	r2, #0
 8001984:	601a      	str	r2, [r3, #0]
  hhcd->hc[ch_num].ch_num = ch_num;
 8001986:	78fb      	ldrb	r3, [r7, #3]
 8001988:	687a      	ldr	r2, [r7, #4]
 800198a:	212c      	movs	r1, #44	; 0x2c
 800198c:	fb01 f303 	mul.w	r3, r1, r3
 8001990:	4413      	add	r3, r2
 8001992:	3339      	adds	r3, #57	; 0x39
 8001994:	78fa      	ldrb	r2, [r7, #3]
 8001996:	701a      	strb	r2, [r3, #0]
  hhcd->hc[ch_num].state = HC_IDLE;
 8001998:	78fb      	ldrb	r3, [r7, #3]
 800199a:	687a      	ldr	r2, [r7, #4]
 800199c:	212c      	movs	r1, #44	; 0x2c
 800199e:	fb01 f303 	mul.w	r3, r1, r3
 80019a2:	4413      	add	r3, r2
 80019a4:	3361      	adds	r3, #97	; 0x61
 80019a6:	2200      	movs	r2, #0
 80019a8:	701a      	strb	r2, [r3, #0]

  return USB_HC_StartXfer(hhcd->Instance, &hhcd->hc[ch_num], (uint8_t)hhcd->Init.dma_enable);
 80019aa:	687b      	ldr	r3, [r7, #4]
 80019ac:	6818      	ldr	r0, [r3, #0]
 80019ae:	78fb      	ldrb	r3, [r7, #3]
 80019b0:	222c      	movs	r2, #44	; 0x2c
 80019b2:	fb02 f303 	mul.w	r3, r2, r3
 80019b6:	3338      	adds	r3, #56	; 0x38
 80019b8:	687a      	ldr	r2, [r7, #4]
 80019ba:	18d1      	adds	r1, r2, r3
 80019bc:	687b      	ldr	r3, [r7, #4]
 80019be:	691b      	ldr	r3, [r3, #16]
 80019c0:	b2db      	uxtb	r3, r3
 80019c2:	461a      	mov	r2, r3
 80019c4:	f003 fe26 	bl	8005614 <USB_HC_StartXfer>
 80019c8:	4603      	mov	r3, r0
}
 80019ca:	4618      	mov	r0, r3
 80019cc:	3708      	adds	r7, #8
 80019ce:	46bd      	mov	sp, r7
 80019d0:	bd80      	pop	{r7, pc}
 80019d2:	bf00      	nop

080019d4 <HAL_HCD_IRQHandler>:
  * @brief  Handle HCD interrupt request.
  * @param  hhcd HCD handle
  * @retval None
  */
void HAL_HCD_IRQHandler(HCD_HandleTypeDef *hhcd)
{
 80019d4:	b580      	push	{r7, lr}
 80019d6:	b086      	sub	sp, #24
 80019d8:	af00      	add	r7, sp, #0
 80019da:	6078      	str	r0, [r7, #4]
  USB_OTG_GlobalTypeDef *USBx = hhcd->Instance;
 80019dc:	687b      	ldr	r3, [r7, #4]
 80019de:	681b      	ldr	r3, [r3, #0]
 80019e0:	613b      	str	r3, [r7, #16]
  uint32_t USBx_BASE = (uint32_t)USBx;
 80019e2:	693b      	ldr	r3, [r7, #16]
 80019e4:	60fb      	str	r3, [r7, #12]
  uint32_t i, interrupt;

  /* Ensure that we are in device mode */
  if (USB_GetMode(hhcd->Instance) == USB_OTG_MODE_HOST)
 80019e6:	687b      	ldr	r3, [r7, #4]
 80019e8:	681b      	ldr	r3, [r3, #0]
 80019ea:	4618      	mov	r0, r3
 80019ec:	f003 fb3f 	bl	800506e <USB_GetMode>
 80019f0:	4603      	mov	r3, r0
 80019f2:	2b01      	cmp	r3, #1
 80019f4:	f040 80ef 	bne.w	8001bd6 <HAL_HCD_IRQHandler+0x202>
  {
    /* Avoid spurious interrupt */
    if (__HAL_HCD_IS_INVALID_INTERRUPT(hhcd))
 80019f8:	687b      	ldr	r3, [r7, #4]
 80019fa:	681b      	ldr	r3, [r3, #0]
 80019fc:	4618      	mov	r0, r3
 80019fe:	f003 fb23 	bl	8005048 <USB_ReadInterrupts>
 8001a02:	4603      	mov	r3, r0
 8001a04:	2b00      	cmp	r3, #0
 8001a06:	f000 80e5 	beq.w	8001bd4 <HAL_HCD_IRQHandler+0x200>
    {
      return;
    }

    if (__HAL_HCD_GET_FLAG(hhcd, USB_OTG_GINTSTS_PXFR_INCOMPISOOUT))
 8001a0a:	687b      	ldr	r3, [r7, #4]
 8001a0c:	681b      	ldr	r3, [r3, #0]
 8001a0e:	4618      	mov	r0, r3
 8001a10:	f003 fb1a 	bl	8005048 <USB_ReadInterrupts>
 8001a14:	4603      	mov	r3, r0
 8001a16:	f403 1300 	and.w	r3, r3, #2097152	; 0x200000
 8001a1a:	f5b3 1f00 	cmp.w	r3, #2097152	; 0x200000
 8001a1e:	d104      	bne.n	8001a2a <HAL_HCD_IRQHandler+0x56>
    {
      /* Incorrect mode, acknowledge the interrupt */
      __HAL_HCD_CLEAR_FLAG(hhcd, USB_OTG_GINTSTS_PXFR_INCOMPISOOUT);
 8001a20:	687b      	ldr	r3, [r7, #4]
 8001a22:	681b      	ldr	r3, [r3, #0]
 8001a24:	f44f 1200 	mov.w	r2, #2097152	; 0x200000
 8001a28:	615a      	str	r2, [r3, #20]
    }

    if (__HAL_HCD_GET_FLAG(hhcd, USB_OTG_GINTSTS_IISOIXFR))
 8001a2a:	687b      	ldr	r3, [r7, #4]
 8001a2c:	681b      	ldr	r3, [r3, #0]
 8001a2e:	4618      	mov	r0, r3
 8001a30:	f003 fb0a 	bl	8005048 <USB_ReadInterrupts>
 8001a34:	4603      	mov	r3, r0
 8001a36:	f403 1380 	and.w	r3, r3, #1048576	; 0x100000
 8001a3a:	f5b3 1f80 	cmp.w	r3, #1048576	; 0x100000
 8001a3e:	d104      	bne.n	8001a4a <HAL_HCD_IRQHandler+0x76>
    {
      /* Incorrect mode, acknowledge the interrupt */
      __HAL_HCD_CLEAR_FLAG(hhcd, USB_OTG_GINTSTS_IISOIXFR);
 8001a40:	687b      	ldr	r3, [r7, #4]
 8001a42:	681b      	ldr	r3, [r3, #0]
 8001a44:	f44f 1280 	mov.w	r2, #1048576	; 0x100000
 8001a48:	615a      	str	r2, [r3, #20]
    }

    if (__HAL_HCD_GET_FLAG(hhcd, USB_OTG_GINTSTS_PTXFE))
 8001a4a:	687b      	ldr	r3, [r7, #4]
 8001a4c:	681b      	ldr	r3, [r3, #0]
 8001a4e:	4618      	mov	r0, r3
 8001a50:	f003 fafa 	bl	8005048 <USB_ReadInterrupts>
 8001a54:	4603      	mov	r3, r0
 8001a56:	f003 6380 	and.w	r3, r3, #67108864	; 0x4000000
 8001a5a:	f1b3 6f80 	cmp.w	r3, #67108864	; 0x4000000
 8001a5e:	d104      	bne.n	8001a6a <HAL_HCD_IRQHandler+0x96>
    {
      /* Incorrect mode, acknowledge the interrupt */
      __HAL_HCD_CLEAR_FLAG(hhcd, USB_OTG_GINTSTS_PTXFE);
 8001a60:	687b      	ldr	r3, [r7, #4]
 8001a62:	681b      	ldr	r3, [r3, #0]
 8001a64:	f04f 6280 	mov.w	r2, #67108864	; 0x4000000
 8001a68:	615a      	str	r2, [r3, #20]
    }

    if (__HAL_HCD_GET_FLAG(hhcd, USB_OTG_GINTSTS_MMIS))
 8001a6a:	687b      	ldr	r3, [r7, #4]
 8001a6c:	681b      	ldr	r3, [r3, #0]
 8001a6e:	4618      	mov	r0, r3
 8001a70:	f003 faea 	bl	8005048 <USB_ReadInterrupts>
 8001a74:	4603      	mov	r3, r0
 8001a76:	f003 0302 	and.w	r3, r3, #2
 8001a7a:	2b02      	cmp	r3, #2
 8001a7c:	d103      	bne.n	8001a86 <HAL_HCD_IRQHandler+0xb2>
    {
      /* Incorrect mode, acknowledge the interrupt */
      __HAL_HCD_CLEAR_FLAG(hhcd, USB_OTG_GINTSTS_MMIS);
 8001a7e:	687b      	ldr	r3, [r7, #4]
 8001a80:	681b      	ldr	r3, [r3, #0]
 8001a82:	2202      	movs	r2, #2
 8001a84:	615a      	str	r2, [r3, #20]
    }

    /* Handle Host Disconnect Interrupts */
    if (__HAL_HCD_GET_FLAG(hhcd, USB_OTG_GINTSTS_DISCINT))
 8001a86:	687b      	ldr	r3, [r7, #4]
 8001a88:	681b      	ldr	r3, [r3, #0]
 8001a8a:	4618      	mov	r0, r3
 8001a8c:	f003 fadc 	bl	8005048 <USB_ReadInterrupts>
 8001a90:	4603      	mov	r3, r0
 8001a92:	f003 5300 	and.w	r3, r3, #536870912	; 0x20000000
 8001a96:	f1b3 5f00 	cmp.w	r3, #536870912	; 0x20000000
 8001a9a:	d115      	bne.n	8001ac8 <HAL_HCD_IRQHandler+0xf4>
    {
      __HAL_HCD_CLEAR_FLAG(hhcd, USB_OTG_GINTSTS_DISCINT);
 8001a9c:	687b      	ldr	r3, [r7, #4]
 8001a9e:	681b      	ldr	r3, [r3, #0]
 8001aa0:	f04f 5200 	mov.w	r2, #536870912	; 0x20000000
 8001aa4:	615a      	str	r2, [r3, #20]

      if ((USBx_HPRT0 & USB_OTG_HPRT_PCSTS) == 0U)
 8001aa6:	68fb      	ldr	r3, [r7, #12]
 8001aa8:	f503 6388 	add.w	r3, r3, #1088	; 0x440
 8001aac:	681b      	ldr	r3, [r3, #0]
 8001aae:	f003 0301 	and.w	r3, r3, #1
 8001ab2:	2b00      	cmp	r3, #0
 8001ab4:	d108      	bne.n	8001ac8 <HAL_HCD_IRQHandler+0xf4>
      {
        /* Handle Host Port Disconnect Interrupt */
#if (USE_HAL_HCD_REGISTER_CALLBACKS == 1U)
        hhcd->DisconnectCallback(hhcd);
#else
        HAL_HCD_Disconnect_Callback(hhcd);
 8001ab6:	6878      	ldr	r0, [r7, #4]
 8001ab8:	f008 fd72 	bl	800a5a0 <HAL_HCD_Disconnect_Callback>
#endif /* USE_HAL_HCD_REGISTER_CALLBACKS */

        (void)USB_InitFSLSPClkSel(hhcd->Instance, HCFG_48_MHZ);
 8001abc:	687b      	ldr	r3, [r7, #4]
 8001abe:	681b      	ldr	r3, [r3, #0]
 8001ac0:	2101      	movs	r1, #1
 8001ac2:	4618      	mov	r0, r3
 8001ac4:	f003 fbd2 	bl	800526c <USB_InitFSLSPClkSel>
      }
    }

    /* Handle Host Port Interrupts */
    if (__HAL_HCD_GET_FLAG(hhcd, USB_OTG_GINTSTS_HPRTINT))
 8001ac8:	687b      	ldr	r3, [r7, #4]
 8001aca:	681b      	ldr	r3, [r3, #0]
 8001acc:	4618      	mov	r0, r3
 8001ace:	f003 fabb 	bl	8005048 <USB_ReadInterrupts>
 8001ad2:	4603      	mov	r3, r0
 8001ad4:	f003 7380 	and.w	r3, r3, #16777216	; 0x1000000
 8001ad8:	f1b3 7f80 	cmp.w	r3, #16777216	; 0x1000000
 8001adc:	d102      	bne.n	8001ae4 <HAL_HCD_IRQHandler+0x110>
    {
      HCD_Port_IRQHandler(hhcd);
 8001ade:	6878      	ldr	r0, [r7, #4]
 8001ae0:	f001 f9ff 	bl	8002ee2 <HCD_Port_IRQHandler>
    }

    /* Handle Host SOF Interrupt */
    if (__HAL_HCD_GET_FLAG(hhcd, USB_OTG_GINTSTS_SOF))
 8001ae4:	687b      	ldr	r3, [r7, #4]
 8001ae6:	681b      	ldr	r3, [r3, #0]
 8001ae8:	4618      	mov	r0, r3
 8001aea:	f003 faad 	bl	8005048 <USB_ReadInterrupts>
 8001aee:	4603      	mov	r3, r0
 8001af0:	f003 0308 	and.w	r3, r3, #8
 8001af4:	2b08      	cmp	r3, #8
 8001af6:	d106      	bne.n	8001b06 <HAL_HCD_IRQHandler+0x132>
    {
#if (USE_HAL_HCD_REGISTER_CALLBACKS == 1U)
      hhcd->SOFCallback(hhcd);
#else
      HAL_HCD_SOF_Callback(hhcd);
 8001af8:	6878      	ldr	r0, [r7, #4]
 8001afa:	f008 fd35 	bl	800a568 <HAL_HCD_SOF_Callback>
#endif /* USE_HAL_HCD_REGISTER_CALLBACKS */

      __HAL_HCD_CLEAR_FLAG(hhcd, USB_OTG_GINTSTS_SOF);
 8001afe:	687b      	ldr	r3, [r7, #4]
 8001b00:	681b      	ldr	r3, [r3, #0]
 8001b02:	2208      	movs	r2, #8
 8001b04:	615a      	str	r2, [r3, #20]
    }

    /* Handle Rx Queue Level Interrupts */
    if ((__HAL_HCD_GET_FLAG(hhcd, USB_OTG_GINTSTS_RXFLVL)) != 0U)
 8001b06:	687b      	ldr	r3, [r7, #4]
 8001b08:	681b      	ldr	r3, [r3, #0]
 8001b0a:	4618      	mov	r0, r3
 8001b0c:	f003 fa9c 	bl	8005048 <USB_ReadInterrupts>
 8001b10:	4603      	mov	r3, r0
 8001b12:	f003 0310 	and.w	r3, r3, #16
 8001b16:	2b10      	cmp	r3, #16
 8001b18:	d101      	bne.n	8001b1e <HAL_HCD_IRQHandler+0x14a>
 8001b1a:	2301      	movs	r3, #1
 8001b1c:	e000      	b.n	8001b20 <HAL_HCD_IRQHandler+0x14c>
 8001b1e:	2300      	movs	r3, #0
 8001b20:	2b00      	cmp	r3, #0
 8001b22:	d012      	beq.n	8001b4a <HAL_HCD_IRQHandler+0x176>
    {
      USB_MASK_INTERRUPT(hhcd->Instance, USB_OTG_GINTSTS_RXFLVL);
 8001b24:	687b      	ldr	r3, [r7, #4]
 8001b26:	681b      	ldr	r3, [r3, #0]
 8001b28:	699a      	ldr	r2, [r3, #24]
 8001b2a:	687b      	ldr	r3, [r7, #4]
 8001b2c:	681b      	ldr	r3, [r3, #0]
 8001b2e:	f022 0210 	bic.w	r2, r2, #16
 8001b32:	619a      	str	r2, [r3, #24]

      HCD_RXQLVL_IRQHandler(hhcd);
 8001b34:	6878      	ldr	r0, [r7, #4]
 8001b36:	f001 f902 	bl	8002d3e <HCD_RXQLVL_IRQHandler>

      USB_UNMASK_INTERRUPT(hhcd->Instance, USB_OTG_GINTSTS_RXFLVL);
 8001b3a:	687b      	ldr	r3, [r7, #4]
 8001b3c:	681b      	ldr	r3, [r3, #0]
 8001b3e:	699a      	ldr	r2, [r3, #24]
 8001b40:	687b      	ldr	r3, [r7, #4]
 8001b42:	681b      	ldr	r3, [r3, #0]
 8001b44:	f042 0210 	orr.w	r2, r2, #16
 8001b48:	619a      	str	r2, [r3, #24]
    }

    /* Handle Host channel Interrupt */
    if (__HAL_HCD_GET_FLAG(hhcd, USB_OTG_GINTSTS_HCINT))
 8001b4a:	687b      	ldr	r3, [r7, #4]
 8001b4c:	681b      	ldr	r3, [r3, #0]
 8001b4e:	4618      	mov	r0, r3
 8001b50:	f003 fa7a 	bl	8005048 <USB_ReadInterrupts>
 8001b54:	4603      	mov	r3, r0
 8001b56:	f003 7300 	and.w	r3, r3, #33554432	; 0x2000000
 8001b5a:	f1b3 7f00 	cmp.w	r3, #33554432	; 0x2000000
 8001b5e:	d13a      	bne.n	8001bd6 <HAL_HCD_IRQHandler+0x202>
    {
      interrupt = USB_HC_ReadInterrupt(hhcd->Instance);
 8001b60:	687b      	ldr	r3, [r7, #4]
 8001b62:	681b      	ldr	r3, [r3, #0]
 8001b64:	4618      	mov	r0, r3
 8001b66:	f003 fe97 	bl	8005898 <USB_HC_ReadInterrupt>
 8001b6a:	60b8      	str	r0, [r7, #8]
      for (i = 0U; i < hhcd->Init.Host_channels; i++)
 8001b6c:	2300      	movs	r3, #0
 8001b6e:	617b      	str	r3, [r7, #20]
 8001b70:	e025      	b.n	8001bbe <HAL_HCD_IRQHandler+0x1ea>
      {
        if ((interrupt & (1UL << (i & 0xFU))) != 0U)
 8001b72:	697b      	ldr	r3, [r7, #20]
 8001b74:	f003 030f 	and.w	r3, r3, #15
 8001b78:	68ba      	ldr	r2, [r7, #8]
 8001b7a:	fa22 f303 	lsr.w	r3, r2, r3
 8001b7e:	f003 0301 	and.w	r3, r3, #1
 8001b82:	2b00      	cmp	r3, #0
 8001b84:	d018      	beq.n	8001bb8 <HAL_HCD_IRQHandler+0x1e4>
        {
          if ((USBx_HC(i)->HCCHAR & USB_OTG_HCCHAR_EPDIR) == USB_OTG_HCCHAR_EPDIR)
 8001b86:	697b      	ldr	r3, [r7, #20]
 8001b88:	015a      	lsls	r2, r3, #5
 8001b8a:	68fb      	ldr	r3, [r7, #12]
 8001b8c:	4413      	add	r3, r2
 8001b8e:	f503 63a0 	add.w	r3, r3, #1280	; 0x500
 8001b92:	681b      	ldr	r3, [r3, #0]
 8001b94:	f403 4300 	and.w	r3, r3, #32768	; 0x8000
 8001b98:	f5b3 4f00 	cmp.w	r3, #32768	; 0x8000
 8001b9c:	d106      	bne.n	8001bac <HAL_HCD_IRQHandler+0x1d8>
          {
            HCD_HC_IN_IRQHandler(hhcd, (uint8_t)i);
 8001b9e:	697b      	ldr	r3, [r7, #20]
 8001ba0:	b2db      	uxtb	r3, r3
 8001ba2:	4619      	mov	r1, r3
 8001ba4:	6878      	ldr	r0, [r7, #4]
 8001ba6:	f000 f8ab 	bl	8001d00 <HCD_HC_IN_IRQHandler>
 8001baa:	e005      	b.n	8001bb8 <HAL_HCD_IRQHandler+0x1e4>
          }
          else
          {
            HCD_HC_OUT_IRQHandler(hhcd, (uint8_t)i);
 8001bac:	697b      	ldr	r3, [r7, #20]
 8001bae:	b2db      	uxtb	r3, r3
 8001bb0:	4619      	mov	r1, r3
 8001bb2:	6878      	ldr	r0, [r7, #4]
 8001bb4:	f000 fcc6 	bl	8002544 <HCD_HC_OUT_IRQHandler>
      for (i = 0U; i < hhcd->Init.Host_channels; i++)
 8001bb8:	697b      	ldr	r3, [r7, #20]
 8001bba:	3301      	adds	r3, #1
 8001bbc:	617b      	str	r3, [r7, #20]
 8001bbe:	687b      	ldr	r3, [r7, #4]
 8001bc0:	689b      	ldr	r3, [r3, #8]
 8001bc2:	697a      	ldr	r2, [r7, #20]
 8001bc4:	429a      	cmp	r2, r3
 8001bc6:	d3d4      	bcc.n	8001b72 <HAL_HCD_IRQHandler+0x19e>
          }
        }
      }
      __HAL_HCD_CLEAR_FLAG(hhcd, USB_OTG_GINTSTS_HCINT);
 8001bc8:	687b      	ldr	r3, [r7, #4]
 8001bca:	681b      	ldr	r3, [r3, #0]
 8001bcc:	f04f 7200 	mov.w	r2, #33554432	; 0x2000000
 8001bd0:	615a      	str	r2, [r3, #20]
 8001bd2:	e000      	b.n	8001bd6 <HAL_HCD_IRQHandler+0x202>
      return;
 8001bd4:	bf00      	nop
    }
  }
}
 8001bd6:	3718      	adds	r7, #24
 8001bd8:	46bd      	mov	sp, r7
 8001bda:	bd80      	pop	{r7, pc}

08001bdc <HAL_HCD_Start>:
  * @brief  Start the host driver.
  * @param  hhcd HCD handle
  * @retval HAL status
  */
HAL_StatusTypeDef HAL_HCD_Start(HCD_HandleTypeDef *hhcd)
{
 8001bdc:	b580      	push	{r7, lr}
 8001bde:	b082      	sub	sp, #8
 8001be0:	af00      	add	r7, sp, #0
 8001be2:	6078      	str	r0, [r7, #4]
  __HAL_LOCK(hhcd);
 8001be4:	687b      	ldr	r3, [r7, #4]
 8001be6:	f893 32f8 	ldrb.w	r3, [r3, #760]	; 0x2f8
 8001bea:	2b01      	cmp	r3, #1
 8001bec:	d101      	bne.n	8001bf2 <HAL_HCD_Start+0x16>
 8001bee:	2302      	movs	r3, #2
 8001bf0:	e013      	b.n	8001c1a <HAL_HCD_Start+0x3e>
 8001bf2:	687b      	ldr	r3, [r7, #4]
 8001bf4:	2201      	movs	r2, #1
 8001bf6:	f883 22f8 	strb.w	r2, [r3, #760]	; 0x2f8
  __HAL_HCD_ENABLE(hhcd);
 8001bfa:	687b      	ldr	r3, [r7, #4]
 8001bfc:	681b      	ldr	r3, [r3, #0]
 8001bfe:	4618      	mov	r0, r3
 8001c00:	f003 f92f 	bl	8004e62 <USB_EnableGlobalInt>
  (void)USB_DriveVbus(hhcd->Instance, 1U);
 8001c04:	687b      	ldr	r3, [r7, #4]
 8001c06:	681b      	ldr	r3, [r3, #0]
 8001c08:	2101      	movs	r1, #1
 8001c0a:	4618      	mov	r0, r3
 8001c0c:	f003 fb92 	bl	8005334 <USB_DriveVbus>
  __HAL_UNLOCK(hhcd);
 8001c10:	687b      	ldr	r3, [r7, #4]
 8001c12:	2200      	movs	r2, #0
 8001c14:	f883 22f8 	strb.w	r2, [r3, #760]	; 0x2f8

  return HAL_OK;
 8001c18:	2300      	movs	r3, #0
}
 8001c1a:	4618      	mov	r0, r3
 8001c1c:	3708      	adds	r7, #8
 8001c1e:	46bd      	mov	sp, r7
 8001c20:	bd80      	pop	{r7, pc}

08001c22 <HAL_HCD_Stop>:
  * @param  hhcd HCD handle
  * @retval HAL status
  */

HAL_StatusTypeDef HAL_HCD_Stop(HCD_HandleTypeDef *hhcd)
{
 8001c22:	b580      	push	{r7, lr}
 8001c24:	b082      	sub	sp, #8
 8001c26:	af00      	add	r7, sp, #0
 8001c28:	6078      	str	r0, [r7, #4]
  __HAL_LOCK(hhcd);
 8001c2a:	687b      	ldr	r3, [r7, #4]
 8001c2c:	f893 32f8 	ldrb.w	r3, [r3, #760]	; 0x2f8
 8001c30:	2b01      	cmp	r3, #1
 8001c32:	d101      	bne.n	8001c38 <HAL_HCD_Stop+0x16>
 8001c34:	2302      	movs	r3, #2
 8001c36:	e00d      	b.n	8001c54 <HAL_HCD_Stop+0x32>
 8001c38:	687b      	ldr	r3, [r7, #4]
 8001c3a:	2201      	movs	r2, #1
 8001c3c:	f883 22f8 	strb.w	r2, [r3, #760]	; 0x2f8
  (void)USB_StopHost(hhcd->Instance);
 8001c40:	687b      	ldr	r3, [r7, #4]
 8001c42:	681b      	ldr	r3, [r3, #0]
 8001c44:	4618      	mov	r0, r3
 8001c46:	f003 ff91 	bl	8005b6c <USB_StopHost>
  __HAL_UNLOCK(hhcd);
 8001c4a:	687b      	ldr	r3, [r7, #4]
 8001c4c:	2200      	movs	r2, #0
 8001c4e:	f883 22f8 	strb.w	r2, [r3, #760]	; 0x2f8

  return HAL_OK;
 8001c52:	2300      	movs	r3, #0
}
 8001c54:	4618      	mov	r0, r3
 8001c56:	3708      	adds	r7, #8
 8001c58:	46bd      	mov	sp, r7
 8001c5a:	bd80      	pop	{r7, pc}

08001c5c <HAL_HCD_ResetPort>:
  * @brief  Reset the host port.
  * @param  hhcd HCD handle
  * @retval HAL status
  */
HAL_StatusTypeDef HAL_HCD_ResetPort(HCD_HandleTypeDef *hhcd)
{
 8001c5c:	b580      	push	{r7, lr}
 8001c5e:	b082      	sub	sp, #8
 8001c60:	af00      	add	r7, sp, #0
 8001c62:	6078      	str	r0, [r7, #4]
  return (USB_ResetPort(hhcd->Instance));
 8001c64:	687b      	ldr	r3, [r7, #4]
 8001c66:	681b      	ldr	r3, [r3, #0]
 8001c68:	4618      	mov	r0, r3
 8001c6a:	f003 fb39 	bl	80052e0 <USB_ResetPort>
 8001c6e:	4603      	mov	r3, r0
}
 8001c70:	4618      	mov	r0, r3
 8001c72:	3708      	adds	r7, #8
 8001c74:	46bd      	mov	sp, r7
 8001c76:	bd80      	pop	{r7, pc}

08001c78 <HAL_HCD_HC_GetURBState>:
  *            URB_NYET/
  *            URB_ERROR/
  *            URB_STALL
  */
HCD_URBStateTypeDef HAL_HCD_HC_GetURBState(HCD_HandleTypeDef *hhcd, uint8_t chnum)
{
 8001c78:	b480      	push	{r7}
 8001c7a:	b083      	sub	sp, #12
 8001c7c:	af00      	add	r7, sp, #0
 8001c7e:	6078      	str	r0, [r7, #4]
 8001c80:	460b      	mov	r3, r1
 8001c82:	70fb      	strb	r3, [r7, #3]
  return hhcd->hc[chnum].urb_state;
 8001c84:	78fb      	ldrb	r3, [r7, #3]
 8001c86:	687a      	ldr	r2, [r7, #4]
 8001c88:	212c      	movs	r1, #44	; 0x2c
 8001c8a:	fb01 f303 	mul.w	r3, r1, r3
 8001c8e:	4413      	add	r3, r2
 8001c90:	3360      	adds	r3, #96	; 0x60
 8001c92:	781b      	ldrb	r3, [r3, #0]
}
 8001c94:	4618      	mov	r0, r3
 8001c96:	370c      	adds	r7, #12
 8001c98:	46bd      	mov	sp, r7
 8001c9a:	f85d 7b04 	ldr.w	r7, [sp], #4
 8001c9e:	4770      	bx	lr

08001ca0 <HAL_HCD_HC_GetXferCount>:
  * @param  chnum Channel number.
  *         This parameter can be a value from 1 to 15
  * @retval last transfer size in byte
  */
uint32_t HAL_HCD_HC_GetXferCount(HCD_HandleTypeDef *hhcd, uint8_t chnum)
{
 8001ca0:	b480      	push	{r7}
 8001ca2:	b083      	sub	sp, #12
 8001ca4:	af00      	add	r7, sp, #0
 8001ca6:	6078      	str	r0, [r7, #4]
 8001ca8:	460b      	mov	r3, r1
 8001caa:	70fb      	strb	r3, [r7, #3]
  return hhcd->hc[chnum].xfer_count;
 8001cac:	78fb      	ldrb	r3, [r7, #3]
 8001cae:	687a      	ldr	r2, [r7, #4]
 8001cb0:	212c      	movs	r1, #44	; 0x2c
 8001cb2:	fb01 f303 	mul.w	r3, r1, r3
 8001cb6:	4413      	add	r3, r2
 8001cb8:	3350      	adds	r3, #80	; 0x50
 8001cba:	681b      	ldr	r3, [r3, #0]
}
 8001cbc:	4618      	mov	r0, r3
 8001cbe:	370c      	adds	r7, #12
 8001cc0:	46bd      	mov	sp, r7
 8001cc2:	f85d 7b04 	ldr.w	r7, [sp], #4
 8001cc6:	4770      	bx	lr

08001cc8 <HAL_HCD_GetCurrentFrame>:
  * @brief  Return the current Host frame number.
  * @param  hhcd HCD handle
  * @retval Current Host frame number
  */
uint32_t HAL_HCD_GetCurrentFrame(HCD_HandleTypeDef *hhcd)
{
 8001cc8:	b580      	push	{r7, lr}
 8001cca:	b082      	sub	sp, #8
 8001ccc:	af00      	add	r7, sp, #0
 8001cce:	6078      	str	r0, [r7, #4]
  return (USB_GetCurrentFrame(hhcd->Instance));
 8001cd0:	687b      	ldr	r3, [r7, #4]
 8001cd2:	681b      	ldr	r3, [r3, #0]
 8001cd4:	4618      	mov	r0, r3
 8001cd6:	f003 fb7d 	bl	80053d4 <USB_GetCurrentFrame>
 8001cda:	4603      	mov	r3, r0
}
 8001cdc:	4618      	mov	r0, r3
 8001cde:	3708      	adds	r7, #8
 8001ce0:	46bd      	mov	sp, r7
 8001ce2:	bd80      	pop	{r7, pc}

08001ce4 <HAL_HCD_GetCurrentSpeed>:
  * @brief  Return the Host enumeration speed.
  * @param  hhcd HCD handle
  * @retval Enumeration speed
  */
uint32_t HAL_HCD_GetCurrentSpeed(HCD_HandleTypeDef *hhcd)
{
 8001ce4:	b580      	push	{r7, lr}
 8001ce6:	b082      	sub	sp, #8
 8001ce8:	af00      	add	r7, sp, #0
 8001cea:	6078      	str	r0, [r7, #4]
  return (USB_GetHostSpeed(hhcd->Instance));
 8001cec:	687b      	ldr	r3, [r7, #4]
 8001cee:	681b      	ldr	r3, [r3, #0]
 8001cf0:	4618      	mov	r0, r3
 8001cf2:	f003 fb58 	bl	80053a6 <USB_GetHostSpeed>
 8001cf6:	4603      	mov	r3, r0
}
 8001cf8:	4618      	mov	r0, r3
 8001cfa:	3708      	adds	r7, #8
 8001cfc:	46bd      	mov	sp, r7
 8001cfe:	bd80      	pop	{r7, pc}

08001d00 <HCD_HC_IN_IRQHandler>:
  * @param  chnum Channel number.
  *         This parameter can be a value from 1 to 15
  * @retval none
  */
static void HCD_HC_IN_IRQHandler(HCD_HandleTypeDef *hhcd, uint8_t chnum)
{
 8001d00:	b580      	push	{r7, lr}
 8001d02:	b086      	sub	sp, #24
 8001d04:	af00      	add	r7, sp, #0
 8001d06:	6078      	str	r0, [r7, #4]
 8001d08:	460b      	mov	r3, r1
 8001d0a:	70fb      	strb	r3, [r7, #3]
  USB_OTG_GlobalTypeDef *USBx = hhcd->Instance;
 8001d0c:	687b      	ldr	r3, [r7, #4]
 8001d0e:	681b      	ldr	r3, [r3, #0]
 8001d10:	617b      	str	r3, [r7, #20]
  uint32_t USBx_BASE = (uint32_t)USBx;
 8001d12:	697b      	ldr	r3, [r7, #20]
 8001d14:	613b      	str	r3, [r7, #16]
  uint32_t ch_num = (uint32_t)chnum;
 8001d16:	78fb      	ldrb	r3, [r7, #3]
 8001d18:	60fb      	str	r3, [r7, #12]

  uint32_t tmpreg;

  if ((USBx_HC(ch_num)->HCINT & USB_OTG_HCINT_AHBERR) == USB_OTG_HCINT_AHBERR)
 8001d1a:	68fb      	ldr	r3, [r7, #12]
 8001d1c:	015a      	lsls	r2, r3, #5
 8001d1e:	693b      	ldr	r3, [r7, #16]
 8001d20:	4413      	add	r3, r2
 8001d22:	f503 63a0 	add.w	r3, r3, #1280	; 0x500
 8001d26:	689b      	ldr	r3, [r3, #8]
 8001d28:	f003 0304 	and.w	r3, r3, #4
 8001d2c:	2b04      	cmp	r3, #4
 8001d2e:	d119      	bne.n	8001d64 <HCD_HC_IN_IRQHandler+0x64>
  {
    __HAL_HCD_CLEAR_HC_INT(ch_num, USB_OTG_HCINT_AHBERR);
 8001d30:	68fb      	ldr	r3, [r7, #12]
 8001d32:	015a      	lsls	r2, r3, #5
 8001d34:	693b      	ldr	r3, [r7, #16]
 8001d36:	4413      	add	r3, r2
 8001d38:	f503 63a0 	add.w	r3, r3, #1280	; 0x500
 8001d3c:	461a      	mov	r2, r3
 8001d3e:	2304      	movs	r3, #4
 8001d40:	6093      	str	r3, [r2, #8]
    __HAL_HCD_UNMASK_HALT_HC_INT(ch_num);
 8001d42:	68fb      	ldr	r3, [r7, #12]
 8001d44:	015a      	lsls	r2, r3, #5
 8001d46:	693b      	ldr	r3, [r7, #16]
 8001d48:	4413      	add	r3, r2
 8001d4a:	f503 63a0 	add.w	r3, r3, #1280	; 0x500
 8001d4e:	68db      	ldr	r3, [r3, #12]
 8001d50:	68fa      	ldr	r2, [r7, #12]
 8001d52:	0151      	lsls	r1, r2, #5
 8001d54:	693a      	ldr	r2, [r7, #16]
 8001d56:	440a      	add	r2, r1
 8001d58:	f502 62a0 	add.w	r2, r2, #1280	; 0x500
 8001d5c:	f043 0302 	orr.w	r3, r3, #2
 8001d60:	60d3      	str	r3, [r2, #12]
 8001d62:	e101      	b.n	8001f68 <HCD_HC_IN_IRQHandler+0x268>
  }
  else if ((USBx_HC(ch_num)->HCINT & USB_OTG_HCINT_BBERR) == USB_OTG_HCINT_BBERR)
 8001d64:	68fb      	ldr	r3, [r7, #12]
 8001d66:	015a      	lsls	r2, r3, #5
 8001d68:	693b      	ldr	r3, [r7, #16]
 8001d6a:	4413      	add	r3, r2
 8001d6c:	f503 63a0 	add.w	r3, r3, #1280	; 0x500
 8001d70:	689b      	ldr	r3, [r3, #8]
 8001d72:	f403 7380 	and.w	r3, r3, #256	; 0x100
 8001d76:	f5b3 7f80 	cmp.w	r3, #256	; 0x100
 8001d7a:	d12b      	bne.n	8001dd4 <HCD_HC_IN_IRQHandler+0xd4>
  {
    __HAL_HCD_CLEAR_HC_INT(ch_num, USB_OTG_HCINT_BBERR);
 8001d7c:	68fb      	ldr	r3, [r7, #12]
 8001d7e:	015a      	lsls	r2, r3, #5
 8001d80:	693b      	ldr	r3, [r7, #16]
 8001d82:	4413      	add	r3, r2
 8001d84:	f503 63a0 	add.w	r3, r3, #1280	; 0x500
 8001d88:	461a      	mov	r2, r3
 8001d8a:	f44f 7380 	mov.w	r3, #256	; 0x100
 8001d8e:	6093      	str	r3, [r2, #8]
    hhcd->hc[ch_num].state = HC_BBLERR;
 8001d90:	687a      	ldr	r2, [r7, #4]
 8001d92:	68fb      	ldr	r3, [r7, #12]
 8001d94:	212c      	movs	r1, #44	; 0x2c
 8001d96:	fb01 f303 	mul.w	r3, r1, r3
 8001d9a:	4413      	add	r3, r2
 8001d9c:	3361      	adds	r3, #97	; 0x61
 8001d9e:	2207      	movs	r2, #7
 8001da0:	701a      	strb	r2, [r3, #0]
    __HAL_HCD_UNMASK_HALT_HC_INT(ch_num);
 8001da2:	68fb      	ldr	r3, [r7, #12]
 8001da4:	015a      	lsls	r2, r3, #5
 8001da6:	693b      	ldr	r3, [r7, #16]
 8001da8:	4413      	add	r3, r2
 8001daa:	f503 63a0 	add.w	r3, r3, #1280	; 0x500
 8001dae:	68db      	ldr	r3, [r3, #12]
 8001db0:	68fa      	ldr	r2, [r7, #12]
 8001db2:	0151      	lsls	r1, r2, #5
 8001db4:	693a      	ldr	r2, [r7, #16]
 8001db6:	440a      	add	r2, r1
 8001db8:	f502 62a0 	add.w	r2, r2, #1280	; 0x500
 8001dbc:	f043 0302 	orr.w	r3, r3, #2
 8001dc0:	60d3      	str	r3, [r2, #12]
    (void)USB_HC_Halt(hhcd->Instance, (uint8_t)ch_num);
 8001dc2:	687b      	ldr	r3, [r7, #4]
 8001dc4:	681b      	ldr	r3, [r3, #0]
 8001dc6:	68fa      	ldr	r2, [r7, #12]
 8001dc8:	b2d2      	uxtb	r2, r2
 8001dca:	4611      	mov	r1, r2
 8001dcc:	4618      	mov	r0, r3
 8001dce:	f003 fd74 	bl	80058ba <USB_HC_Halt>
 8001dd2:	e0c9      	b.n	8001f68 <HCD_HC_IN_IRQHandler+0x268>
  }
  else if ((USBx_HC(ch_num)->HCINT & USB_OTG_HCINT_ACK) == USB_OTG_HCINT_ACK)
 8001dd4:	68fb      	ldr	r3, [r7, #12]
 8001dd6:	015a      	lsls	r2, r3, #5
 8001dd8:	693b      	ldr	r3, [r7, #16]
 8001dda:	4413      	add	r3, r2
 8001ddc:	f503 63a0 	add.w	r3, r3, #1280	; 0x500
 8001de0:	689b      	ldr	r3, [r3, #8]
 8001de2:	f003 0320 	and.w	r3, r3, #32
 8001de6:	2b20      	cmp	r3, #32
 8001de8:	d109      	bne.n	8001dfe <HCD_HC_IN_IRQHandler+0xfe>
  {
    __HAL_HCD_CLEAR_HC_INT(ch_num, USB_OTG_HCINT_ACK);
 8001dea:	68fb      	ldr	r3, [r7, #12]
 8001dec:	015a      	lsls	r2, r3, #5
 8001dee:	693b      	ldr	r3, [r7, #16]
 8001df0:	4413      	add	r3, r2
 8001df2:	f503 63a0 	add.w	r3, r3, #1280	; 0x500
 8001df6:	461a      	mov	r2, r3
 8001df8:	2320      	movs	r3, #32
 8001dfa:	6093      	str	r3, [r2, #8]
 8001dfc:	e0b4      	b.n	8001f68 <HCD_HC_IN_IRQHandler+0x268>
  }
  else if ((USBx_HC(ch_num)->HCINT & USB_OTG_HCINT_STALL) == USB_OTG_HCINT_STALL)
 8001dfe:	68fb      	ldr	r3, [r7, #12]
 8001e00:	015a      	lsls	r2, r3, #5
 8001e02:	693b      	ldr	r3, [r7, #16]
 8001e04:	4413      	add	r3, r2
 8001e06:	f503 63a0 	add.w	r3, r3, #1280	; 0x500
 8001e0a:	689b      	ldr	r3, [r3, #8]
 8001e0c:	f003 0308 	and.w	r3, r3, #8
 8001e10:	2b08      	cmp	r3, #8
 8001e12:	d133      	bne.n	8001e7c <HCD_HC_IN_IRQHandler+0x17c>
  {
    __HAL_HCD_UNMASK_HALT_HC_INT(ch_num);
 8001e14:	68fb      	ldr	r3, [r7, #12]
 8001e16:	015a      	lsls	r2, r3, #5
 8001e18:	693b      	ldr	r3, [r7, #16]
 8001e1a:	4413      	add	r3, r2
 8001e1c:	f503 63a0 	add.w	r3, r3, #1280	; 0x500
 8001e20:	68db      	ldr	r3, [r3, #12]
 8001e22:	68fa      	ldr	r2, [r7, #12]
 8001e24:	0151      	lsls	r1, r2, #5
 8001e26:	693a      	ldr	r2, [r7, #16]
 8001e28:	440a      	add	r2, r1
 8001e2a:	f502 62a0 	add.w	r2, r2, #1280	; 0x500
 8001e2e:	f043 0302 	orr.w	r3, r3, #2
 8001e32:	60d3      	str	r3, [r2, #12]
    hhcd->hc[ch_num].state = HC_STALL;
 8001e34:	687a      	ldr	r2, [r7, #4]
 8001e36:	68fb      	ldr	r3, [r7, #12]
 8001e38:	212c      	movs	r1, #44	; 0x2c
 8001e3a:	fb01 f303 	mul.w	r3, r1, r3
 8001e3e:	4413      	add	r3, r2
 8001e40:	3361      	adds	r3, #97	; 0x61
 8001e42:	2205      	movs	r2, #5
 8001e44:	701a      	strb	r2, [r3, #0]
    __HAL_HCD_CLEAR_HC_INT(ch_num, USB_OTG_HCINT_NAK);
 8001e46:	68fb      	ldr	r3, [r7, #12]
 8001e48:	015a      	lsls	r2, r3, #5
 8001e4a:	693b      	ldr	r3, [r7, #16]
 8001e4c:	4413      	add	r3, r2
 8001e4e:	f503 63a0 	add.w	r3, r3, #1280	; 0x500
 8001e52:	461a      	mov	r2, r3
 8001e54:	2310      	movs	r3, #16
 8001e56:	6093      	str	r3, [r2, #8]
    __HAL_HCD_CLEAR_HC_INT(ch_num, USB_OTG_HCINT_STALL);
 8001e58:	68fb      	ldr	r3, [r7, #12]
 8001e5a:	015a      	lsls	r2, r3, #5
 8001e5c:	693b      	ldr	r3, [r7, #16]
 8001e5e:	4413      	add	r3, r2
 8001e60:	f503 63a0 	add.w	r3, r3, #1280	; 0x500
 8001e64:	461a      	mov	r2, r3
 8001e66:	2308      	movs	r3, #8
 8001e68:	6093      	str	r3, [r2, #8]
    (void)USB_HC_Halt(hhcd->Instance, (uint8_t)ch_num);
 8001e6a:	687b      	ldr	r3, [r7, #4]
 8001e6c:	681b      	ldr	r3, [r3, #0]
 8001e6e:	68fa      	ldr	r2, [r7, #12]
 8001e70:	b2d2      	uxtb	r2, r2
 8001e72:	4611      	mov	r1, r2
 8001e74:	4618      	mov	r0, r3
 8001e76:	f003 fd20 	bl	80058ba <USB_HC_Halt>
 8001e7a:	e075      	b.n	8001f68 <HCD_HC_IN_IRQHandler+0x268>
  }
  else if ((USBx_HC(ch_num)->HCINT & USB_OTG_HCINT_DTERR) == USB_OTG_HCINT_DTERR)
 8001e7c:	68fb      	ldr	r3, [r7, #12]
 8001e7e:	015a      	lsls	r2, r3, #5
 8001e80:	693b      	ldr	r3, [r7, #16]
 8001e82:	4413      	add	r3, r2
 8001e84:	f503 63a0 	add.w	r3, r3, #1280	; 0x500
 8001e88:	689b      	ldr	r3, [r3, #8]
 8001e8a:	f403 6380 	and.w	r3, r3, #1024	; 0x400
 8001e8e:	f5b3 6f80 	cmp.w	r3, #1024	; 0x400
 8001e92:	d134      	bne.n	8001efe <HCD_HC_IN_IRQHandler+0x1fe>
  {
    __HAL_HCD_UNMASK_HALT_HC_INT(ch_num);
 8001e94:	68fb      	ldr	r3, [r7, #12]
 8001e96:	015a      	lsls	r2, r3, #5
 8001e98:	693b      	ldr	r3, [r7, #16]
 8001e9a:	4413      	add	r3, r2
 8001e9c:	f503 63a0 	add.w	r3, r3, #1280	; 0x500
 8001ea0:	68db      	ldr	r3, [r3, #12]
 8001ea2:	68fa      	ldr	r2, [r7, #12]
 8001ea4:	0151      	lsls	r1, r2, #5
 8001ea6:	693a      	ldr	r2, [r7, #16]
 8001ea8:	440a      	add	r2, r1
 8001eaa:	f502 62a0 	add.w	r2, r2, #1280	; 0x500
 8001eae:	f043 0302 	orr.w	r3, r3, #2
 8001eb2:	60d3      	str	r3, [r2, #12]
    hhcd->hc[ch_num].state = HC_DATATGLERR;
 8001eb4:	687a      	ldr	r2, [r7, #4]
 8001eb6:	68fb      	ldr	r3, [r7, #12]
 8001eb8:	212c      	movs	r1, #44	; 0x2c
 8001eba:	fb01 f303 	mul.w	r3, r1, r3
 8001ebe:	4413      	add	r3, r2
 8001ec0:	3361      	adds	r3, #97	; 0x61
 8001ec2:	2208      	movs	r2, #8
 8001ec4:	701a      	strb	r2, [r3, #0]
    __HAL_HCD_CLEAR_HC_INT(ch_num, USB_OTG_HCINT_NAK);
 8001ec6:	68fb      	ldr	r3, [r7, #12]
 8001ec8:	015a      	lsls	r2, r3, #5
 8001eca:	693b      	ldr	r3, [r7, #16]
 8001ecc:	4413      	add	r3, r2
 8001ece:	f503 63a0 	add.w	r3, r3, #1280	; 0x500
 8001ed2:	461a      	mov	r2, r3
 8001ed4:	2310      	movs	r3, #16
 8001ed6:	6093      	str	r3, [r2, #8]
    __HAL_HCD_CLEAR_HC_INT(ch_num, USB_OTG_HCINT_DTERR);
 8001ed8:	68fb      	ldr	r3, [r7, #12]
 8001eda:	015a      	lsls	r2, r3, #5
 8001edc:	693b      	ldr	r3, [r7, #16]
 8001ede:	4413      	add	r3, r2
 8001ee0:	f503 63a0 	add.w	r3, r3, #1280	; 0x500
 8001ee4:	461a      	mov	r2, r3
 8001ee6:	f44f 6380 	mov.w	r3, #1024	; 0x400
 8001eea:	6093      	str	r3, [r2, #8]
    (void)USB_HC_Halt(hhcd->Instance, (uint8_t)ch_num);
 8001eec:	687b      	ldr	r3, [r7, #4]
 8001eee:	681b      	ldr	r3, [r3, #0]
 8001ef0:	68fa      	ldr	r2, [r7, #12]
 8001ef2:	b2d2      	uxtb	r2, r2
 8001ef4:	4611      	mov	r1, r2
 8001ef6:	4618      	mov	r0, r3
 8001ef8:	f003 fcdf 	bl	80058ba <USB_HC_Halt>
 8001efc:	e034      	b.n	8001f68 <HCD_HC_IN_IRQHandler+0x268>
  }
  else if ((USBx_HC(ch_num)->HCINT & USB_OTG_HCINT_TXERR) == USB_OTG_HCINT_TXERR)
 8001efe:	68fb      	ldr	r3, [r7, #12]
 8001f00:	015a      	lsls	r2, r3, #5
 8001f02:	693b      	ldr	r3, [r7, #16]
 8001f04:	4413      	add	r3, r2
 8001f06:	f503 63a0 	add.w	r3, r3, #1280	; 0x500
 8001f0a:	689b      	ldr	r3, [r3, #8]
 8001f0c:	f003 0380 	and.w	r3, r3, #128	; 0x80
 8001f10:	2b80      	cmp	r3, #128	; 0x80
 8001f12:	d129      	bne.n	8001f68 <HCD_HC_IN_IRQHandler+0x268>
  {
    __HAL_HCD_UNMASK_HALT_HC_INT(ch_num);
 8001f14:	68fb      	ldr	r3, [r7, #12]
 8001f16:	015a      	lsls	r2, r3, #5
 8001f18:	693b      	ldr	r3, [r7, #16]
 8001f1a:	4413      	add	r3, r2
 8001f1c:	f503 63a0 	add.w	r3, r3, #1280	; 0x500
 8001f20:	68db      	ldr	r3, [r3, #12]
 8001f22:	68fa      	ldr	r2, [r7, #12]
 8001f24:	0151      	lsls	r1, r2, #5
 8001f26:	693a      	ldr	r2, [r7, #16]
 8001f28:	440a      	add	r2, r1
 8001f2a:	f502 62a0 	add.w	r2, r2, #1280	; 0x500
 8001f2e:	f043 0302 	orr.w	r3, r3, #2
 8001f32:	60d3      	str	r3, [r2, #12]
    hhcd->hc[ch_num].state = HC_XACTERR;
 8001f34:	687a      	ldr	r2, [r7, #4]
 8001f36:	68fb      	ldr	r3, [r7, #12]
 8001f38:	212c      	movs	r1, #44	; 0x2c
 8001f3a:	fb01 f303 	mul.w	r3, r1, r3
 8001f3e:	4413      	add	r3, r2
 8001f40:	3361      	adds	r3, #97	; 0x61
 8001f42:	2206      	movs	r2, #6
 8001f44:	701a      	strb	r2, [r3, #0]
    (void)USB_HC_Halt(hhcd->Instance, (uint8_t)ch_num);
 8001f46:	687b      	ldr	r3, [r7, #4]
 8001f48:	681b      	ldr	r3, [r3, #0]
 8001f4a:	68fa      	ldr	r2, [r7, #12]
 8001f4c:	b2d2      	uxtb	r2, r2
 8001f4e:	4611      	mov	r1, r2
 8001f50:	4618      	mov	r0, r3
 8001f52:	f003 fcb2 	bl	80058ba <USB_HC_Halt>
    __HAL_HCD_CLEAR_HC_INT(ch_num, USB_OTG_HCINT_TXERR);
 8001f56:	68fb      	ldr	r3, [r7, #12]
 8001f58:	015a      	lsls	r2, r3, #5
 8001f5a:	693b      	ldr	r3, [r7, #16]
 8001f5c:	4413      	add	r3, r2
 8001f5e:	f503 63a0 	add.w	r3, r3, #1280	; 0x500
 8001f62:	461a      	mov	r2, r3
 8001f64:	2380      	movs	r3, #128	; 0x80
 8001f66:	6093      	str	r3, [r2, #8]
  else
  {
    /* ... */
  }

  if ((USBx_HC(ch_num)->HCINT & USB_OTG_HCINT_FRMOR) == USB_OTG_HCINT_FRMOR)
 8001f68:	68fb      	ldr	r3, [r7, #12]
 8001f6a:	015a      	lsls	r2, r3, #5
 8001f6c:	693b      	ldr	r3, [r7, #16]
 8001f6e:	4413      	add	r3, r2
 8001f70:	f503 63a0 	add.w	r3, r3, #1280	; 0x500
 8001f74:	689b      	ldr	r3, [r3, #8]
 8001f76:	f403 7300 	and.w	r3, r3, #512	; 0x200
 8001f7a:	f5b3 7f00 	cmp.w	r3, #512	; 0x200
 8001f7e:	d122      	bne.n	8001fc6 <HCD_HC_IN_IRQHandler+0x2c6>
  {
    __HAL_HCD_UNMASK_HALT_HC_INT(ch_num);
 8001f80:	68fb      	ldr	r3, [r7, #12]
 8001f82:	015a      	lsls	r2, r3, #5
 8001f84:	693b      	ldr	r3, [r7, #16]
 8001f86:	4413      	add	r3, r2
 8001f88:	f503 63a0 	add.w	r3, r3, #1280	; 0x500
 8001f8c:	68db      	ldr	r3, [r3, #12]
 8001f8e:	68fa      	ldr	r2, [r7, #12]
 8001f90:	0151      	lsls	r1, r2, #5
 8001f92:	693a      	ldr	r2, [r7, #16]
 8001f94:	440a      	add	r2, r1
 8001f96:	f502 62a0 	add.w	r2, r2, #1280	; 0x500
 8001f9a:	f043 0302 	orr.w	r3, r3, #2
 8001f9e:	60d3      	str	r3, [r2, #12]
    (void)USB_HC_Halt(hhcd->Instance, (uint8_t)ch_num);
 8001fa0:	687b      	ldr	r3, [r7, #4]
 8001fa2:	681b      	ldr	r3, [r3, #0]
 8001fa4:	68fa      	ldr	r2, [r7, #12]
 8001fa6:	b2d2      	uxtb	r2, r2
 8001fa8:	4611      	mov	r1, r2
 8001faa:	4618      	mov	r0, r3
 8001fac:	f003 fc85 	bl	80058ba <USB_HC_Halt>
    __HAL_HCD_CLEAR_HC_INT(ch_num, USB_OTG_HCINT_FRMOR);
 8001fb0:	68fb      	ldr	r3, [r7, #12]
 8001fb2:	015a      	lsls	r2, r3, #5
 8001fb4:	693b      	ldr	r3, [r7, #16]
 8001fb6:	4413      	add	r3, r2
 8001fb8:	f503 63a0 	add.w	r3, r3, #1280	; 0x500
 8001fbc:	461a      	mov	r2, r3
 8001fbe:	f44f 7300 	mov.w	r3, #512	; 0x200
 8001fc2:	6093      	str	r3, [r2, #8]
  }
  else
  {
    /* ... */
  }
}
 8001fc4:	e2ba      	b.n	800253c <HCD_HC_IN_IRQHandler+0x83c>
  else if ((USBx_HC(ch_num)->HCINT & USB_OTG_HCINT_XFRC) == USB_OTG_HCINT_XFRC)
 8001fc6:	68fb      	ldr	r3, [r7, #12]
 8001fc8:	015a      	lsls	r2, r3, #5
 8001fca:	693b      	ldr	r3, [r7, #16]
 8001fcc:	4413      	add	r3, r2
 8001fce:	f503 63a0 	add.w	r3, r3, #1280	; 0x500
 8001fd2:	689b      	ldr	r3, [r3, #8]
 8001fd4:	f003 0301 	and.w	r3, r3, #1
 8001fd8:	2b01      	cmp	r3, #1
 8001fda:	f040 811b 	bne.w	8002214 <HCD_HC_IN_IRQHandler+0x514>
    if (hhcd->Init.dma_enable != 0U)
 8001fde:	687b      	ldr	r3, [r7, #4]
 8001fe0:	691b      	ldr	r3, [r3, #16]
 8001fe2:	2b00      	cmp	r3, #0
 8001fe4:	d019      	beq.n	800201a <HCD_HC_IN_IRQHandler+0x31a>
      hhcd->hc[ch_num].xfer_count = hhcd->hc[ch_num].XferSize - \
 8001fe6:	687a      	ldr	r2, [r7, #4]
 8001fe8:	68fb      	ldr	r3, [r7, #12]
 8001fea:	212c      	movs	r1, #44	; 0x2c
 8001fec:	fb01 f303 	mul.w	r3, r1, r3
 8001ff0:	4413      	add	r3, r2
 8001ff2:	3348      	adds	r3, #72	; 0x48
 8001ff4:	681a      	ldr	r2, [r3, #0]
                                    (USBx_HC(ch_num)->HCTSIZ & USB_OTG_HCTSIZ_XFRSIZ);
 8001ff6:	68fb      	ldr	r3, [r7, #12]
 8001ff8:	0159      	lsls	r1, r3, #5
 8001ffa:	693b      	ldr	r3, [r7, #16]
 8001ffc:	440b      	add	r3, r1
 8001ffe:	f503 63a0 	add.w	r3, r3, #1280	; 0x500
 8002002:	691b      	ldr	r3, [r3, #16]
 8002004:	f3c3 0312 	ubfx	r3, r3, #0, #19
      hhcd->hc[ch_num].xfer_count = hhcd->hc[ch_num].XferSize - \
 8002008:	1ad2      	subs	r2, r2, r3
 800200a:	6879      	ldr	r1, [r7, #4]
 800200c:	68fb      	ldr	r3, [r7, #12]
 800200e:	202c      	movs	r0, #44	; 0x2c
 8002010:	fb00 f303 	mul.w	r3, r0, r3
 8002014:	440b      	add	r3, r1
 8002016:	3350      	adds	r3, #80	; 0x50
 8002018:	601a      	str	r2, [r3, #0]
    hhcd->hc[ch_num].state = HC_XFRC;
 800201a:	687a      	ldr	r2, [r7, #4]
 800201c:	68fb      	ldr	r3, [r7, #12]
 800201e:	212c      	movs	r1, #44	; 0x2c
 8002020:	fb01 f303 	mul.w	r3, r1, r3
 8002024:	4413      	add	r3, r2
 8002026:	3361      	adds	r3, #97	; 0x61
 8002028:	2201      	movs	r2, #1
 800202a:	701a      	strb	r2, [r3, #0]
    hhcd->hc[ch_num].ErrCnt = 0U;
 800202c:	687a      	ldr	r2, [r7, #4]
 800202e:	68fb      	ldr	r3, [r7, #12]
 8002030:	212c      	movs	r1, #44	; 0x2c
 8002032:	fb01 f303 	mul.w	r3, r1, r3
 8002036:	4413      	add	r3, r2
 8002038:	335c      	adds	r3, #92	; 0x5c
 800203a:	2200      	movs	r2, #0
 800203c:	601a      	str	r2, [r3, #0]
    __HAL_HCD_CLEAR_HC_INT(ch_num, USB_OTG_HCINT_XFRC);
 800203e:	68fb      	ldr	r3, [r7, #12]
 8002040:	015a      	lsls	r2, r3, #5
 8002042:	693b      	ldr	r3, [r7, #16]
 8002044:	4413      	add	r3, r2
 8002046:	f503 63a0 	add.w	r3, r3, #1280	; 0x500
 800204a:	461a      	mov	r2, r3
 800204c:	2301      	movs	r3, #1
 800204e:	6093      	str	r3, [r2, #8]
    if ((hhcd->hc[ch_num].ep_type == EP_TYPE_CTRL) ||
 8002050:	687a      	ldr	r2, [r7, #4]
 8002052:	68fb      	ldr	r3, [r7, #12]
 8002054:	212c      	movs	r1, #44	; 0x2c
 8002056:	fb01 f303 	mul.w	r3, r1, r3
 800205a:	4413      	add	r3, r2
 800205c:	333f      	adds	r3, #63	; 0x3f
 800205e:	781b      	ldrb	r3, [r3, #0]
 8002060:	2b00      	cmp	r3, #0
 8002062:	d009      	beq.n	8002078 <HCD_HC_IN_IRQHandler+0x378>
        (hhcd->hc[ch_num].ep_type == EP_TYPE_BULK))
 8002064:	687a      	ldr	r2, [r7, #4]
 8002066:	68fb      	ldr	r3, [r7, #12]
 8002068:	212c      	movs	r1, #44	; 0x2c
 800206a:	fb01 f303 	mul.w	r3, r1, r3
 800206e:	4413      	add	r3, r2
 8002070:	333f      	adds	r3, #63	; 0x3f
 8002072:	781b      	ldrb	r3, [r3, #0]
    if ((hhcd->hc[ch_num].ep_type == EP_TYPE_CTRL) ||
 8002074:	2b02      	cmp	r3, #2
 8002076:	d121      	bne.n	80020bc <HCD_HC_IN_IRQHandler+0x3bc>
      __HAL_HCD_UNMASK_HALT_HC_INT(ch_num);
 8002078:	68fb      	ldr	r3, [r7, #12]
 800207a:	015a      	lsls	r2, r3, #5
 800207c:	693b      	ldr	r3, [r7, #16]
 800207e:	4413      	add	r3, r2
 8002080:	f503 63a0 	add.w	r3, r3, #1280	; 0x500
 8002084:	68db      	ldr	r3, [r3, #12]
 8002086:	68fa      	ldr	r2, [r7, #12]
 8002088:	0151      	lsls	r1, r2, #5
 800208a:	693a      	ldr	r2, [r7, #16]
 800208c:	440a      	add	r2, r1
 800208e:	f502 62a0 	add.w	r2, r2, #1280	; 0x500
 8002092:	f043 0302 	orr.w	r3, r3, #2
 8002096:	60d3      	str	r3, [r2, #12]
      (void)USB_HC_Halt(hhcd->Instance, (uint8_t)ch_num);
 8002098:	687b      	ldr	r3, [r7, #4]
 800209a:	681b      	ldr	r3, [r3, #0]
 800209c:	68fa      	ldr	r2, [r7, #12]
 800209e:	b2d2      	uxtb	r2, r2
 80020a0:	4611      	mov	r1, r2
 80020a2:	4618      	mov	r0, r3
 80020a4:	f003 fc09 	bl	80058ba <USB_HC_Halt>
      __HAL_HCD_CLEAR_HC_INT(ch_num, USB_OTG_HCINT_NAK);
 80020a8:	68fb      	ldr	r3, [r7, #12]
 80020aa:	015a      	lsls	r2, r3, #5
 80020ac:	693b      	ldr	r3, [r7, #16]
 80020ae:	4413      	add	r3, r2
 80020b0:	f503 63a0 	add.w	r3, r3, #1280	; 0x500
 80020b4:	461a      	mov	r2, r3
 80020b6:	2310      	movs	r3, #16
 80020b8:	6093      	str	r3, [r2, #8]
 80020ba:	e066      	b.n	800218a <HCD_HC_IN_IRQHandler+0x48a>
    else if (hhcd->hc[ch_num].ep_type == EP_TYPE_INTR)
 80020bc:	687a      	ldr	r2, [r7, #4]
 80020be:	68fb      	ldr	r3, [r7, #12]
 80020c0:	212c      	movs	r1, #44	; 0x2c
 80020c2:	fb01 f303 	mul.w	r3, r1, r3
 80020c6:	4413      	add	r3, r2
 80020c8:	333f      	adds	r3, #63	; 0x3f
 80020ca:	781b      	ldrb	r3, [r3, #0]
 80020cc:	2b03      	cmp	r3, #3
 80020ce:	d127      	bne.n	8002120 <HCD_HC_IN_IRQHandler+0x420>
      USBx_HC(ch_num)->HCCHAR |= USB_OTG_HCCHAR_ODDFRM;
 80020d0:	68fb      	ldr	r3, [r7, #12]
 80020d2:	015a      	lsls	r2, r3, #5
 80020d4:	693b      	ldr	r3, [r7, #16]
 80020d6:	4413      	add	r3, r2
 80020d8:	f503 63a0 	add.w	r3, r3, #1280	; 0x500
 80020dc:	681b      	ldr	r3, [r3, #0]
 80020de:	68fa      	ldr	r2, [r7, #12]
 80020e0:	0151      	lsls	r1, r2, #5
 80020e2:	693a      	ldr	r2, [r7, #16]
 80020e4:	440a      	add	r2, r1
 80020e6:	f502 62a0 	add.w	r2, r2, #1280	; 0x500
 80020ea:	f043 5300 	orr.w	r3, r3, #536870912	; 0x20000000
 80020ee:	6013      	str	r3, [r2, #0]
      hhcd->hc[ch_num].urb_state = URB_DONE;
 80020f0:	687a      	ldr	r2, [r7, #4]
 80020f2:	68fb      	ldr	r3, [r7, #12]
 80020f4:	212c      	movs	r1, #44	; 0x2c
 80020f6:	fb01 f303 	mul.w	r3, r1, r3
 80020fa:	4413      	add	r3, r2
 80020fc:	3360      	adds	r3, #96	; 0x60
 80020fe:	2201      	movs	r2, #1
 8002100:	701a      	strb	r2, [r3, #0]
      HAL_HCD_HC_NotifyURBChange_Callback(hhcd, (uint8_t)ch_num, hhcd->hc[ch_num].urb_state);
 8002102:	68fb      	ldr	r3, [r7, #12]
 8002104:	b2d9      	uxtb	r1, r3
 8002106:	687a      	ldr	r2, [r7, #4]
 8002108:	68fb      	ldr	r3, [r7, #12]
 800210a:	202c      	movs	r0, #44	; 0x2c
 800210c:	fb00 f303 	mul.w	r3, r0, r3
 8002110:	4413      	add	r3, r2
 8002112:	3360      	adds	r3, #96	; 0x60
 8002114:	781b      	ldrb	r3, [r3, #0]
 8002116:	461a      	mov	r2, r3
 8002118:	6878      	ldr	r0, [r7, #4]
 800211a:	f008 fa4f 	bl	800a5bc <HAL_HCD_HC_NotifyURBChange_Callback>
 800211e:	e034      	b.n	800218a <HCD_HC_IN_IRQHandler+0x48a>
    else if (hhcd->hc[ch_num].ep_type == EP_TYPE_ISOC)
 8002120:	687a      	ldr	r2, [r7, #4]
 8002122:	68fb      	ldr	r3, [r7, #12]
 8002124:	212c      	movs	r1, #44	; 0x2c
 8002126:	fb01 f303 	mul.w	r3, r1, r3
 800212a:	4413      	add	r3, r2
 800212c:	333f      	adds	r3, #63	; 0x3f
 800212e:	781b      	ldrb	r3, [r3, #0]
 8002130:	2b01      	cmp	r3, #1
 8002132:	d12a      	bne.n	800218a <HCD_HC_IN_IRQHandler+0x48a>
      hhcd->hc[ch_num].urb_state = URB_DONE;
 8002134:	687a      	ldr	r2, [r7, #4]
 8002136:	68fb      	ldr	r3, [r7, #12]
 8002138:	212c      	movs	r1, #44	; 0x2c
 800213a:	fb01 f303 	mul.w	r3, r1, r3
 800213e:	4413      	add	r3, r2
 8002140:	3360      	adds	r3, #96	; 0x60
 8002142:	2201      	movs	r2, #1
 8002144:	701a      	strb	r2, [r3, #0]
      hhcd->hc[ch_num].toggle_in ^= 1U;
 8002146:	687a      	ldr	r2, [r7, #4]
 8002148:	68fb      	ldr	r3, [r7, #12]
 800214a:	212c      	movs	r1, #44	; 0x2c
 800214c:	fb01 f303 	mul.w	r3, r1, r3
 8002150:	4413      	add	r3, r2
 8002152:	3354      	adds	r3, #84	; 0x54
 8002154:	781b      	ldrb	r3, [r3, #0]
 8002156:	f083 0301 	eor.w	r3, r3, #1
 800215a:	b2d8      	uxtb	r0, r3
 800215c:	687a      	ldr	r2, [r7, #4]
 800215e:	68fb      	ldr	r3, [r7, #12]
 8002160:	212c      	movs	r1, #44	; 0x2c
 8002162:	fb01 f303 	mul.w	r3, r1, r3
 8002166:	4413      	add	r3, r2
 8002168:	3354      	adds	r3, #84	; 0x54
 800216a:	4602      	mov	r2, r0
 800216c:	701a      	strb	r2, [r3, #0]
      HAL_HCD_HC_NotifyURBChange_Callback(hhcd, (uint8_t)ch_num, hhcd->hc[ch_num].urb_state);
 800216e:	68fb      	ldr	r3, [r7, #12]
 8002170:	b2d9      	uxtb	r1, r3
 8002172:	687a      	ldr	r2, [r7, #4]
 8002174:	68fb      	ldr	r3, [r7, #12]
 8002176:	202c      	movs	r0, #44	; 0x2c
 8002178:	fb00 f303 	mul.w	r3, r0, r3
 800217c:	4413      	add	r3, r2
 800217e:	3360      	adds	r3, #96	; 0x60
 8002180:	781b      	ldrb	r3, [r3, #0]
 8002182:	461a      	mov	r2, r3
 8002184:	6878      	ldr	r0, [r7, #4]
 8002186:	f008 fa19 	bl	800a5bc <HAL_HCD_HC_NotifyURBChange_Callback>
    if (hhcd->Init.dma_enable == 1U)
 800218a:	687b      	ldr	r3, [r7, #4]
 800218c:	691b      	ldr	r3, [r3, #16]
 800218e:	2b01      	cmp	r3, #1
 8002190:	d12b      	bne.n	80021ea <HCD_HC_IN_IRQHandler+0x4ea>
      if (((hhcd->hc[ch_num].XferSize / hhcd->hc[ch_num].max_packet) & 1U) != 0U)
 8002192:	687a      	ldr	r2, [r7, #4]
 8002194:	68fb      	ldr	r3, [r7, #12]
 8002196:	212c      	movs	r1, #44	; 0x2c
 8002198:	fb01 f303 	mul.w	r3, r1, r3
 800219c:	4413      	add	r3, r2
 800219e:	3348      	adds	r3, #72	; 0x48
 80021a0:	681b      	ldr	r3, [r3, #0]
 80021a2:	6879      	ldr	r1, [r7, #4]
 80021a4:	68fa      	ldr	r2, [r7, #12]
 80021a6:	202c      	movs	r0, #44	; 0x2c
 80021a8:	fb00 f202 	mul.w	r2, r0, r2
 80021ac:	440a      	add	r2, r1
 80021ae:	3240      	adds	r2, #64	; 0x40
 80021b0:	8812      	ldrh	r2, [r2, #0]
 80021b2:	fbb3 f3f2 	udiv	r3, r3, r2
 80021b6:	f003 0301 	and.w	r3, r3, #1
 80021ba:	2b00      	cmp	r3, #0
 80021bc:	f000 81be 	beq.w	800253c <HCD_HC_IN_IRQHandler+0x83c>
        hhcd->hc[ch_num].toggle_in ^= 1U;
 80021c0:	687a      	ldr	r2, [r7, #4]
 80021c2:	68fb      	ldr	r3, [r7, #12]
 80021c4:	212c      	movs	r1, #44	; 0x2c
 80021c6:	fb01 f303 	mul.w	r3, r1, r3
 80021ca:	4413      	add	r3, r2
 80021cc:	3354      	adds	r3, #84	; 0x54
 80021ce:	781b      	ldrb	r3, [r3, #0]
 80021d0:	f083 0301 	eor.w	r3, r3, #1
 80021d4:	b2d8      	uxtb	r0, r3
 80021d6:	687a      	ldr	r2, [r7, #4]
 80021d8:	68fb      	ldr	r3, [r7, #12]
 80021da:	212c      	movs	r1, #44	; 0x2c
 80021dc:	fb01 f303 	mul.w	r3, r1, r3
 80021e0:	4413      	add	r3, r2
 80021e2:	3354      	adds	r3, #84	; 0x54
 80021e4:	4602      	mov	r2, r0
 80021e6:	701a      	strb	r2, [r3, #0]
}
 80021e8:	e1a8      	b.n	800253c <HCD_HC_IN_IRQHandler+0x83c>
      hhcd->hc[ch_num].toggle_in ^= 1U;
 80021ea:	687a      	ldr	r2, [r7, #4]
 80021ec:	68fb      	ldr	r3, [r7, #12]
 80021ee:	212c      	movs	r1, #44	; 0x2c
 80021f0:	fb01 f303 	mul.w	r3, r1, r3
 80021f4:	4413      	add	r3, r2
 80021f6:	3354      	adds	r3, #84	; 0x54
 80021f8:	781b      	ldrb	r3, [r3, #0]
 80021fa:	f083 0301 	eor.w	r3, r3, #1
 80021fe:	b2d8      	uxtb	r0, r3
 8002200:	687a      	ldr	r2, [r7, #4]
 8002202:	68fb      	ldr	r3, [r7, #12]
 8002204:	212c      	movs	r1, #44	; 0x2c
 8002206:	fb01 f303 	mul.w	r3, r1, r3
 800220a:	4413      	add	r3, r2
 800220c:	3354      	adds	r3, #84	; 0x54
 800220e:	4602      	mov	r2, r0
 8002210:	701a      	strb	r2, [r3, #0]
}
 8002212:	e193      	b.n	800253c <HCD_HC_IN_IRQHandler+0x83c>
  else if ((USBx_HC(ch_num)->HCINT & USB_OTG_HCINT_CHH) == USB_OTG_HCINT_CHH)
 8002214:	68fb      	ldr	r3, [r7, #12]
 8002216:	015a      	lsls	r2, r3, #5
 8002218:	693b      	ldr	r3, [r7, #16]
 800221a:	4413      	add	r3, r2
 800221c:	f503 63a0 	add.w	r3, r3, #1280	; 0x500
 8002220:	689b      	ldr	r3, [r3, #8]
 8002222:	f003 0302 	and.w	r3, r3, #2
 8002226:	2b02      	cmp	r3, #2
 8002228:	f040 8106 	bne.w	8002438 <HCD_HC_IN_IRQHandler+0x738>
    __HAL_HCD_MASK_HALT_HC_INT(ch_num);
 800222c:	68fb      	ldr	r3, [r7, #12]
 800222e:	015a      	lsls	r2, r3, #5
 8002230:	693b      	ldr	r3, [r7, #16]
 8002232:	4413      	add	r3, r2
 8002234:	f503 63a0 	add.w	r3, r3, #1280	; 0x500
 8002238:	68db      	ldr	r3, [r3, #12]
 800223a:	68fa      	ldr	r2, [r7, #12]
 800223c:	0151      	lsls	r1, r2, #5
 800223e:	693a      	ldr	r2, [r7, #16]
 8002240:	440a      	add	r2, r1
 8002242:	f502 62a0 	add.w	r2, r2, #1280	; 0x500
 8002246:	f023 0302 	bic.w	r3, r3, #2
 800224a:	60d3      	str	r3, [r2, #12]
    if (hhcd->hc[ch_num].state == HC_XFRC)
 800224c:	687a      	ldr	r2, [r7, #4]
 800224e:	68fb      	ldr	r3, [r7, #12]
 8002250:	212c      	movs	r1, #44	; 0x2c
 8002252:	fb01 f303 	mul.w	r3, r1, r3
 8002256:	4413      	add	r3, r2
 8002258:	3361      	adds	r3, #97	; 0x61
 800225a:	781b      	ldrb	r3, [r3, #0]
 800225c:	2b01      	cmp	r3, #1
 800225e:	d109      	bne.n	8002274 <HCD_HC_IN_IRQHandler+0x574>
      hhcd->hc[ch_num].urb_state = URB_DONE;
 8002260:	687a      	ldr	r2, [r7, #4]
 8002262:	68fb      	ldr	r3, [r7, #12]
 8002264:	212c      	movs	r1, #44	; 0x2c
 8002266:	fb01 f303 	mul.w	r3, r1, r3
 800226a:	4413      	add	r3, r2
 800226c:	3360      	adds	r3, #96	; 0x60
 800226e:	2201      	movs	r2, #1
 8002270:	701a      	strb	r2, [r3, #0]
 8002272:	e0c9      	b.n	8002408 <HCD_HC_IN_IRQHandler+0x708>
    else if (hhcd->hc[ch_num].state == HC_STALL)
 8002274:	687a      	ldr	r2, [r7, #4]
 8002276:	68fb      	ldr	r3, [r7, #12]
 8002278:	212c      	movs	r1, #44	; 0x2c
 800227a:	fb01 f303 	mul.w	r3, r1, r3
 800227e:	4413      	add	r3, r2
 8002280:	3361      	adds	r3, #97	; 0x61
 8002282:	781b      	ldrb	r3, [r3, #0]
 8002284:	2b05      	cmp	r3, #5
 8002286:	d109      	bne.n	800229c <HCD_HC_IN_IRQHandler+0x59c>
      hhcd->hc[ch_num].urb_state = URB_STALL;
 8002288:	687a      	ldr	r2, [r7, #4]
 800228a:	68fb      	ldr	r3, [r7, #12]
 800228c:	212c      	movs	r1, #44	; 0x2c
 800228e:	fb01 f303 	mul.w	r3, r1, r3
 8002292:	4413      	add	r3, r2
 8002294:	3360      	adds	r3, #96	; 0x60
 8002296:	2205      	movs	r2, #5
 8002298:	701a      	strb	r2, [r3, #0]
 800229a:	e0b5      	b.n	8002408 <HCD_HC_IN_IRQHandler+0x708>
    else if ((hhcd->hc[ch_num].state == HC_XACTERR) ||
 800229c:	687a      	ldr	r2, [r7, #4]
 800229e:	68fb      	ldr	r3, [r7, #12]
 80022a0:	212c      	movs	r1, #44	; 0x2c
 80022a2:	fb01 f303 	mul.w	r3, r1, r3
 80022a6:	4413      	add	r3, r2
 80022a8:	3361      	adds	r3, #97	; 0x61
 80022aa:	781b      	ldrb	r3, [r3, #0]
 80022ac:	2b06      	cmp	r3, #6
 80022ae:	d009      	beq.n	80022c4 <HCD_HC_IN_IRQHandler+0x5c4>
             (hhcd->hc[ch_num].state == HC_DATATGLERR))
 80022b0:	687a      	ldr	r2, [r7, #4]
 80022b2:	68fb      	ldr	r3, [r7, #12]
 80022b4:	212c      	movs	r1, #44	; 0x2c
 80022b6:	fb01 f303 	mul.w	r3, r1, r3
 80022ba:	4413      	add	r3, r2
 80022bc:	3361      	adds	r3, #97	; 0x61
 80022be:	781b      	ldrb	r3, [r3, #0]
    else if ((hhcd->hc[ch_num].state == HC_XACTERR) ||
 80022c0:	2b08      	cmp	r3, #8
 80022c2:	d150      	bne.n	8002366 <HCD_HC_IN_IRQHandler+0x666>
      hhcd->hc[ch_num].ErrCnt++;
 80022c4:	687a      	ldr	r2, [r7, #4]
 80022c6:	68fb      	ldr	r3, [r7, #12]
 80022c8:	212c      	movs	r1, #44	; 0x2c
 80022ca:	fb01 f303 	mul.w	r3, r1, r3
 80022ce:	4413      	add	r3, r2
 80022d0:	335c      	adds	r3, #92	; 0x5c
 80022d2:	681b      	ldr	r3, [r3, #0]
 80022d4:	1c5a      	adds	r2, r3, #1
 80022d6:	6879      	ldr	r1, [r7, #4]
 80022d8:	68fb      	ldr	r3, [r7, #12]
 80022da:	202c      	movs	r0, #44	; 0x2c
 80022dc:	fb00 f303 	mul.w	r3, r0, r3
 80022e0:	440b      	add	r3, r1
 80022e2:	335c      	adds	r3, #92	; 0x5c
 80022e4:	601a      	str	r2, [r3, #0]
      if (hhcd->hc[ch_num].ErrCnt > 2U)
 80022e6:	687a      	ldr	r2, [r7, #4]
 80022e8:	68fb      	ldr	r3, [r7, #12]
 80022ea:	212c      	movs	r1, #44	; 0x2c
 80022ec:	fb01 f303 	mul.w	r3, r1, r3
 80022f0:	4413      	add	r3, r2
 80022f2:	335c      	adds	r3, #92	; 0x5c
 80022f4:	681b      	ldr	r3, [r3, #0]
 80022f6:	2b02      	cmp	r3, #2
 80022f8:	d912      	bls.n	8002320 <HCD_HC_IN_IRQHandler+0x620>
        hhcd->hc[ch_num].ErrCnt = 0U;
 80022fa:	687a      	ldr	r2, [r7, #4]
 80022fc:	68fb      	ldr	r3, [r7, #12]
 80022fe:	212c      	movs	r1, #44	; 0x2c
 8002300:	fb01 f303 	mul.w	r3, r1, r3
 8002304:	4413      	add	r3, r2
 8002306:	335c      	adds	r3, #92	; 0x5c
 8002308:	2200      	movs	r2, #0
 800230a:	601a      	str	r2, [r3, #0]
        hhcd->hc[ch_num].urb_state = URB_ERROR;
 800230c:	687a      	ldr	r2, [r7, #4]
 800230e:	68fb      	ldr	r3, [r7, #12]
 8002310:	212c      	movs	r1, #44	; 0x2c
 8002312:	fb01 f303 	mul.w	r3, r1, r3
 8002316:	4413      	add	r3, r2
 8002318:	3360      	adds	r3, #96	; 0x60
 800231a:	2204      	movs	r2, #4
 800231c:	701a      	strb	r2, [r3, #0]
      if (hhcd->hc[ch_num].ErrCnt > 2U)
 800231e:	e073      	b.n	8002408 <HCD_HC_IN_IRQHandler+0x708>
        hhcd->hc[ch_num].urb_state = URB_NOTREADY;
 8002320:	687a      	ldr	r2, [r7, #4]
 8002322:	68fb      	ldr	r3, [r7, #12]
 8002324:	212c      	movs	r1, #44	; 0x2c
 8002326:	fb01 f303 	mul.w	r3, r1, r3
 800232a:	4413      	add	r3, r2
 800232c:	3360      	adds	r3, #96	; 0x60
 800232e:	2202      	movs	r2, #2
 8002330:	701a      	strb	r2, [r3, #0]
        tmpreg = USBx_HC(ch_num)->HCCHAR;
 8002332:	68fb      	ldr	r3, [r7, #12]
 8002334:	015a      	lsls	r2, r3, #5
 8002336:	693b      	ldr	r3, [r7, #16]
 8002338:	4413      	add	r3, r2
 800233a:	f503 63a0 	add.w	r3, r3, #1280	; 0x500
